:020000040800F2
:10000000385F002059020008172400085B1F000811
:1000100015240008C9080008653600080000000023
:100020000000000000000000000000009D0100082A
:10003000F308000800000000F10100086B30000820
:1000400073020008730200087302000873020008BC
:1000500073020008730200087302000873020008AC
:10006000730200087302000873020008730200089C
:10007000730200087302000873020008730200088C
:10008000730200087302000873020008730200087C
:10009000730200087302000873020008730200086C
:1000A000730200087302000873020008730200085C
:1000B000730200087302000873020008730200084C
:1000C000730200087302000873020008730200083C
:1000D00073020008993500087302000873020008D3
:1000E000730200087302000873020008730200081C
:1000F000730200087302000873020008730200080C
:1001000073020008730200087302000873020008FB
:1001100073020008730200087302000873020008EB
:1001200073020008730200087302000873020008DB
:1001300073020008730200087302000873020008CB
:1001400073020008730200087302000873020008BB
:1001500073020008730200087302000873020008AB
:10016000730200087302000873020008730200089B
:100170007302000873020008730200080000000008
:100180007302000873020008DFF80CD000F0AEFA2A
:1001900000480047B7580008385F00202B4B19680B
:1001A0000868B0E8F04F80F30988BFF36F8F4FF015
:1001B000000080F3118870470000000006480068C6
:1001C000006880F3088862B661B6BFF34F8FBFF353
:1001D0006F8F00DF00BF00BF08ED00E0DFF80C000C
:1001E000016841F470010160704700BF88ED00E0D4
:1001F000EFF30980BFF36F8F144B1A681EF0100FD6
:1002000008BF20ED108A20E9F04F106008B44FF0CD
:10021000500080F31188BFF34F8FBFF36F8F06F04C
:10022000A9FA4FF0000080F3118808BC196808682B
:10023000B0E8F04F1EF0100F08BFB0EC108A80F34A
:100240000988BFF36F8F704700BF00BF7C0000209C
:10025000EFF30580704700000648804706480047D6
:10026000FEE7FEE7FEE7FEE7FEE7FEE7FEE7FEE766
:10027000FEE7FEE719310008890100082DE9F05F6B
:100280000546002092469B46884606468146402405
:100290001BE0284641464746224600F05EF853469A
:1002A0005A46C01A914110D311461846224600F012
:1002B00045F82D1A67EB01084F4622460120002120
:1002C00000F03CF817EB00094E41201EA4F1010498
:1002D000DFDC484631462A464346BDE8F09F40EA07
:1002E00001039B0703D009E008C9121F08C0042AB4
:1002F000FAD203E011F8013B00F8013B521EF9D29B
:100300007047421C10F8011B0029FBD1801A70476E
:1003100030B50B46014600202022012409E021FAD5
:1003200002F59D4205D303FA02F5491B04FA02F5D2
:100330002844151EA2F10102F1DC30BD202A04DBA5
:10034000203A00FA02F1002070479140C2F12003E8
:1003500020FA03F3194390407047202A04DB203A27
:1003600021FA02F00021704721FA02F3D040C2F1D5
:10037000200291400843194670472DE9FE4F804600
:1003800081EA0300C00F0C46009021F0004123F0E9
:100390000045B8EB0200A94105D2404621469046EF
:1003A0001C460B46024623F00040104347D0270D61
:1003B000C7F30A00C3F30A510290401A0190402883
:1003C0006BDAC3F3130040F4801B0098924620B10F
:1003D0000023D2EB030A63EB0B0B01985946C0F1E3
:1003E00040025046FFF7AAFF06460D4650465946C2
:1003F000019A00F08DF910EB08006141002487EAB2
:10040000115284EAE7731A4340D0009A62B3019A0A
:10041000012A4FEA075215DC001B61EB02014FF085
:10042000004202EA0752CDE90042001C41F580116A
:1004300032462B4600F08DF903B0BDE8F08F404600
:100440002146F9E7001B61EB0201001C41F5801316
:1004500000185B412018A2F5001747EB030140EAA2
:10046000D570B6196D4111E06D084FEA360645EAC0
:10047000C0754FEA0752001B61EB0201001C41F5F9
:10048000801149084FEA30000019514132462B468D
:1004900003B0BDE8F04F00F04DB9009801224000D4
:1004A0000023D0EB020263EBE073009821464FEA91
:1004B000E074B8EB000061EB0401E9E783F000436E
:1004C0005BE781F0004158E72DE9FE4F81EA030424
:1004D00004F0004421F0004100944FF0000B23F0A1
:1004E000004350EA01045ED052EA03045BD0C3F338
:1004F0000A54C1F30A552C44A4F2F3340194A0FB2E
:100500000254C1F3130141F48011C3F3130343F404
:10051000801301FB024400FB034E840A970A44EA5D
:10052000815447EA8357A4FB076802958D0A05FBAF
:1005300007854FEA932C04FB0C542705029D4FEAD4
:10054000065847EA1637B5EB08056EEB070C870E21
:10055000920E47EA811742EA8312A7FB0201B6EB2B
:100560000B0164EB00042B0D43EA0C335E1844EBE3
:100570001C50DA465146E7FB0201C5F313044FEA6B
:100580000B3343EA14534FEA0432019C43EA060357
:10059000A4F10C040294009CCDE900B400F0D9F859
:1005A00003B0BDE8F08F00200146F9E72DE9F04DDA
:1005B00081EA030404F0004B21F0004514464FF09B
:1005C000000A23F0004150EA050220D054EA01025B
:1005D0001DD0C5F30A570246C5F31303C1F3130038
:1005E000C1F30A5640F4801543F48013A7EB0608C4
:1005F000101BD64608F2FD3873EB050002D308F154
:10060000010801E092185B41B8F1000F03DA002005
:100610000146BDE8F08D00204FF480110646844667
:100620000EE0171B73EB050705D3121B63EB0503E5
:1006300006434CEA010C49084FEA300092185B412E
:1006400050EA0107EDD152EA030012D082EA040019
:1006500083EA0501084305D0101BAB4106D20122F5
:10066000002306E000224FF0004302E06FF0010299
:1006700053101AEB06004CEB085110EB0A0041EB4B
:100680000B01BDE8F04D00F055B8C1F30A52C1F3BB
:10069000130140F2FF3341F480119A4202DA002044
:1006A0000146704740F233439A42A2F2334202DCE1
:1006B0005242FFF752BEFFF741BE000030B5041EA4
:1006C00071F1000404DB4FF00044404264EB01018F
:1006D000141E73F1000405DB1C464FF00043524228
:1006E00063EB0403994208BF904230BD064C074DAE
:1006F00006E0E06840F0010394E8070098471034F2
:10070000AC42F6D3FFF744FD307300085073000885
:10071000202A06DBCB17203A41FA02F043EAE073C5
:1007200006E041FA02F3D040C2F1200291400843B2
:100730001946704710B5141E73F1000408DA401C06
:1007400041F1000192185B411A4301D120F00100F0
:1007500010BD2DE9F04D92469B4611B1B1FA81F2E0
:1007600002E0B0FA80F220329046FFF7E7FD04463F
:100770000F4640EA0A0041EA0B0153465A46084335
:1007800013D0114653EA010019D0C8F14002504677
:10079000FFF7E3FD05460E46504659464246FFF731
:1007A000CDFD084305D0012004E020463946BDE8D0
:1007B000F08D0020054346EAE0762C4337430A9843
:1007C0006305E40AA0EB08000022FD0A44EA47544E
:1007D0000A3002D500200146E9E7010510196941F8
:1007E000DDE9084500196941BDE8F04DA2E70000C8
:1007F0000FB40A4810B503AA029903F0A9F80446F9
:100800000648FFF77EFD82B24FF6FF7303490448A6
:1008100001F045FB204610BC5DF814FBB800002039
:10082000980900200146014800F018BFBC080020CC
:1008300010B5044800F024FF042801D0012010BDA9
:10084000002010BDBC08002038B501208DF8000044
:100850009DF80000012801D0012038BD064800F0B5
:1008600025FF040006D14FF40061034800F0CCFDE1
:1008700000B10124204638BDBC080020134610B545
:100880000A4601460024034800F088FF00B1012415
:10089000204610BDBC08002003484FF0FF32012164
:1008A000406805F0BFB8000008000020134610B5EE
:1008B0000A4601460024034800F0EEFF00B101247F
:1008C000204610BDBC080020FEE730B5046825684E
:1008D00025F480252560046863608368402B0368E5
:1008E00003D099600068C26030BD9A600068C16042
:1008F00030BD7047002200F001B8000030B50E4B4B
:10090000054601209C7B022C15D2987B00241C54A8
:10091000987B03EB800045609D7B03F10C002A541B
:10092000987B421C9A73303008703A2048702F2010
:100930008870CC70002030BDF819002070B5B3F578
:10094000804F05D06FF0704140F82210002070BD3C
:1009500050F82240084B8E891C40D1E9003543EA0B
:1009600005138D6889692D0245EA06452B430B4323
:10097000234340F82230E9E70000F0CFF0B50C68DF
:1009800050F82430114A1340D1E90125D1E9036719
:100990002A433E4332434E6932438E693243CE6925
:1009A00032430E6A32434E6A32438E6A3243CE6A13
:1009B0003243CE6B096B32430A431A43082D01D1EF
:1009C00042F0400240F824200020F0BD8000F0FFFB
:1009D00030B500EB820250688D8900F04043D1E9C8
:1009E000000440EA04108C68240244EA05442043D1
:1009F0000C8A074D05EB045420430C7D6D0105EB7B
:100A0000046489692043084318435060002030BDC6
:100A10000000F0FF10B5040002D0607910B106E0CC
:100A2000012010BD00202071204600F007F80220B0
:100A3000607101206071002010BD000008B50068E1
:100A40000649884208D10648016841F48051016096
:100A5000006800F48050009008BD000000300240A3
:100A60003038024090F83510022903D080214165CA
:100A700001207047052180F835100068016821F0D9
:100A800001010160002070472DE9F0410446866DA8
:100A900090F83400002501280DD0012084F834009E
:100AA00094F835700020012F07D084F83400022517
:100AB0002846BDE8F0810220FBE7022784F8357064
:100AC00060652046FFF701FF94F85C103F208840E6
:100AD000B0602068016841F016010160206841693A
:100AE00041F080014161206C20B12068016841F033
:100AF000080101602068016841F001010160D7E749
:100B000070B5044600F03CF90546601C02D004486C
:100B10000078044400F034F9401BA042FAD370BDC1
:100B20003C000020F0B5214887B0016800293AD187
:100B3000012101601E480024016841F001010160AB
:100B40000068022500F0010005904FF23F00CDE95A
:100B5000000502AA03260C2782E8D0006946154842
:100B600000F030F841F23F40CDE9000502AA6946A5
:100B700082E8D000104800F025F84FF68370CDE9E8
:100B8000000502AA694682E8D0000C4800F01AF875
:100B90004DF63370CDE9000502AA694682E8D0001F
:100BA000074800F00FF807B0F0BD0000300000204B
:100BB0003838024000140240001802400010024081
:100BC000000C02402DE9F84FDFF87CB100224FF015
:100BD00001084FF0030A4FF00F090BF1040E00BF9C
:100BE0000B6808FA02F42340A3426ED14D68022D2F
:100BF00001D0122D0ED1D50800EB850CDCF8205069
:100C00005607F70E09FA07F6B5430E69BE402E43A4
:100C1000CCF82060066855000F790AFA05FC07F049
:100C2000030726EA0C06AF40374307604E68012EE3
:100C300005D0022E03D0112E01D0122E0ED18668BF
:100C4000CF6826EA0C06AF40374387604668A64364
:100C50000C79C4F30014944034434460C6688C6833
:100C600026EA0C06AC403443C4604C68E40065D509
:100C7000364C256845F480452560246822F003053C
:100C800004F480440094324C2E19D6F80848950795
:100C90002F0F09FA07F5AC432E4DA84201D10025CC
:100CA00024E02D4DA84201D101251FE02B4DA84283
:100CB00001D102251AE02A4DA84201D1032515E0F1
:100CC000284DA84202D1042510E037E0264DA84265
:100CD00001D105250AE0254DA84201D1062505E0F0
:100CE000234DA84201D1072500E00825BD4025433A
:100CF000C6F80858DBF800405D464E689C43F60392
:100D000000D51C432C60DEF8004075464E689C43BD
:100D1000B60300D51C432C600B4D08352C684E687B
:100D20009C43F60200D51C432C60074D0C352C6803
:100D30004E689C43B60200D51C432C60521C102AFE
:100D4000FFF44EAFBDE8F88F003C0140443802404C
:100D50000030014000000240000402400008024050
:100D6000000C024000100240001402400018024033
:100D7000001C02400AB1816170470904FBE70000D2
:100D800001488068704700003C00002002488168EC
:100D900002781144816070473C0000200B4810B578
:100DA000016841F400710160016841F480610160F3
:100DB000016841F480710160032000F097F80F2072
:100DC00000F006F800F024F8002010BD003C0240BE
:100DD00070B50D4D04464FF47A712878B1FBF0F0F0
:100DE0000A490968B1FBF0F000F05BFF48B9102C2C
:100DF00007D200222146501E00F058F800206C60F7
:100E000070BD012070BD00003C00002048000020A3
:100E10001F4808B5016841F480410160006800F492
:100E2000804000901A48001F016841F08051016025
:100E3000006800F080500090032000F057F8002276
:100E400011466FF00B0000F031F8002211466FF0F0
:100E50000A0000F02BF8002211466FF0090000F0A4
:100E600025F800221146501F00F020F800221146FC
:100E7000101F00F01BF800220F21901E00F016F842
:100E800000220F21BDE80840501E00F00FB80000FE
:100E90004438024000F01F020121914040098000C7
:100EA00000F1E020C0F8001170470000F0B40E4BD4
:100EB0001B680C46C3F30223C3F10705042D00D9B8
:100EC0000425191D072901D2002300E0DB1E01269D
:100ED00006FA05F1491E214099409E40761E1640B3
:100EE0003143F0BC01F098BA0CED00E0064900F087
:100EF000070208684FF6FF03184040EA0220034A41
:100F000010430860704700000CED00E00000FA0597
:100F10002DE9F0470E46050065D0DFF81481D8F8BA
:100F20000000F7B200F00F00B04207D288F800705E
:100F3000D8F8000000F00F00B04254D128683D4CB2
:100F4000810712D5400703D5206840F4E0502060A7
:100F50002878000703D5206840F4604020602068AE
:100F6000A96820F0F000084320602878C0072DD041
:100F7000304968680839012812D0022813D00328A4
:100F800011D00968890700292DDA216821F00301B1
:100F900001432160FFF7F4FE814641F2883A0EE0FA
:100FA00009688903EFE709688901ECE7FFF7E8FEC4
:100FB000A0EB0901514502D90320BDE8F087206864
:100FC000696800F00C00B0EB810FEFD1D8F8001089
:100FD000404601F00F01B14207D90770006800F0E8
:100FE0000F00B04201D00120E7E72878400705D57F
:100FF0002068E96820F4E050084320602878000762
:1010000006D52068296920F4604040EAC1002060CC
:1010100000F03CF82168084AC1F30311515CC84054
:10102000064908600F20FFF7D3FE0020C5E7000047
:10103000003C02400838024070720008480000205E
:101040000148006870470000480000200448054936
:1010500000680968044AC1F38221515CC8407047A6
:101060004800002008380240807200080448054902
:1010700000680968044AC1F34231515CC8407047B6
:10108000480000200838024080720008154810B55A
:10109000006810F00C02144813D04110042A0FD03D
:1010A000082A0ED10F4C241F2268236802F03F0249
:1010B0005B0207D52068C0F38810A0FB010106E0A1
:1010C000084610BD2168C1F38811A1FB000100236F
:1010D000FFF7D4F82168C1F30141491C4900B0FB76
:1010E000F1F010BD083802400024F4002DE9F84F5B
:1010F000050076D02878DFF8F8B2BE4CC00749D09A
:10110000DBF800105846C1F38101012908D00068BE
:10111000C0F3810002280AD1201D0068400206D5D4
:101120002068800336D568680028E2D032E068681D
:10113000B0F5803F10D0B0F5A02F206810D020F47B
:1011400080302060206820F4802020606868A0B192
:10115000FFF716FE06460CE0206840F48030F4E706
:1011600040F480202060F7E7FFF70AFE801B642828
:1011700073D820688003F7D50CE0FFF701FE064620
:1011800005E000BFFFF7FCFD801B6428F0D8206855
:101190008003F7D42878DFF8608280074FF00009D9
:1011A0003ED5DBF80010584611F00C0F09D000684E
:1011B000C0F3810002280BD18D48001F0068400257
:1011C00006D42068800715D5E868012809D111E008
:1011D000E868B8B10120C8F80000FFF7D1FD064665
:1011E00005E002E1FFF7CCFD801B0228C0D8206893
:1011F0008007F7D52068296920F0F80040EAC1008F
:1012000020600DE0C8F80090FFF7BAFD064604E044
:10121000FFF7B6FD801B02281FD820688007F7D48F
:101220002878000722D5724E744869696C3671B10E
:1012300001210160FFF7A4FD074604E0FFF7A0FDD0
:10124000C01B022809D830688007F7D50EE0C0F827
:101250000090FFF795FD074605E083E0FFF790FD5E
:10126000C01B02287ED830688007F7D42878400752
:1012700068D5DFF87CA100270AF1380ADAF8000007
:10128000C0000BD4DAF8001041F08051CAF8001009
:10129000DAF80000012700F080500090584E3068C6
:1012A000C00510D4306840F480703060FFF768FDEE
:1012B000009005E0FFF764FD0099401A022851D81C
:1012C0003068C005F6D54A4EA868683601280FD0A8
:1012D0000528306810D020F001003060306820F020
:1012E00004003060A868B8B1FFF74AFD00900FE035
:1012F000306840F00100F4E740F004003060F7E7A8
:10130000FFF73EFD0099411A41F28830814264D8CE
:1013100030688007F4D50EE0FFF732FD009007E05B
:10132000FFF72EFD0099411A41F28830814254D8CE
:1013300030688007F4D42FB1DAF8001021F0805122
:10134000CAF80010A869C0B3DBF80010C1F381012E
:1013500002294AD00228484607D0C8F86000FFF7A3
:101360000FFD00E039E005463AE04746C8F8600066
:10137000FFF706FD064604E0FFF702FD801B02288A
:101380002BD820688001F7D4D5E907010843A96A62
:101390001C4A490802EB01416A6A41EA821108438A
:1013A00095F82C1040EA01611148001F01600120EE
:1013B0003866FFF7E5FC054605E014E0FFF7E0FCC2
:1013C000401B022809D820688001F7D50BE000BF38
:1013D000FFF7D6FC401B022802D90320BDE8F88F96
:1013E00020688001F4D40020F8E70120F6E700002F
:1013F000083802400038024000004742800E474251
:10140000007000400000FFFFFEB5044603200D46BB
:1014100084F83400606C032820D0B5F5805F1DD0BF
:10142000B5F5006F05D045B1A06B40F00060A0633A
:1014300009E0204601F0E0FC02E0204601F0B5FCA6
:10144000A16B0143A163A06B012658B1216840F252
:10145000FF50886384F834600120FEBDA06B40F02B
:101460008050E4E7211DD4E905700EC90095CDE94F
:101470000170206800F0FCFF84F834600020FEBD9D
:101480007047F0B5426E120E93090B70C2F38303DE
:101490004B7002F003028A70426E120CCA70B0F8F0
:1014A0006420120A0A7190F864204A71826E4FF625
:1014B000FF73120E03EA0212CA80826ECB88C2F357
:1014C000074243EA1213CB8002F00F020A72B0F80F
:1014D0006820C2F30722D3094B72C2F380138B72C8
:1014E000C2F34013CB72C2F300130B7300264E738A
:1014F000446C4FF4007701236CB1012C43D0026897
:1015000040F2FF519163816B41F08051816380F81B
:1015100034300120F0BD9207120D0A6190F8682066
:101520000C6944EA82020A61C26E0C69120E44EA36
:1015300092140C61C2F3C2040C7502F007024A75E2
:10154000C26EC2F3074254098C75C2F38204CC7593
:101550009207520F0A76B0F86C20C2F307240A7E75
:1015600042EAD4120A760A69521C42650D7EAD1C0D
:10157000AA4042650D7A03FA05F585656D0A6A434E
:10158000C0E917271CE090F868209206920A0A61C9
:10159000C26E0C69120E44EA02220A61C26E0C6924
:1015A000C2F3074214430C61B0F86C20C2F3072465
:1015B0000A69521C4FEA82224265C0E91672076628
:1015C000C4F3801201F8192F4FEA84624FEA526285
:1015D0004A7010F86C2F4C7844EAD2144C7002F028
:1015E0007F028A7042684FEA12624FEAD214CC70CE
:1015F000C2F341140C71C2F382044C714FEA82723F
:101600004FEA12728A7142688C79C2F3074244EA47
:1016100092148C71C2F34014CC710E7202F001026C
:101620004A728288C2F307224FEAD2148C72C2F344
:101630008014CC72C2F340140C73C2F300144C73C8
:10164000C2F381048C7302F00302CA7300794FEA7B
:10165000500008744B744FF00000F0BD426C0A60FB
:10166000826C4A60C26C8A60026DCA60426D0A6117
:10167000826D4A61C26D8A61006EC8610020704748
:1016800070B50446B0F8500000250104206801F050
:1016900068F818B1A16B0143A16304E00021206840
:1016A00000F0E0FE0546C5F3432070BD70B50400B0
:1016B00004D094F83400002510B105E0012070BD7D
:1016C0002577204600F038F8032084F834002046BF
:1016D00000F008F8A5632563012084F83400002099
:1016E00070BD0000FEB50025044676200095CDE9CA
:1016F00001502B462A462946206800F0B9FE0D4EBF
:1017000046F8A05F206800F0C5FE01253560022084
:10171000FFF7F6F9204601F0F7FA20B9204601F06C
:1017200080FA002805D084F83450A16B0143A163EE
:101730000120FEBD00802542F0B50068134987B046
:10174000884221D112480024016841F400610160FF
:101750000068022500F4006005904FF4F850CDE9D0
:10176000000502AA03260C2782E8D0006946094832
:10177000FFF728FA0420CDE9000502AA694682E8AD
:10178000D0000548FFF71EFA07B0F0BD002C01405D
:101790004438024000080240000C02402DE9F043AA
:1017A000154687B01F460A00044607D094F8340057
:1017B000012807D0022007B0BDE8F083A06B40F0FD
:1017C000006008E00020A063E36DE919994204D9A4
:1017D000A06B40F00070A06351E0032184F8341046
:1017E00021688146C8622168CB6B43F49573CB6353
:1017F000E36B24494FEA4728D963E36B2249D96454
:10180000E16B4FEA980308652168E06B8031FFF7D0
:101810003BF91E4801260660606C012800D06D026D
:101820004FF0FF30CDE9000890200290022005968D
:10183000CDE903096946206800F0FEFD4FF4007110
:10184000206800F071FE40F2FF5880B9012F06D9E0
:10185000822020632946206800F0F4FE05E0812004
:1018600020632946206800F006FF0028A3D02268E4
:10187000C2F83880A16B0143A16384F83460012071
:1018800099E70000032B0008AD2A00088C8525424B
:1018900010B5FFF701F810BD2DE9F04F87B01F46D6
:1018A00015465FEA010B044607D094F8340001287E
:1018B00007D0022007B0BDE8F08FA06B40F00060B9
:1018C00008E00020A063E26DE919914204D9A06B01
:1018D00040F00070A06339E0032184F834102168DF
:1018E0008046C8622168CA6B42F01A02CA63226C41
:1018F0002349D163226C2349D164216C0865606C53
:10190000012800D06D024FF40071206800F00CFE39
:10191000012640F2FF5988B94FF0900A012F06D9ED
:10192000A02020632946206800F066FF05E0C4F887
:1019300030A02946206800F078FF48B12268C2F83C
:101940003890A16B0143A16384F834600120B1E7B2
:101950000D48066022687D02AB0859468032206C33
:10196000FFF792F84FF0FF308DE82104CDE90486AF
:10197000CDF80C806946206800F05EFD002099E7F4
:10198000412B0008AD2A00088C85254270B5040063
:1019900005D00025A56294F8510010B106E00120A1
:1019A00070BD84F85050204600F030F8022084F8D2
:1019B00051002068016821F040010160D4E9010173
:1019C0000843D4E903121143084361690843218B9A
:1019D00001F400710843E1690843216A0843A16AE0
:1019E000084321680860A069042101EA1040616A87
:1019F0000843216848602068C16921F40061C16121
:101A00006565012084F85100002070BD00B50068B4
:101A10000E4987B0884216D10D480021026842F471
:101A200080520260006800F48050059038200090D9
:101A30000220CDE9010103200390052004906946AE
:101A40000448FFF7BFF807B000BD000000300140B8
:101A500044380240000402402DE9F84F044690F853
:101A6000500000260A9F9A4693460D464FF0010803
:101A700001280ED0012084F85000FFF781F981463B
:101A800094F85100616801280CD0B1F5827F07D12C
:101A900002E00220BDE8F88FA16809B9042801D04E
:101AA0000226BDE055B1BBF1000F07D0BAF1000F1F
:101AB00004D094F85100012802D004E00126AFE0E0
:101AC000052084F8510000206065C4F838B0A4F8FF
:101AD0003EA0A4F83CA02563A4F836A0A4F834A046
:101AE0002064606420680168490603D4016841F0FD
:101AF00040010160E068B0F5006F606804D0E8B3B1
:101B0000E08E01283BD06AE010B1E08E01282ED192
:101B1000216835F8020BC860E08E401EE08626E0A2
:101B2000B8F1000F0DD0E08E58B1206881688907A8
:101B300007D535F8021BC160E08E401EE0864FF0ED
:101B40000008E08F58B120688168C90707D0C068D5
:101B50002BF8020BE08F401EE0874FF00108781C45
:101B600005D0FFF70DF9A0EB0900B84246D2E08E90
:101B70000028D5D1E08F0028D2D136E0FFE72168D8
:101B800015F8010B0873E08E401EE08627E000BFC9
:101B9000B8F1000F0DD0E08E58B120688168890738
:101BA00007D515F8011B0173E08E401EE0864FF04B
:101BB0000008E08F58B120688168C90707D0C06865
:101BC0000BF8010BE08F401EE0874FF00108781CF6
:101BD00005D0FFF7D5F8A0EB0900B8420ED2E08E91
:101BE0000028D5D1E08F0028D2D13B460122022126
:101BF0002046CDF8009001F0E7F908B103260FE088
:101C00004A463946204601F0CFF918B10126202076
:101C1000606505E0A06818B92068C1688068009018
:101C2000012084F85100002084F85000304631E74C
:101C300070B515460E46040003D094F8490010B163
:101C400007E0012070BD002084F84800204600F025
:101C50001AF804F108012068FEF790FE3146A268E8
:101C60002068FEF7B5FED4E901022946236BFEF792
:101C700065FEA168206850F8212042F0010240F87A
:101C80002120002070BDFEF74DBF4FF0E021042859
:101C9000086903D020F004000861704740F0040098
:101CA000FAE710B5401EB0F1807F01D3012010BDCE
:101CB0004FF0E02460610F21601700F0ADFB0020C1
:101CC000A06107202061002010BD704770B5026838
:101CD00004461068D168536910F00F0F50D003F01C
:101CE000010501F4907635435DD0C20705D0CA05E1
:101CF00003D5E26B42F00102E263420705D5DA0741
:101D000003D0E26B42F00202E263820705D5DA07F4
:101D100003D0E26B42F00402E263020705D5DA0762
:101D200003D0E26B42F00802E263E26B002A33D098
:101D3000800604D5880602D5204601F02DFA2068D9
:101D40004069E16BC0F38010090700D428B3204636
:101D500001F014FA2068416949061AD5416921F059
:101D600040014161606BA0B11B490165606BFEF7EA
:101D700079FE002810D0606B016DBDE87040084707
:101D8000830610D58B060ED52046BDE8704001F0C5
:101D900003BA2046FFF799FF70BD2046FFF795FF75
:101DA0000020E06370BD030606D50B0604D520466F
:101DB000BDE8704001F08CBB4006F3D54806F1D574
:101DC000D168204621F04001D160202184F83910EB
:101DD00000F0C2F870BD00006D31000870B504005D
:101DE00004D094F83900002510B106E0012070BD40
:101DF00084F83850204600F023F8242084F8390075
:101E00002068C16821F40051C160204601F00AFA3F
:101E10002068016921F4904101612068416921F045
:101E20002A0141612068C16841F40051C160E56345
:101E3000202084F8390084F83A00002070BD0000AA
:101E400000B50068124987B088421FD11148016867
:101E500041F0100101600068694600F01000059033
:101E60004FF4C060009002200190012002900320F6
:101E70000390072004900848FEF7A4FE00220521E5
:101E80002520FFF713F82520FFF704F807B000BD61
:101E900000100140443802400000024070472DE924
:101EA000F843044690F839001F4616460D46202890
:101EB00050D1A5B19EB194F8380001284AD0012034
:101EC00084F838004FF00008C4F83C80212084F8E2
:101ED0003900FEF755FFA6848146E68426E00120FE
:101EE000BDE8F883E08C401EE084A0684B46B0F566
:101EF000805F4FF000024FF080012046009703D032
:101F000001F017FBE8B90DE001F013FBC8B9288810
:101F10002168C0F308004860206908B16D1C05E025
:101F2000AD1C03E0216815F8010B4860E08C002827
:101F3000D8D14B46002240212046009701F0F9FA03
:101F400008B10320CCE7202084F8390084F83880D9
:101F50000020C5E70220C3E77047FEE7084910B537
:101F6000064808600846FEF755FD002805D0BDE884
:101F70001040422103A001F0E9BC10BD0030024036
:101F8000000000202E2E2F5372632F6372632E6386
:101F90000000000010B5A6B044494548FEF7AAFC71
:101FA000424CA41EA11C20704248FEF7A3FC6070A6
:101FB000242241A11AA8FEF792F948A0FEF718FCC6
:101FC0006078002831D149A0FEF712FC0022A11C44
:101FD000494802F0C3FEC0B148A0FEF709FC48A082
:101FE000FEF706FC4FF400700090484B00220721DA
:101FF000A01C02F00DFC30B140A0FEF7F9FB5D2102
:1020000043A001F0A3FC5F210CE045A0FEF7F0FB2C
:102010000A2249A14B4802F0DFFE40B137A0FEF78B
:10202000E7FB6E213AA001F091FC26B010BD1AA981
:1020300045A0FEF7DDFB23AB21221AA9414803F09E
:10204000E4F8239901B120B12CA0FEF7D1FB7A214D
:10205000E8E73C4802F0C4FB012237A1394802F00E
:10206000BBFE08B18521DDE73BA0FEF7C1FB24AB39
:10207000642201A9334802F0B9FF249901B120B1CB
:102080001EA0FEF7B5FB9121CCE72E4802F0A8FB7D
:10209000DDE92301814204D032A0FEF7A9FB9D2196
:1020A000C0E701A937A0FEF7A3FBBEE7120000209E
:1020B000407200081800002054686973206973207A
:1020C00053544D333220776F726B696E6720776996
:1020D0007468204661744673000000000D0A4D5874
:1020E0005F46415446535F496E6974000D0A665F4E
:1020F0006D6F756E74200000B8010020657272006B
:102100000D0A665F6D6B6673200000001C060020E0
:102110002E2E2F5372632F66617466732E63000038
:102120000D0A665F6F70656E202253544D33322E58
:10213000545854222000000053544D33322E54582A
:1021400054000000EC0300200D0A665F777269748A
:1021500065202225732220000D0A665F7265616486
:102160002020000065727220627974657372656167
:102170006420213D20627974657377726974746597
:102180006E000000222573220000000000B585B01B
:10219000142206496846FEF7A2F80021684603F0BB
:1021A000F5FC0349086005B000BD00005C72000842
:1021B0002C0000202DE9F04F30488FB0042100247E
:1021C000C0E902141025C0E904458461C4614FF4DC
:1021D000805A0462C0E9094AC46204634463DFF8B8
:1021E000A09084634FF020484464C0E900890F2622
:1021F0004FF0090B8DE8500803A8112780E8B000C4
:10220000002269461D480694FFF712FD18B16221AD
:102210001CA001F09BFB19480621503007AAC0E919
:102220000214C0E904458461C4610462C0E9094A3A
:102230004FF48041C0E90B41446384634464C0E9C6
:10224000008902A900961920019681E8B1000820B2
:10225000CDE906400AA8694680E8B0000D94074819
:10226000CDE9086B5030FFF7E3FC002803D08B2149
:1022700004A001F06BFB0FB0BDE8F08F1C0800203C
:10228000040100A02E2E2F5372632F66736D632EF0
:102290006300000070B52B4886B00024016841F04F
:1022A00020010160016801F020010591016841F001
:1022B00080010160016801F080010591016841F031
:1022C00040010160016801F040010591016841F0A1
:1022D00010010160016801F010010591016841F0F1
:1022E00002010160016801F002010591016841F0FD
:1022F00008010160016801F008010591016841F0E1
:1023000004010160016801F004010591016841F0D8
:102310000101016000680C4E00F001004FF480459F
:102320000590002229463046FEF724FD0120009545
:10233000CDE90104694630460394FEF743FC06B03C
:1023400070BD0000303802400004024006480549D4
:102350000160002141608160C16001614161816172
:1023600070470000002C0140BC080020114810B547
:102370000F4901604FF482714160002102228160A7
:10238000C0E90312012242615202C0E90621016242
:10239000416281620A21C162FFF7F8FA002805D084
:1023A000BDE810404F2104A001F0D0BA10BD0000DC
:1023B00000300140400900202E2E2F5372632F73EE
:1023C00070692E63000000000D4810B50B490160D4
:1023D0004FF4E1314160002181600C22C160C0E90D
:1023E00004128161C161FFF7F9FC002805D0BDE846
:1023F00010404C2103A001F0A9BA10BD001001400B
:10240000980900202E2E2F5372632F7573617274FA
:102410002E630000FEE770470907090E002806DA60
:1024200000F00F0000F1E02080F8141D704700F16B
:10243000E02080F8001470470A6842624A688262AD
:10244000D1E902231A43D1E904310B43C16A1A438B
:1024500021F0F7011143C16200207047006800F0CD
:102460000300704708B5084414300090006808BDA8
:1024700070B50DF1100C11439CE870002343194313
:1024800029434268314347F6FF639A430A43426057
:10249000002070BD0321016000207047D0F880004B
:1024A00070470A688260D1E901231A43D1E90331F8
:1024B0000B43C1681A436FF30B011143C160002045
:1024C000704710B586B004463720CDE90010402093
:1024D0000290002003904FF48060049069462046EB
:1024E000FFF7DFFF41F288323721204600F0B6F9CE
:1024F00006B010BD10B504460A4886B00143292035
:10250000CDE9001040200290002003904FF480603D
:10251000049069462046FFF7C4FF204600F054FAB5
:1025200006B010BD0000108010B586B00446102023
:10253000CDE9001040200290002003904FF480600D
:10254000049069462046FFF7ACFF41F28832102123
:10255000204600F083F906B010BD10B586B00446E1
:102560000620CDE9001040200290002003904FF497
:102570008060049069462046FFF793FF41F288325D
:102580000621204600F06AF906B010BD30B585B0CE
:1025900000240546009401944FF480600294CDE934
:1025A000034069462846FFF77CFF0B484FF4FA5179
:1025B0000068B0FBF1F041F288314843401E03D27D
:1025C0004FF0004005B030BD696B0906F6D540F20A
:1025D000FF50A8632046F5E74800002070B585B09D
:1025E00004464FF4D570009008204026CDE901063E
:1025F0000025C001CDE9035069462046FFF751FF91
:102600000F484FF4FA510068B0FBF1F041F2883105
:102610004843401E02D24FF000450DE0616B11F0BF
:10262000450FF6D0606B400702D5A663042503E092
:10263000606B400600D5A66305B0284670BD00005B
:102640004800002010B586B004461220CDE90010E5
:1026500040200290002003904FF48060049069466F
:102660002046FFF71EFF41F288321221204600F07B
:10267000F5F806B010BD10B586B004461120CDE9BE
:10268000001040200290002003904FF480600490DE
:1026900069462046FFF705FF41F2883211212046A6
:1026A00000F0DCF806B010BD10B586B00446072077
:1026B000CDE9002040200290002003904FF480607C
:1026C000049069462046FFF7ECFE41F2883207216C
:1026D000204600F0C3F806B010BD10B586B0044621
:1026E00000210220CDE90010C020CDE902014FF405
:1026F0008060049069462046FFF7D3FE204600F034
:102700003BF906B010BD10B586B004460920CDE9EE
:102710000010C0200290002003904FF480600490CD
:1027200069462046FFF7BDFE204600F025F906B0B9
:1027300010BD10B586B0044600213320CDE900104D
:102740004020CDE902010001049069462046FFF7D0
:10275000A8FE41F288323321204600F07FF806B00F
:1027600010BD10B586B004460D20CDE90010402004
:102770000290002003904FF4806004906946204648
:10278000FFF78FFE41F288320D21204600F066F8F7
:1027900006B010BD30B585B00C46054600210320BB
:1027A000CDE900104020CDE9020100010490694606
:1027B0002846FFF776FE22460321284600F024F93A
:1027C00005B030BD10B586B0044600210C20CDE91F
:1027D00000104020CDE90201000104906946204626
:1027E000FFF75FFE034A0C21204600F037F806B0E1
:1027F00010BD000000E1F50510B586B004461920B3
:10280000CDE9001040200290002003904FF480603A
:10281000049069462046FFF744FE41F288321921B0
:10282000204600F01BF806B010BD10B586B0044677
:102830001820CDE9001040200290002003904FF4B2
:102840008060049069462046FFF72BFE41F28832F3
:102850001821204600F002F806B010BD444B10B518
:102860001B684FF4FA54B3FBF4F353435B1E02D2DC
:102870004FF0004010BD426B12F0450FF6D0426B96
:10288000520703D504218163084610BD426BD2076D
:1028900002D00121816303E00269D2B28A4201D0F1
:1028A000012010BD40F2FF5181630021FFF7DAFDE6
:1028B0003049084201D1002010BD002802DA4FF053
:1028C000007010BD410001D5402010BD810001D530
:1028D000802010BDC10002D54FF4807010BD0101F1
:1028E00002D54FF4007010BD410102D54FF4806055
:1028F00010BDC10102D54FF4006010BD010202D528
:102900004FF4805010BD410202D54FF4005010BD6D
:10291000810202D54FF4804010BDC10202D54FF4B0
:10292000004010BD410302D54FF4003010BD8103BB
:1029300002D54FF4802010BDC10302D54FF4002012
:1029400010BD010402D54FF4801010BD410402D522
:102950004FF4001010BD810402D54FF4800010BD6B
:10296000000702D54FF4000010BD4FF4803010BDB9
:102970004800002008E0FFFD12494FF4FA520968B0
:10298000B1FBF2F141F288325143491E02D24FF0BD
:1029900000407047426B12F0450FF6D0416B49077B
:1029A00003D50421816308467047416BC90703D0F2
:1029B000012181630846704740F2FF518163002086
:1029C00070470000480000200E494FF4FA52096891
:1029D000B1FBF2F141F288325143491E02D24FF06D
:1029E00000407047426B12F0450FF6D0416B49072B
:1029F00003D5042181630846704740F2FF5181638B
:102A000000207047480000201F4B10B51B684FF492
:102A1000FA54B3FBF4F341F2883463435B1E02D2F1
:102A20004FF0004010BD446B14F0450FF6D0436BDF
:102A30005B0703D504218163084610BD436BDB07A8
:102A400002D00121816303E00369DBB28B4201D034
:102A5000012010BD40F2FF5181630021FFF702FD0C
:102A600010F4604F04D0410406D54FF4005010BD5F
:102A7000000C1080002010BD000402D54FF48050DF
:102A800010BD4FF4803010BD4800002010B5064C3A
:102A900001202070FDF7CCFE18B9207820F001004D
:102AA0002070207810BD00000800002010B5846B55
:102AB000E06B406D012803D0206C406D01281CD1D3
:102AC000216840F2FF5088632068C16B21F49D713A
:102AD000C163A06B40F08040A0632046FEF7D0FDAC
:102AE000062801D0052805D12068FFF76BFEA16BF1
:102AF0000843A063012084F834002046FEF7C0FCA0
:102B000010BD10B5846B206B822809D12068FFF7B7
:102B100059FE28B1A16B0143A1632046FEF7B0FC2A
:102B20002068C16A21F00801C162216840F2FF50AB
:102B30008863012084F834002046FEF7A9FE10BD0A
:102B4000806B0068C16B41F48071C16370472DE9EF
:102B5000F04F89B00E460446FEF712F90025834671
:102B6000009501952F4608212068FFF7DDFC00281D
:102B700034D1B4F8500001042068FFF7A2FC00280B
:102B80002CD1401E4FF00808CDE9020830204FF04C
:102B90000209CDE904090120CDE9067002A92068E7
:102BA000FFF74AFC2068FFF7C4FD002816D1EA466B
:102BB00040F22A472068416B394212D1416B8902A9
:102BC00004D5FFF76BFC4AF825006D1CFEF7D8F81A
:102BD000A0EB0B00401CEDD14FF0004009B0BDE868
:102BE000F08F416B090703D5C0F838800820F5E75E
:102BF000416B890703D5C0F838900220EEE7416B9E
:102C0000890603D5202181630846E7E740F2FF519A
:102C10008163009800BA7060019800BA30600020AB
:102C2000DCE710B590B004460120ADF8380020680C
:102C3000FFF714FC002864D0606C032842D02068A1
:102C4000FFF74BFD00285AD100212068FFF70AFC4E
:102C5000606704212068FFF705FCA0670821206851
:102C6000FFF700FCE0670C212068FFF7FBFBC4F8CE
:102C70008000606C032825D00EA92068FFF78AFD2C
:102C800000283CD1606C03281CD0BDF838002065BA
:102C900001042068FFF737FD002830D100212068AB
:102CA000FFF7E0FB606604212068FFF7DBFBA0660E
:102CB00008212068FFF7D6FBE0660C212068FFF7AB
:102CC000D1FB206704212068FFF7CCFB000DE064F6
:102CD00003A92046FEF7D5FBB4F8500000230204F8
:102CE0002068FFF7E1FC002809D104F1100007C8B3
:102CF0008DE8070094E80F00FFF7BAFB002010B042
:102D000010BD4FF08060FAE72DE9F8430025044636
:102D100000950068FFF73AFC00281AD12068FFF7F9
:102D20005DFC4FF080784FF6FF76D8B14FF08057BA
:102D3000A5640098411C0091B0421AD0002120687F
:102D4000FFF7BFFB20B900212068FFF7D3FB10B1CC
:102D50003846BDE8F88300212068FFF783FBC00FE9
:102D6000E7D01FE00127A7640098411C0091B04202
:102D700001D14046EDE700212068FFF7A2FB0028C3
:102D8000E7D14FF080412068FFF7B4FB0028E0D185
:102D900000212068FFF766FBC10FE5D0400001D598
:102DA000676400E065640020D3E71CB5044600209A
:102DB0000090019000212068FFF754FB800102D5AC
:102DC0004FF400601CBD69462046FFF7C0FE002896
:102DD000F8D10198C0030CD5B4F850000104206864
:102DE000FFF76FFB0028EDD100212068FFF7B5FB4E
:102DF0001CBD4FF080601CBD1CB504460020009037
:102E0000019000212068FFF72DFB800102D54FF4CF
:102E100000601CBD69462046FFF799FE0028F8D1E6
:102E2000019840030CD5B4F8500001042068FFF766
:102E300048FB0028EDD102212068FFF78EFB1CBD66
:102E40004FF080601CBD00007CB50E4C0546012093
:102E5000207002F07CFD98B1FDF7F6FC18B9284609
:102E6000FFF714FE20702078012809D00649D1E927
:102E70000001CDE900010021684602F082FD60609A
:102E800020787CBD080000205472000810B512485C
:102E900088B014460078C00702D0032008B010BDE7
:102EA000C1B1012905D0022908D003290CD0042082
:102EB000F4E76846FDF7B6FC06980AE06846FDF7B9
:102EC000B1FC0798208005E06846FDF7ABFC079849
:102ED000400A20600020E1E7080000203EB51546CA
:102EE000084601241A462946FDF7C8FCC8B90F4810
:102EF00047F230552A464168684602F047FDDDE951
:102F0000001010290DD101280BD102F02EFD05442F
:102F100003E000BFFDF78CFC28B102F026FDA842BB
:102F2000F8D320463EBD0024FBE700000800002047
:102F3000FFF7ACBD3EB51546084601241A462946A2
:102F4000FDF7B4FCC8B90F4847F230552A4641682E
:102F5000684602F01BFDDDE9001010290DD10228A2
:102F60000BD102F002FD054403E000BFFDF760FC59
:102F700028B102F0FAFCA842F8D320463EBD002456
:102F8000FBE700000800002001B582B04FF47A7022
:102F90000090012301AA02A90248FEF75DFD9DF8F9
:102FA00004000EBD4009002038B50B4600920446CF
:102FB0000022802100F008F8002804D0606D40F065
:102FC00020006065032038BD2DE9F0411D461746FD
:102FD0000E460446DDF8188035E0681C33D02DB16C
:102FE000FDF7CEFEA0EB0800A8422CD32068416874
:102FF00021F0E00141606068B0F5827F0BD1A068EC
:10300000B0F5004F02D0B0F5806F04D120680168A0
:1030100021F040010160A06AB0F5005F0AD120688C
:1030200001684DF6FF72114001602068016841F4AB
:1030300000510160012084F85100002084F8500004
:103040000320BDE8F0812068806836EA000004D0E3
:103050000020B842C1D10020F3E70120F9E7FEF7D4
:1030600099FF642002F06CFCFBE710B5FDF78EFEC3
:10307000BDE8104002F080BD30B5254893B0002572
:10308000016841F080510160006800F080501190AB
:103090002048016841F4804101600068022400F486
:1030A0008040119001200090000401908001CDE942
:1030B000064004200890A820CDE9090407200B90C1
:1030C0006846FEF713F800B1FEE70CA90F2081E86F
:1030D00031004FF4A0500F904FF480501090052114
:1030E0000CA8FDF715FF00B1FEE7FDF7A9FF4FF4AF
:1030F0007A71B0FBF1F0FEF7D4FD0420FEF7C5FDB8
:1031000000220F21501EFDF7D1FE13B030BD00008C
:1031100040380240007000401048016841F47001DE
:1031200001600F48016841F0010101600C4A002173
:103130000832116002680B4B1A400260031D0A4AF4
:103140001A60026822F48022026005480C30016097
:1031500002495806803908607047000088ED00E099
:1031600000380240FFFFF6FE1030002410B5806BDF
:103170000021C185C184FEF7A8FD10BD0168CA68A1
:1031800022F49072CA6001684A6922F001024A6121
:10319000202180F83A10704710B590F83A10222993
:1031A00001D0022010BD8168B1F5805F11D00169A6
:1031B000002901681FD0496801F07F03816A4A1C19
:1031C00082620B70C18D491E0904090CC18518D09B
:1031D00026E00269816A002A0268526805D0D2B2EC
:1031E0000A80816A491C8162ECE7C2F308020A8006
:1031F000816A891CF7E74A68816A4B1C83620A70FE
:10320000E0E70168CA6822F49072CA6001684A69FE
:1032100022F001024A61202180F83A10FEF73EFEBA
:10322000002010BD2DE9F04104460068016921F439
:103230004052E168114301612168C86849F20C629B
:1032400090432369A268E5691A4363692B431A43D3
:103250000243CA602168486920F44072A0691043A3
:103260004861E1696425B1F5004F9748974A2168A4
:103270004FF032083FD0914201D081427CD1FDF71E
:10328000F5FE00EBC00101EB001061688900B0FBA6
:10329000F1F6FDF7EBFE00EBC00101EB00106168F9
:1032A0008900B0FBF1F0B0FBF5F06FF01801484376
:1032B00006EB800108EB0110B0FBF5F000F0F00622
:1032C000FDF7D4FE00EBC00101EB0010616889003E
:1032D000B0FBF1F0B0FBF5F006EB0016FDF7C6FE13
:1032E00000EBC00101EB001061688900B0FBF1F751
:1032F000FDF7BCFED2E0914201D081423DD1FDF705
:10330000B5FE00EBC00101EB001061684900B0FBA5
:10331000F1F0B0FBF5F00601FDF7A8FE00EBC001EF
:1033200001EB001061684900B0FBF1F7FDF79EFE6C
:1033300000EBC00101EB001061684900B0FBF1F047
:10334000B0FBF5F06FF01801484307EB800108EB84
:10335000C100B0FBF5F000F0F80006EB4006FDF709
:1033600085FE00EBC00101EB001061684900B0FB75
:10337000F1F7FDF77BFE3CE055E0FDF767FE00EB63
:10338000C00101EB001061684900B0FBF1F0B0FB37
:10339000F5F00601FDF75AFE00EBC00101EB00104D
:1033A00061684900B0FBF1F7FDF750FE00EBC0018A
:1033B00001EB001061684900B0FBF1F0B0FBF5F0E3
:1033C0006FF01801484307EB800108EBC100B0FB28
:1033D000F5F000F0F80006EB4006FDF737FE00EBD5
:1033E000C00101EB001061684900B0FBF1F7FDF787
:1033F0002DFE00EBC00101EB001061684900B0FB3D
:10340000F1F0B0FBF5F06FF01801484307EB8001D5
:1034100008EBC100B0FBF5F000F007002168304474
:103420008860BDE8F081FDF711FE00EBC00101EB03
:10343000001061688900B0FBF1F6FDF707FE00EBB4
:10344000C00101EB001061688900B0FBF1F0B0FB36
:10345000F5F06FF01801484306EB800108EB01100E
:10346000B0FBF5F000F0F006FDF7F0FD00EBC00159
:1034700001EB001061688900B0FBF1F0B0FBF5F0E2
:1034800006EB0016FDF7E2FD00EBC00101EB0010BA
:1034900061688900B0FBF1F7FDF7D8FD00EBC001D2
:1034A00001EB001061688900B0FBF1F0B0FBF5F0B2
:1034B0006FF01801484307EB800108EB0110B0FBE7
:1034C000F5F000F00F00A9E70014014000100140E2
:1034D00090F83910212901D0022070478168B1F598
:1034E000805F016A0BD04A1C026202680978516051
:1034F000C18C491E0904090CC1840ED017E009884B
:103500000268C1F30801516001690029016A02D013
:10351000491C0162ECE7891CFBE70168CA6822F0DC
:103520008002CA600068C16841F04001C1600020AB
:1035300070472DE9F041984617460E460446069D11
:103540001DE0681C1BD02DB1FDF71AFCA0EB080094
:10355000A84214D92068C16821F4D071C1602068E4
:10356000416921F001014161202084F8390084F88B
:103570003A00002084F838000320BDE8F08120687C
:10358000006836EA000004D00020B842D9D00020FC
:10359000F3E70120F9E700000148FEF797BB0000C0
:1035A0009809002010B5044C0120207000F088F824
:1035B0002070207810BD00001600002003004FF09E
:1035C000010008D141B1000301290CD0022905D026
:1035D000032905D004207047002070471080FBE7C6
:1035E0004FF48070FAE71060F6E72DE9F0411C0017
:1035F00015460E460CD04FF4805729033A46304604
:1036000000F078F8641E05F1010506F58056F4D146
:103610000020BDE8F081000010B5064C01202070AC
:1036200000F0BEF8C00703D1207820F00100207020
:10363000207810BD160000202DE9F0411C00154631
:103640000E460CD04FF4805729033A46304600F01E
:10365000CBF8641E05F1010506F58056F4D1002073
:10366000BDE8F081FEE7000070B5040300F00AF940
:1036700000F0B2F8104D4FF0804028602020FFF796
:1036800083FC0E480068A0F56F41183902D1200E66
:10369000FFF77AFCC4F30740FFF776FCC4F307207A
:1036A000FFF772FCE0B2FFF76FFC4FF48040286038
:1036B000BDE8704000F090B81804024038000020C7
:1036C00070B50A4C4FF48045256000F047F8084972
:1036D0000860032000F064F8C00705D128042060CA
:1036E000B720FFF751FC2560002070BD1804024090
:1036F000380000202DE9F041164E07464FF080407B
:1037000015460C4630600320FFF73EFC1248006867
:10371000A0F56F41183902D1200EFFF735FCC4F334
:103720000740FFF731FCC4F30720FFF72DFCE0B2A0
:10373000FFF72AFC002405E0FF20FFF725FC3855A1
:10374000641CA4B2AC42F7D34FF480403060BDE8B3
:10375000F0810000180402403800002070B50F4CC2
:103760004FF08040002520609020FFF70DFC0020E6
:10377000FFF70AFC0020FFF707FC0020FFF704FC1E
:10378000FF20FFF701FC45EA0025FF20FFF7FCFBC7
:103790004FF480412843216070BD000018040240AE
:1037A00010B5012803D0022803D0032803D0052038
:1037B00002E0352000E01520064C4FF080412160EA
:1037C000FFF7E2FBFF20FFF7DFFB4FF480412160B2
:1037D00010BD00001804024010B50120FFF7E0FF03
:1037E000C007FAD110BD00002DE9F05FC1F30B0650
:1037F000DFF88C800F0BC6F580548946824615464B
:10380000A24200D8144639038B464FF480524046FA
:10381000FFF770FF002006E0321818F80210FF29A9
:1038200003D1401C80B2A042F6D3A04222D2384637
:10383000FFF71AFF002006E01AF800208319401C49
:1038400008F8032080B2A042F6D359464FF48052C4
:103850004FEA080000F024F8A5420FD0281BA2442C
:10386000A144002685B24FF480547F1CA542CAD8DB
:103870002C46C8E7224649465046EBE7BDE8F09F94
:10388000D809002010B5054C4FF08040206006207C
:10389000FFF77AFB4FF48040206010BD180402400F
:1038A0002DE9F0410746C8B2C0F580740E461546B2
:1038B000A24200D814464FF480782246314638465A
:1038C00000F00EF8A54208D0281B2744264485B2F4
:1038D0004446A542F1D82C46EFE7BDE8F081000050
:1038E0002DE9F04115460C460746FFF7CBFF154E74
:1038F0004FF0804030600220FFF746FB124800681E
:10390000A0F56F41183902D1200EFFF73DFBC4F33B
:103910000740FFF739FBC4F30720FFF735FBE0B2A0
:10392000FFF732FB002404E0385DFFF72DFB641C39
:10393000A4B2AC42F8D34FF480403060BDE8F0410F
:10394000FFF74ABF1804024038000020FEE70000DD
:1039500037B514460846064B6A46214600F0DCF8A7
:1039600004466946002000F06EFC20463EBD000083
:103970004742000802E008C8121F08C1002AFAD115
:1039800070477047002001E001C1121F002AFBD1DF
:10399000704700002DE9FF5F82B00021DDE90430AF
:1039A000020DDDF840B0034318D044F61050A2F2E7
:1039B000FF3242431514119801281FD0A5EB0B00CC
:1039C000401C5FEA000A4FF000064E4FDFF83891C6
:1039D000B046504615D5CAF1000413E011980124F1
:1039E0004AA3012801D16FEA0B010298119AC0E99C
:1039F0000031C0E9024206B0BDE8F09FCBF1000003
:103A0000DFE704460021404A491842EB0450CDE963
:103A1000001012E0E00707D032463B4640464946D8
:103A2000FCF752FD8046894632463B461046194611
:103A3000FCF74AFD06460F466410002CEAD1DDE98A
:103A40000401DDE90023BAF1000F06DAFCF73CFDC2
:103A500042464B46FCF738FD05E0FCF7A7FD424621
:103A60004B46FCF7A3FD04460E460022284BFCF70C
:103A700025FE03D84FF0FF30014607E00022254B1A
:103A800020463146FCF779FCFCF7FFFD102409E0E5
:103A9000002C0ADB0A220023FCF7F0FB039B3032E8
:103AA0001A55641E50EA0102F2D1641C039AC4F153
:103AB00011031444119A012A03D0012208430DD1A5
:103AC0000AE0084304D000204FF0110B119072E778
:103AD000A3EB0B056D1E0DE05B4504DD4FF000020E
:103AE00005F1010504E003DA4FF00002A5F101053C
:103AF000002AECD002981199C0E90231C0E90045D2
:103B000079E70000000014400000F03F30000000A2
:103B10000000F0430000E03F2DE9FF4F95B09B46C9
:103B20008946064600250FE2252877D1002427463E
:103B3000F84A0121059400E0044316F8013F203BB8
:103B400001FA03F01042F7D130782A2811D06FF033
:103B50002F033078A0F13002092A16D8059A44F0D4
:103B6000020402EB820203EB42021044761C059031
:103B7000EFE759F8042B0592002A03DA504244F487
:103B80000054059044F00204761C30782E2816D19B
:103B900016F8010F44F004042A280DD06FF02F020C
:103BA0003078A0F13003092B09D807EB870302EB2B
:103BB0004303C718761CF3E759F8047B761C30786A
:103BC0006C280FD006DC4C2817D068280DD06A2846
:103BD00014D104E0742810D07A280FD10DE044F4F9
:103BE00000140AE044F4801401E044F440147278B4
:103BF000824202D104F58014761C761C3078662847
:103C00000BD013DC582877D009DC002875D0452864
:103C1000F6D04628F4D047281AD19DE118E0632851
:103C200035D0642879D0652812D195E1702873D0F9
:103C300008DC6728F1D069286FD06E280DD06F2876
:103C400006D1B5E073282CD0752875D0782874D0AB
:103C50005A46179990476D1C75E1C4F3025002282B
:103C600009D003280DD0D9F8001004280DD00D601C
:103C700009F1040967E1D9F80010EA17C1E9005217
:103C8000F6E7D9F800100D80F2E70D70F0E719F8AB
:103C9000041B8DF8001000208DF80100EA46012079
:103CA00003E059F804AB4FF0FF3061074FF000011B
:103CB00002D40DE008F101018846B9420FDA8045CF
:103CC000F8DB1AF808100029F4D108E008F1010126
:103CD00088468142FADB1AF808100029F6D10598C7
:103CE0005B46A0EB080721463846179A00F094FA85
:103CF000284400EB080507E04DE029E10DE01AF843
:103D0000010B5A4617999047B8F10108F7D25B4664
:103D100021463846179A13E142E00A220092C4F382
:103D200002524FF0000A022A08D059F804CB032AA5
:103D30004FEAEC710AD00DE029E02AE009F1070111
:103D400021F00702F2E802C1914609E00FFA8CFC6B
:103D50004FEAEC71042A03D14FFA8CFC4FEAEC7164
:103D6000002907DA0A460021DCF1000C61EB0201B0
:103D70002D2202E0220504D52B228DF804200122F9
:103D800003E0E20701D02022F7E7904659E00A213C
:103D900002E010220DE010214FF0000A00910BE02C
:103DA00010224FF0000A44F004040827009203E0B8
:103DB00008224FF0000A0092C4F30252022A05D0F2
:103DC00059F804CB0021032A08D009E009F10701C2
:103DD00021F00702F2E802C1914605E01FFA8CFCCF
:103DE000042A01D10CF0FF0C4FF00008220728D55F
:103DF000702806D0009B83F0100353EA0A0305D015
:103E00000EE040228DF80420012208E05CEA010265
:103E100006D030228DF804208DF80500022290464D
:103E2000009B83F0080353EA0A030AD15CEA01020B
:103E300001D1620705D530228DF804204FF001082A
:103E40007F1E582804D034A003900EA802900DE0E5
:103E500036A0F9E753466046009AFCF70FFA84460D
:103E60000398825C0298401E029002705CEA010096
:103E7000F0D1029806A9081A00F1200A600702D5BD
:103E800024F4803400E00127574502DDA7EB0A0047
:103E900000E0002000EB0A01009005984144401A20
:103EA0000590E00306D45B462146179A059800F07A
:103EB000B3F90544002706E001A85A46C05D1799EA
:103EC00090476D1C7F1C4745F6DBE0030CD55B4635
:103ED0002146179A059800F09FF9054404E0302028
:103EE0005A46179990476D1C0099481E009000296A
:103EF000F5DC08E0029802995A460078491C0291C4
:103F0000179990476D1CBAF10001AAF1010AF1DC82
:103F100065E100000928010030313233343536378D
:103F20003839616263646566000000003031323305
:103F300034353637383941424344454600000000A5
:103F400000F058F90544761C307800287FF4ECAD79
:103F500019B02846BDE8F08F620700D4062709F1A2
:103F6000070222F0070CFCE80223E14603F00048B8
:103F70005FEA080C02D00FF2702C0DE05FEA045CDF
:103F800002D50FF2682C07E05FEAC47C02D00FF282
:103F9000602C01E0AFF2700C4FF0FF3823F00043CB
:103FA000CDF850C065280CD006DC452809D046283D
:103FB0001DD047283DD13DE0662818D067287ED126
:103FC00038E00021112F01DB112000E0781CCDE941
:103FD000000106A90EA8FFF7DDFCDDE90F010E9A2E
:103FE00003910021009207F1010A04914DE04FF086
:103FF00000400097CDE9011006A90EA8FFF7CAFC02
:10400000DDE90F0203920E9B11990022DDF80CA04E
:104010000093049211B9791C00EB010AB7EB0A0076
:1040200004D4C0F1FF3007F1010A0490AAEB0700A5
:10403000019044E0012F00DA01270021112F01DD5A
:10404000112000E03846CDE9000106A90EA8FFF7CF
:10405000A1FCDDE90F010E9A039100210491009269
:10406000BA4621070CD40399514500DA8A46BAF1C1
:10407000010F05DD009AAAF10101515C302908D039
:10408000B84202DA10F1040F06DA0121CDE901107D
:1040900015E0AAF10101E9E7002805DC04990144D3
:1040A0000491AAEB000102E0411C514500DD8A4663
:1040B0000499401A401C01904FF0004002902007E4
:1040C00004D40198504501DBCDF8048000208DF820
:1040D0004F0002980DF14F07B0F1004F25D02B2073
:1040E0000E9002984FF0020800280CDA404202902D
:1040F0002D200E9007E00A210298FCF709F93031D3
:10410000029007F8011DB8F10001A8F10108F2DCE6
:1041100002980028EFD1791E0E980870307800F0D0
:10412000200040F0450007F8020D12A8C01B00F166
:1041300007081498007800B1012000EB0A010198EB
:1041400001EBE07105984144401A401E0590E003E0
:1041500006D45B462146179A059800F05DF80544A1
:104160001498007818B15A46179990476D1CE003CF
:1041700024D55B462146179A059800F04DF8054472
:104180001CE00498002807DBDDE90301884203DD19
:104190000098405C179901E0179930205A469047E3
:1041A000049805F10105401C04900198401E0190FF
:1041B00004D12E205A46179990476D1CBAF1000180
:1041C000AAF1010ADDDC05E017F8010B5A46179940
:1041D00090476D1CB8F10001A8F10108F4DC5B46C2
:1041E0002146179A0598ABE62D0000002B00000031
:1041F000200000002DE9F041044600251E46174628
:10420000880404D405E039462020B0476D1C641EA4
:10421000F9D52846BDE8F0812DE9F0410446002596
:104220001E469046C80301D5302700E020278804A9
:1042300004D505E041463846B0476D1C641EF9D5EB
:104240002846BDE8F0810A68531C0B601070704767
:1042500010B504460020E070401E2063204601F0A7
:1042600056FB08B1042010BD04F2322001F014FB0B
:10427000A0F52A41553901D0032010BD94F834002F
:10428000E92805D0EB2814D194F83600902810D1F5
:1042900004F16A0001F0F5FA0749B1EB002F06D0EE
:1042A00004F1860001F0EDFA0449884201D10020B2
:1042B00010BD022010BD0000004641544641543359
:1042C000F0B50022144D134605EB021426685EB1CA
:1042D0000768BE4209D166688768BE4205D1A468F6
:1042E0004669B44204D000E00123521C022AEBD3F9
:1042F000022A01D069B904E04BB9022907D0122083
:10430000F0BD05EB02108089B0F5807F01D0002060
:10431000F0BD1020F0BD0000D819002030B50021FC
:10432000054B0C4603EB01121568854200D1146061
:10433000491C0229F6D330BDD81900200268490A69
:10434000C06A5289B1FBF2F1001D04C81AB1914252
:1043500003D3891AF8E700207047006808447047C3
:104360008269891E921E8A4201D800207047C26A63
:10437000408901FB002070472DE9F04105680F00DE
:10438000804606D001F0A4F9022809D20120BDE838
:10439000F0812E6916B1A869B04207D8012605E060
:1043A000411CF4D0A9698142F1D83E463446A8693F
:1043B000641CA04202D80224022E0AD321464046A1
:1043C00001F086F938B10128E1D0411CDFD0B442B8
:1043D000EDD10020DBE74FF0FF363246214628467C
:1043E00001F017FE30B957B122463946284601F090
:1043F00010FE20B101280FD001242046C7E72C6110
:10440000D5E90501891E884201D8401E68612879D6
:1044100040F001002871F0E73446EEE72DE9F04165
:104420000E4624300D6804460B22202101F068FA64
:104430000020014608272A5C401C202A12D92F2A76
:104440000BD05C2A09D02E2A01D0B94214D30B2FED
:1044500022D02E2A20D10CE0401C2B5C2F2BFBD02D
:104460005C2BF9D028443060B1B12078E5281FD00A
:1044700020E008210B27DEE7802A03D3114B1A44E2
:1044800012F8802C10A300E05B1C93F800C0BCF174
:10449000000F04D09445F7D10620BDE8F081A2F1C9
:1044A0006103192B01D8203AD2B26254491CC2E7E9
:1044B00005202070202A01D8042000E00020E072AE
:1044C0000020EAE788720008222A2B2C3A3B3C3D68
:1044D0003E3F5B5D7C7F0000401E022812D20A49ED
:1044E00001EB00118889B0F5807F05D008B1401E2E
:1044F00080B2888110B103E00020FAE70020086054
:104500000020704702207047D81900202DE9F041A3
:1045100004460021056800F0D8F8002826D1284676
:10452000E16901F0F4F902001FD1206A017899B124
:10453000C17A01F03F01A171C17A09070FD404F1DA
:1045400024010B2610F8013B11F8017BDB1B761EC2
:1045500004D0002BF6D002E0042206E02BB10021AB
:10456000204600F005F80200D9D01046BDE8F081E1
:104570002DE9F047054647690468C0698946203738
:1045800010B1B7F5001F02D30420BDE8F087F9058C
:1045900060D1401CE861A9694FF0000829B1608929
:1045A000401E10EA572F05D054E02089B0EB571F6A
:1045B0001DD94FE0284601F08BF8064601281BD98B
:1045C000701C33D0A069B0423ED8B9F1000F0ED0B4
:1045D0002846A969FFF7D0FE06000BD0012E0BD0AC
:1045E000701C23D0204601F0B5FEF8B906E0C5F8EE
:1045F0001C80C9E70720C8E70220C6E74FF4007215
:10460000002104F1340001F07BF94FF0000831463D
:104610002046FFF7A5FE4FF0010920630DE000BF23
:1046200084F80390204601F095FE08B10120ACE724
:10463000206B08F10108401C206361894145EFD8D7
:10464000216BA1EB0800206331462046AE61FFF7E5
:1046500087FEE861C7F30800204434306F612862A8
:10466000002092E770B504460021066800F02DF89E
:104670000DE03046E16901F04AF950B9206A00784E
:10468000E52809D040B101212046FFF771FF00283D
:10469000EFD0042807D007E03046E16901F037F990
:1046A000050003D00FE0072005460CE02022002182
:1046B000206A01F025F90B2204F12401206A01F09F
:1046C00015F90120F070284670BD2DE9F04107680A
:1046D0000E460546B1F5001F36D2F00634D16E61A4
:1046E000AC6824B93878032805D3BC6A1CB1788932
:1046F0004FEA402812E03889B0EB561F24D9B86A37
:1047000012E0284600F0E4FF0446401C1AD0022CB8
:104710001AD3B869A04217D9A6EB08064645214628
:10472000EFD23846FFF71CFEC5E9064060B100EB4A
:104730005620E861C6F3080038443430286200206F
:10474000BDE8F0810120FBE70220F9E7084910B538
:104750000B5C002253B901220A540A1801EB8000B5
:10476000127B40680168104688470246104610BD1B
:10477000F819002030B4054C231804EB80001B7B93
:10478000406804691846A44630BC6047F819002008
:1047900030B4054D2C1805EB8000247B40688568FB
:1047A0002046AC4630BC6047F8190020044A111876
:1047B00002EB8000097B4068426808461047000011
:1047C000F819002030B4054D2C1805EB8000247B2F
:1047D0004068C5682046AC4630BC6047F8190020E8
:1047E00038B5054600F0C0FC04000FD169462846E4
:1047F00001F0EEFF040009D12869FFF76DFE040007
:1048000000D128600021009801F0CDFD204638BD80
:104810002DE9FF4F91B01D4614464FF4007611A8C4
:10482000DDF8788000F0B5FF002803DA0B2015B022
:10483000BDE8F08FF54951F8201009B100220A7047
:10484000C0B20490FFF782FFC10701D00320EEE75A
:10485000400701D50A20EAE70EAA03210498FFF7D2
:1048600089FF38B90E9828B1B0F5004F02D8411E23
:10487000084201D001200E90B24624B154453AD3EB
:10488000B4F1807F37D8601E044234D1B8FBFAFB04
:10489000B4FBFAF75FEA4B202C4610907ED00CAAAE
:1048A00001210498FFF766FF002878D112980007CD
:1048B0006FEAA0104FEA90690C9848456ED3A0EBC0
:1048C000090086460C90802868D3802F13D8129850
:1048D0004FF6F5728007129840F6F57307D500F091
:1048E000070002287ED01298C0077BD001E0C007E5
:1048F00001D0022696E0132099E73D000DD100205B
:104900004FEA5E480125DFF808C301E06D00401C56
:104910003CF8101009B14145F8D9BEFBF5F00AEB9F
:104920008001C91DB1FBFAF82021039100210791F4
:10493000904233D9B749884230D828E0B4490020A2
:1049400001254FEA1E3C0E3901E06D00401C31F894
:104950001080B8F1000F01D0E045F6D9BEFBF5F0AC
:10496000984203D9042101EB400006E0012600EB48
:1049700040000321401C01EB50005044401EB0FB9E
:10498000FAF8012081030390B1FBFAF00790039934
:1049900009EB010000EB0801059001E055E034E16E
:1049A000079808440E9900EB010C491EACF1010C6C
:1049B0002CEA010CACEB0001032E1AD008EB010825
:1049C00000EB0511A1EB090171453ED80399079849
:1049D000AEEB0101A1EB0801081AB0FBF5F0019064
:1049E000032E00E024E00ED0022E13D0012E2AD098
:1049F0002DE0DDF80CC08C44CDF80CC0DDF814C0FF
:104A000061440591DCE7904221D8F7B96F087FF443
:104A100074AF1AE0904211D93FB94020B0EB450F76
:104A200003D36F003D0099D188E71298800707D51E
:104A3000032662E76F00802FF4D906E0984206D87B
:104A4000002FF7D001E0984201D90E20EFE6524640
:104A50000021204600F054FF0B226FA1204600F0F9
:104A600045FF514604F10B0001F02CFC65730398DF
:104A700081B204F10E0001F025FC01202074032E08
:104A80000ED0514604F1110001F01CFC0C99B1F557
:104A9000803F07D289B204F1130001F013FC05E056
:104AA0000021EFE704F1200001F004FCF82060751C
:104AB0003F2104F1180001F005FCFF2104F11A0068
:104AC00001F000FC494604F11C0001F0F3FB8027D3
:104AD000032E27D000F05BFE014604F1270001F011
:104AE000E9FB1FFA88F104F1160001F0EBFB84F8F2
:104AF0002470292084F8260013224AA104F12B00F7
:104B000000F0F4FE04F5FF704AF65521089001F01C
:104B1000D9FB01234A4621460498FFF753FE00289B
:104B200073D124E000F033FE014604F1430001F0AC
:104B3000C1FB414604F1240001F0BCFB022104F159
:104B40002C0001F0B7FB012104F1300001F0BAFBA9
:104B5000062104F1320001F0B5FB292084F84070F1
:104B600084F84200132234A104F14700C8E7032E61
:104B700032D1012309F1060221460498FFF722FEF3
:104B800052460021204600F0BBFE3049204601F08D
:104B900091FB2F4904F5F27001F08CFB019904F5AB
:104BA000F470491E01F086FB022104F5F67001F055
:104BB00081FB4AF65521089801F084FB012309F195
:104BC000070221460498FFF7FDFD012309F10102C8
:104BD00021460498FFF7F6FD00212046109A00F0C8
:104BE0008FFE6FF00701032E02D0012E32D032E08B
:104BF000204601F05FFB4FF0FF31201D01F05AFB12
:104C00006FF0704104F1080026E073E050000020CE
:104C100016730008F5FFFF0FEBFE904D53444F5302
:104C2000352E30004E4F204E414D4520202020464D
:104C300041542020202020004E4F204E414D452041
:104C4000202020464154333220202000525261411E
:104C5000727241614049204601F02CFB474658469C
:104C60005F4500D8384680460346DDE90402214608
:104C7000FFF7A8FDF0BB52460021204600F040FEA1
:104C80000598B7EB080740440590E8D1032E00D003
:104C9000079D58465D4501D9074600E02F46DDE9EE
:104CA00004023B462146FFF78DFD18BB0598ED1B1E
:104CB00038440590EDD1032E05D00C98B0F5803F17
:104CC00003D3062604E00C2602E0022E38D001268B
:104CD0001298000736D452460021204600F010FEFC
:104CE0004AF65521089801F0EDFA04F5DF75002029
:104CF000287000E02EE001216970A970E8702E7123
:104D00000C9909EB010043F6C161B0FBF1F0FE2103
:104D100069713F2141EA9001A971E871494605F1A5
:104D2000080001F0C7FA05F10C000C9901F0C2FA75
:104D30000123002221460498FFF744FD50B901E009
:104D40000426C5E7002211460498FFF713FD00284A
:104D50003FF47DAD01206AE5F8FFFF002DE9F74142
:104D600081B0904602980090684600F012FD040061
:104D700003D50B2004B0BDE8F081164E002756F88D
:104D800024503DB12846FFF7C9FAE86800F025FB3A
:104D900088B12F70019929B101F80C7BE0B200F0C5
:104DA0000FFB40B1019846F8240010B1B8F1010F93
:104DB00003D00020DEE70220DCE7002201A902A8E0
:104DC00000F01CFB04460146019801F0ECFA204675
:104DD000D0E70000500000202DE9F74392B0050015
:104DE0000BD002F03F063246694613A800F006FBDE
:104DF00004004FF0000804D0ECE0092015B0BDE835
:104E0000F0830098059005A8139900F027FC040092
:104E10000ED19DF84300000601D5062408E0700875
:104E200001D0012100E0002105A8FFF749FA04465E
:104E300016F01C0F5DD04FF00109C4B1042C10D145
:104E40000020694902E0401C022804D201EB001254
:104E50001268002AF7D1022807D005A8FFF702FC44
:104E6000044646F008065CB1B4E01224B2E09DF8B6
:104E70001A0010F0110F47D1700701D50824A9E0DE
:104E8000300747D500F083FC07460D9839460E30B1
:104E900001F010FA0D983946163001F00BFA0D9812
:104EA0002021C1720D99009800F0D8FC074600221D
:104EB0000D99009801F0EAF90D9800211C3001F0DD
:104EC000F9F9009981F8039017B3D1F830900022D6
:104ED000394605A801F0A0F904007BD149460098A5
:104EE00000F015FD04000098A7F1010707610DD03F
:104EF00070E0ECBB9DF81A00C10601D5042469E0FE
:104F0000B10703D5C00701D0072463E0300701D5FE
:104F100046F040060098006B68620D98A862700821
:104F200001D0012100E0002105A800F057FC286114
:104F3000B8B30D99009800F091FCA8600D981C3052
:104F400000F09FFCC5F82C80E8600099296000996A
:104F500005F130004FF40072C988A9802E7585F8DC
:104F60001580C5F8208000218146C5F8188000E032
:104F700030E000F0C5FCB0062ED5EE6866B3AE6139
:104F80000098A968408947020FE0284600F0A0FB7E
:104F90000146012800D80224481C03D0F61B24B186
:104FA00005E01FE00124F61B01E0BE42EDD8E961F7
:104FB00084B9F00510D00098FFF7D2F990B100EB5A
:104FC00056222A620098012349464078FFF7E0FB09
:104FD00010B10124C5F800802146009801F0E3F9E2
:104FE00020460BE70224F5E7D81900202DE9FE4FF3
:104FF00088460021196099461546044602A901F029
:10500000E7FB060001D1667D36B13146029801F01A
:10501000CAF93046BDE8FE8F207DC0070BD0A169DC
:10502000E0680127401A4FF0020A04F1300B854274
:1050300000D905468FE00721029801F0B4F9072056
:10504000E8E7A169C8056ED102984089401E10EAC0
:10505000512611D129B1E06A28B12046FFF76EF937
:1050600005E0A06803E02046E16900F031FB02287A
:105070001BD3411C4ED0E061E1690298FFF770F943
:1050800098B130440190680A009029D002993218F2
:105090004889824201D9801B0090DDE900324878BE
:1050A0004146FFF775FBA8BB07E084F815A0022175
:1050B000029801F078F90220ACE7207D00060CD5BB
:1050C000216A0198081A0099884206D208EB40200C
:1050D0004FF40072594600F009FC0098460230E097
:1050E000226A019882421CD0207D00060AD50298CF
:1050F000012359464078FFF765FB58B9207D00F041
:105100007F0020750298012359464078019AFFF7E5
:105110003FFB30B167750121029801F044F901208D
:1051200078E701982062208BC0F30800C0F5007674
:10513000AE4200D92E46011932464046303100F0C9
:10514000D5FBA069B0443044A061D9F800008119B2
:10515000AD1BC9F80010002D7FF473AF0021029839
:1051600001F021F9002055E7F8B50446694601F041
:105170002FFB050043D1207D410640D5000612D506
:105180000098226A0123407804F13001FFF71AFBEE
:1051900028B10121009801F006F90120F8BD207D19
:1051A00000F07F00207500F0F2FA0646616A009870
:1051B00000F0ADFB050022D1A56A2946E87A40F04F
:1051C0002000E872A268206801F060F805F11C0078
:1051D000E16801F06FF8314605F1160001F06AF858
:1051E000002105F1120001F06DF800980121C17055
:1051F00001F06CF80546207D00F0BF0020752946BF
:10520000009801F0D0F82846F8BD2DE9FE4F8846F9
:105210000021196099461546044602A901F0D8FA02
:10522000060001D1667D36B13146029801F0BBF827
:105230003046BDE8FE8F207D800705D40721029807
:1052400001F0B1F80720F4E7A069012742194FF0F7
:10525000020A04F1300B824200D2C543A3E0A169E7
:10526000C8057DD102984089401E10EA512618D108
:1052700029B1E06A38B12046FFF760F807E0A0687E
:1052800038B9002100E0E1692046FFF775F80028F1
:105290007DD001282DD0411C58D0E061A16801B912
:1052A000A060207D00060BD50298226A0123407879
:1052B0005946FFF787FAC0BB207D00F07F002075BC
:1052C000E1690298FFF74CF898B130440190680A00
:1052D00000902BD03218029841898A4201D9891B4B
:1052E0000091DDE9003240784146FFF76BFAE0B902
:1052F00007E084F815A00221029801F054F802207A
:1053000097E7216A0198081A009988420AD208EBA7
:1053100040214FF40072584600F0E8FA207D00F07A
:105320007F002075009846022CE00FE0216A01986A
:10533000814213D0E168A06988420FD2029801230C
:1053400059464078019AFFF723FA38B16775012171
:10535000029801F028F801206BE701E00198206233
:10536000208BC0F30800C0F50076AE4200D92E466F
:10537000204432464146303000F0B8FA207D40F0FB
:1053800080002075A069B0443044A06100E00DE0C9
:10539000E168884200D80846E060D9F80000811929
:1053A000AD1BC9F80010002D7FF459AF207D0021FE
:1053B00040F040002075029800F0F5FF002038E72B
:1053C00038B500200C4600900121684600F058FBDB
:1053D0002060002800D0012038BD10B500F063FB2C
:1053E000012010BD00F06CBB10B500244FF47A71A1
:1053F00000F08EFB00B90124204610BD2DE9FF41CD
:10540000002790460E460F6000F0C3F9050003D553
:105410000B2004B0BDE8F0818D4850F82540BCB1A8
:10542000204600F03EFAA8B13460207808F0FE066D
:1054300020B16078FFF7BAF9C1070DD02770E8B244
:10544000B8466070FFF782F9C1070AD00320E0E791
:105450000C20DEE70F20DCE70EB1400704D400206B
:10546000D7E71EB1400701D50A20D2E70026314612
:105470002046FEF7EDFE022822D100254FEA0D0757
:1054800004EB051090F8F61100F5F97019B1083029
:1054900000F0F7F900E0002047F825006D1C042D0E
:1054A000EED3002557F8256036B131462046FEF789
:1054B000CFFE022801D203E003206D1C042DF1D39E
:1054C000042809D002286DD204F13F0000F0E4F96D
:1054D000B0F5007F66D101E001209AE704F14A00AF
:1054E00000F0DAF918B904F1580000F0CAF9E061E7
:1054F00094F84450A570012D01D0022D52D145439E
:1055000094F841006081E8B3411E08424AD104F199
:10551000450000F0C1F92081000743D104F14700A4
:1055200000F0BAF9070004D104F1540000F0A9F921
:10553000074604F1420000F0AFF9010032D02389A0
:10554000481900EB131297422CD3B81A6789B0FBA5
:10555000F7F0B8B103274FF6F57C604500D8022775
:1055600040F6F57C604500D80127801C3244E26299
:105570003144A061C4E90861032F15D013B1294457
:10558000A16200E00EE0022F1FD000F0010100EB4D
:10559000400001EB500000BFE16900F2FF10B1EBE9
:1055A000502F14D20D2034E704F15E0000F074F99E
:1055B0000028F7D120890028F4D104F1600000F020
:1055C00060F9A062A0698000E6E74000E4E74FF0E0
:1055D000FF306061206180202071032F2CD104F105
:1055E000640000F059F9012826D1711C204600F012
:1055F0008EF908BB84F8048004F2322000F04CF9E4
:10560000A0F52A41553917D104F1340000F039F9D9
:105610001049884210D104F5067000F032F90E49A5
:10562000884209D104F5077000F02BF9606104F598
:10563000087000F026F9206105492770091F0888C5
:10564000401C0880E0802046FEF768FE07E7000067
:1056500050000020525261417272416173B504469C
:105660000568019801E0401C019001782F29FAD0CB
:105670005C29F8D00021A16001980078202806D28A
:10568000802084F82F002046FFF71FF87CBD01A979
:105690002046FEF7C3FE0028F8D12046FEF736FF6D
:1056A00094F82F1028B10428F0D14907EED4052032
:1056B0007CBD4907FCD4A079C006F8D5A08AC0F308
:1056C000080041192846343100F0C8F8A060DEE730
:1056D0002DE9F04104680D4602290BD3A069A842C8
:1056E00008D920784FF0FF36012807D002282BD0A8
:1056F000032839D001263046BDE8F081606A05EB09
:10570000550700EB5721204600F001F90028F2D19F
:10571000C7F3080020447F1C90F83480606A00EBD7
:105720005721204600F0F3F80028E4D1C7F3080021
:10573000204490F8341048EA0120E90701D0060916
:10574000D9E7C0F30B06D6E7606A00EB15212046C7
:1057500000F0DDF80028CED1E8B204EB4000343090
:1057600000F09AF80646C6E7606A00EBD5112046BD
:1057700000F0CDF80028BED140F2FF1000EA85000D
:105780002044343000F07DF820F07046B3E700206C
:10579000704710B504464FF0FF302268002A13D03E
:1057A000114600E0491C0B78212B0ED33A2BF9D17E
:1057B00012F8013B303B0A2B06D28A4204D1022B5D
:1057C00002D2491C1846216010BD002010BDEFF325
:1057D0000580002800D0012070470000F0B5024687
:1057E0001D4BD2F80050002003EB00142668AE4297
:1057F00007D166689768BE4203D1A4685669B4426F
:1058000002D0401C0228EFD3022814D1002002E06D
:10581000401C022804D203EB00142468002CF7D1AA
:1058200002280ED003EB001425609568656052696C
:10583000A2600022A281002903EB0011898902D015
:1058400019B10020F0BD491C01E04FF4807103EB59
:105850000012401C9181F0BDD819002070B5064699
:105860000D4601F11A0000F017F8044630780328BD
:1058700005D105F1140000F00FF844EA0044204679
:1058800070BDC178827842EA01214278007842EA0C
:10589000012140EA012070474178007840EA012068
:1058A000704710B528B1C068FFF79EFD08B1012010
:1058B00010BD002010BDFBF771FAFDF7DDFBFCF712
:1058C000E9FCFCF74BFBFCF775FCFCF74FFDFCF724
:1058D0007BFDFCF73BFDFCF759FC00F041F8FEE7CF
:1058E00001460020842900D0C81C7047002A05D03A
:1058F00011F8013B00F8013B521EF9D1704700003E
:105900005FFA81F100F8011B521EFBD1704770B5A0
:105910000446006B0D460026A8420FD0204600F03A
:1059200019FD06000AD1607801232A4604F13401EA
:10593000FEF72EFF08B1751E01262563304670BDA7
:1059400010B500B9012000F041FE002010BD10B5D7
:1059500001F00EFB012801D0012010BD002010BD78
:1059600010B500F0CBFE002010BD10B5FFF72FFFE3
:1059700018B1BDE8104001F00FBBBDE8104001F0C8
:1059800005BB03C8002200F0C9BF00002DE9FF419C
:105990000D004FF00006CDE9016507461ED000243A
:1059A0000396501C1FD002B11446FFF710FF694642
:1059B0004FF01008E8B103AA2846091D01F028FAA3
:1059C000012813D000960398F0B115494FF080508C
:1059D0000860BFF34F8FBFF36F8F15E08020314613
:1059E0002A46009012E04FF0FF34DEE7CDF8008049
:1059F000E9E7002322462846091D00F0B3FF0128ED
:105A000008D054B1402000909DE8070087E80700C7
:105A1000BDE8FF81CDF80080F6E70020F3E7000045
:105A200004ED00E037B5054682B000200090140078
:105A300000D10124FFF7CBFE4FF0000388B16A4686
:105A400003A9284601F038F9012811D1009890B136
:105A50000A494FF080500860BFF34F8FBFF36F8F3C
:105A600009E0224603A9284601F076F8012802D071
:105A7000FF2005B030BD0020FBE7000004ED00E092
:105A800010B5012901D0002010BD03220021012002
:105A900000F044FF040004D000231A46194601F028
:105AA0005BF8204610BD10B50446FFF790FE08B124
:105AB000822010BD204600F063FD002010BD0000D4
:105AC00038B5002405460094FFF781FE90B1694681
:105AD000284601F04FF9012801D0FF2038BD009879
