:020000040800F2
:10000000B81000209D010008371B0008C519000822
:10001000351B000841030008852A00080000000085
:100020000000000000000000000000009325000810
:100030004303000800000000591B00089525000834
:10004000B7010008B7010008B7010008B7010008B0
:10005000B7010008B7010008B7010008B7010008A0
:10006000B7010008B7010008B7010008B701000890
:10007000B7010008B7010008B7010008B701000880
:10008000B7010008B7010008B7010008B701000870
:10009000B7010008B7010008B7010008B701000860
:1000A000B7010008B7010008B7010008B701000850
:1000B000B7010008B7010008B7010008B701000840
:1000C000B7010008B7010008B7010008B701000830
:1000D000B7010008792A0008B7010008B701000835
:1000E000B7010008B7010008B7010008B701000810
:1000F000B7010008B7010008B7010008B701000800
:10010000B7010008B7010008B7010008B7010008EF
:10011000B7010008B7010008B7010008B7010008DF
:10012000B7010008B7010008B7010008B7010008CF
:10013000B7010008B7010008B7010008B7010008BF
:10014000B7010008B7010008B7010008B7010008AF
:10015000B7010008B7010008B7010008B70100089F
:10016000B7010008B7010008B7010008B70100088F
:10017000B7010008B7010008B7010008000000003F
:10018000B7010008B7010008DFF80CD000F07AF8DA
:100190000048004725410008B81000200648804765
:1001A00006480047FEE7FEE7FEE7FEE7FEE7FEE75C
:1001B000FEE7FEE7FEE7FEE74526000889010008A6
:1001C0002DE9F05F0546002092469B46884606468C
:1001D000814640241BE0284641464746224600F01F
:1001E00041F853465A46C01A914110D31146184659
:1001F000224600F028F82D1A67EB01084F462246E8
:100200000120002100F01FF817EB00094E41201ECD
:10021000A4F10104DFDC484631462A464346BDE8E6
:10022000F09F40EA01039B0703D009E008C9121FB1
:1002300008C0042AFAD203E011F8013B00F8013BA0
:10024000521EF9D27047202A04DB203A00FA02F14C
:10025000002070479140C2F1200320FA03F31943B4
:1002600090407047202A04DB203A21FA02F0002156
:10027000704721FA02F3D040C2F1200291400843B6
:1002800019467047064C074D06E0E06840F0010350
:1002900094E8070098471034AC42F6D3FFF778FF94
:1002A00060460008804600080146014801F033B866
:1002B0009005002010B5044801F03FF8042801D053
:1002C000012010BD002010BD9005002038B5012090
:1002D0008DF800009DF80000012801D0012038BDF4
:1002E000064801F040F8040006D14FF400610348CD
:1002F00000F0E8FE00B10124204638BD9005002042
:1003000038B50024009313460A460146034801F01D
:10031000A1F800B10124204638BD0000900500205E
:1003200038B50024009313460A460146034801F0FD
:100330006BF900B10124204638BD00009005002073
:10034000FEE7704770B501460A480D1800F072F9D3
:100350000446284600F06EF9451C06E0204600F0F1
:1003600039F908B1012070BD641CAC42F6D30020FD
:1003700070BD000000800008002200F001B80000FD
:1003800030B50E4B054601205C7A002C14D1587A0A
:100390001C54587A03EB800045605D7A03F1080035
:1003A0002A54587A421C5A72303008703A204870E9
:1003B0002F208870CC70002030BD0000AC080020D9
:1003C000002229B101291AD002291BD04FF4407212
:1003D0000E490B6823F440730B600B6813430B60EA
:1003E0000A6822F0F8020A600A68022303EBC000E0
:1003F00002430A60086840F48030086070474FF498
:100400008072E5E74FF40072E2E70000103C024022
:100410001348016889050FD5016821F40071016056
:10042000016841F400610160016821F4006101602C
:10043000016841F400710160016849050FD5016848
:1004400021F480610160016841F48051016001681C
:1004500021F480510160016841F4806101607047BE
:10046000003C024008490A6822F440720A600A68A7
:1004700042F004020A600A684FF4803343EA002025
:1004800002430A6070470000103C0240064A1368AD
:1004900023F44073136013681360136843F001037F
:1004A0001360017070470000103C0240084910B50D
:1004B0000C6824F440740C600C6844F440740C60C4
:1004C0000C6844F001040C600260436010BD000041
:1004D000103C0240074A136823F44073136013680A
:1004E00043F480731360136843F0010313600180C9
:1004F00070470000103C0240074A136823F4407321
:100500001360136843F400731360136843F001032E
:100510001360016070470000103C024017490868F2
:10052000C206174805D5C26942F01002C261102206
:100530000A600A68920605D5C26942F00802C261E3
:1005400020220A600A68520605D5C26942F00402F8
:10055000C26140220A600A68120605D5C26942F0EB
:100560000202C26180220A600A68920705D5C26948
:1005700042F02002C2610220086070470C3C024039
:100580006C08002070B5114904460020C86100F0D5
:1005900043FA06460E4D09E0601C07D024B100F076
:1005A0003BFA801BA04201D9032070BD2868C0031C
:1005B000F2D42868C00701D001202860286810F014
:1005C000F200F2D0FFF7AAFF012070BD6C080020F6
:1005D0000C3C024000B587B000210591009101213B
:1005E000CDE901100220CDE9031005A9684600F00D
:1005F000ABF8002800D0012007B000BD2DE9F04184
:1006000017460D460646002410E0325929190023EA
:10061000022000F0E5F810B10120BDE8F08130596A
:100620002959884201D00220F7E7241DBC42ECD3AF
:100630000020F2E701460020A1F100634FF4804260
:10064000934204D314480844904201D201207047D9
:1006500012480844904201D20220704710480844D2
:10066000904201D2032070470E480844B0F5803F05
:1006700001D2042070470C480A184FF4003082421F
:1006800001D205207047094A1144814201D2062057
:10069000704707207047000000C0FFF70080FFF799
:1006A0000040FFF70000FFF70000FEF70000FCF736
:1006B00010B5040002D0607910B106E0012010BD31
:1006C00000202071204600F007F802206071012010
:1006D0006071002010BD000008B50068064988421E
:1006E00008D10648016841F480510160006800F4B7
:1006F0008050009008BD00000030024030380240B9
:1007000090F83510022903D08021416501207047FF
:10071000052180F835100068016821F001010160B1
:100720000020704770B5044600F076F90546601C5D
:1007300002D004480078044400F06EF9401BA04247
:10074000FAD370BD180000202DE9F0470446224876
:100750000F46017E01290AD00121804601764CF224
:1007600050394846FFF70EFF020003D02FE0022069
:10077000BDE8F0874FF0FF3038602068174D012842
:1007800001D0A6681CE0207C6168FFF76BFE48463C
:10079000FFF7F8FE0246286820F00400286014E005
:1007A000217C3046FFF70CFE4846FFF7EBFE0200C7
:1007B000286820F0FA00286001D03E6005E0761C31
:1007C000D4E902100844B042EAD8FFF721FE002124
:1007D00088F818101046CBE76C080020103C024047
:1007E0002DE9F0471B4E05461446307E1F468946CC
:1007F000012808D0012030764CF250384046FFF7EF
:10080000C1FE18B114E00220BDE8F0879DB1012DB2
:1008100016D0022D19D022463B464846FFF746FE29
:100820004046FFF7AFFE0C490A6822F001020A6059
:1008300000213176E8E7E1B24846FFF727FEEFE70F
:10084000A1B24846FFF746FEEAE721464846FFF7D1
:1008500053FEE5E76C080020103C02402DE9F84FFC
:10086000DFF87CB100224FF001084FF0030A4FF08F
:100870000F090BF1040E00BF0B6808FA02F42340C5
:10088000A3426ED14D68022D01D0122D0ED1D50894
:1008900000EB850CDCF820505607F70E09FA07F636
:1008A000B5430E69BE402E43CCF820600668550063
:1008B0000F790AFA05FC07F0030726EA0C06AF4099
:1008C000374307604E68012E05D0022E03D0112E4B
:1008D00001D0122E0ED18668CF6826EA0C06AF40F2
:1008E000374387604668A6430C79C4F300149440EC
:1008F00034434460C6688C6826EA0C06AC40344336
:10090000C4604C68E40065D5364C256845F48045E4
:100910002560246822F0030504F480440094324CDE
:100920002E19D6F8084895072F0F09FA07F5AC439A
:100930002E4DA84201D1002524E02D4DA84201D121
:1009400001251FE02B4DA84201D102251AE02A4DB6
:10095000A84201D1032515E0284DA84202D1042563
:1009600010E037E0264DA84201D105250AE0254DCB
:10097000A84201D1062505E0234DA84201D1072553
:1009800000E00825BD402543C6F80858DBF80040C4
:100990005D464E689C43F60300D51C432C60DEF890
:1009A000004075464E689C43B60300D51C432C603E
:1009B0000B4D08352C684E689C43F60200D51C434D
:1009C0002C60074D0C352C684E689C43B60200D550
:1009D0001C432C60521C102AFFF44EAFBDE8F88F68
:1009E000003C014044380240003001400000024019
:1009F0000004024000080240000C024000100240C7
:100A00000014024000180240001C02400AB181613B
:100A100070470904FBE70000014880687047000048
:100A200018000020024881680278114481607047F4
:100A3000180000200B4810B5016841F400710160F6
:100A4000016841F480610160016841F480710160D6
:100A5000032000F097F8002000F006F800F024F8DA
:100A6000002010BD003C024070B50D4D04464FF40F
:100A70007A712878B1FBF0F00A490968B1FBF0F00F
:100A800000F09CFE48B9102C07D200222146501ECF
:100A900000F058F800206C6070BD012070BD0000AF
:100AA00018000020240000201F4808B5016841F408
:100AB00080410160006800F4804000901A48001FE7
:100AC000016841F080510160006800F080500090A2
:100AD000032000F057F8002211466FF00B0000F0E1
:100AE00031F8002211466FF00A0000F02BF80022C6
:100AF00011466FF0090000F025F800221146501F42
:100B000000F020F800221146101F00F01BF8002210
:100B10001146901E00F016F80022BDE8084011466C
:100B2000501E00F00FB800004438024000F01F02D1
:100B3000012191404009800000F1E020C0F800113F
:100B400070470000F0B40E4B1B680C46C3F3022341
:100B5000C3F10705042D00D90425191D072901D269
:100B6000002300E0DB1E012606FA05F1491E2140A4
:100B700099409E40761E16403143F0BC00F0DCBF29
:100B80000CED00E0064900F0070208684FF6FF038D
:100B9000184040EA0220034A1043086070470000F2
:100BA0000CED00E00000FA05BFF34F8F0548016827
:100BB000054A01F4E06111430160BFF34F8F00BFAC
:100BC000FDE700000CED00E00400FA052DE9F04718
:100BD0000E46050065D0DFF81481D8F80000F7B2A2
:100BE00000F00F00B04207D288F80070D8F800007B
:100BF00000F00F00B04254D128683D4C810712D557
:100C0000400703D5206840F4E050206028780007B2
:100C100003D5206840F4604020602068A96820F077
:100C2000F000084320602878C0072DD0304968685C
:100C30000839012812D0022813D0032811D00968DE
:100C4000890700292DDA216821F003010143216081
:100C5000FFF7E2FE814641F2883A0EE00968890317
:100C6000EFE709688901ECE7FFF7D6FEA0EB090181
:100C7000514502D90320BDE8F0872068696800F07B
:100C80000C00B0EB810FEFD1D8F80010404601F016
:100C90000F01B14207D90770006800F00F00B042A1
:100CA00001D00120E7E72878400705D52068E968EA
:100CB00020F4E050084320602878000706D520681B
:100CC000296920F4604040EAC100206000F03CF84F
:100CD0002168084AC1F30311515CC8400649086005
:100CE0000020FFF7C1FE0020C5E70000003C0240E5
:100CF00008380240AC450008240000200148006884
:100D00007047000024000020044805490068096875
:100D1000044AC1F38221515CC8407047240000207E
:100D200008380240BC4500080448054900680968C5
:100D3000044AC1F34231515CC8407047240000208E
:100D400008380240BC450008154810B5006810F08E
:100D50000C02144813D04110042A0FD0082A0ED1D7
:100D60000F4C241F2268236802F03F025B0207D564
:100D70002068C0F38810A0FB010106E0084610BD02
:100D80002168C1F38811A1FB00010023FFF718FAC5
:100D90002168C1F30141491C4900B0FBF1F010BDCD
:100DA000083802400024F4002DE9F84F050076D001
:100DB0002878DFF8F8B2BE4CC00749D0DBF8001045
:100DC0005846C1F38101012908D00068C0F38100B1
:100DD00002280AD1201D0068400206D52068800341
:100DE00036D568680028E2D032E06868B0F5803F08
:100DF00010D0B0F5A02F206810D020F480302060F3
:100E0000206820F4802020606868A0B1FFF704FE0D
:100E100006460CE0206840F48030F4E740F480207F
:100E20002060F7E7FFF7F8FD801B642873D820687F
:100E30008003F7D50CE0FFF7EFFD064605E000BFA5
:100E4000FFF7EAFD801B6428F0D820688003F7D400
:100E50002878DFF8608280074FF000093ED5DBF884
:100E60000010584611F00C0F09D00068C0F3810043
:100E700002280BD18D48001F0068400206D420686C
:100E8000800715D5E868012809D111E0E868B8B1F4
:100E90000120C8F80000FFF7BFFD064605E002E1AB
:100EA000FFF7BAFD801B0228C0D820688007F7D55D
:100EB0002068296920F0F80040EAC10020600DE0B8
:100EC000C8F80090FFF7A8FD064604E0FFF7A4FD70
:100ED000801B02281FD820688007F7D428780007D5
:100EE00022D5724E744869696C3671B10121016076
:100EF000FFF792FD074604E0FFF78EFDC01B0228B6
:100F000009D830688007F7D50EE0C0F80090FFF7E9
:100F100083FD074605E083E0FFF77EFDC01B022846
:100F20007ED830688007F7D42878400768D5DFF886
:100F30007CA100270AF1380ADAF80000C0000BD4BF
:100F4000DAF8001041F08051CAF80010DAF8000019
:100F5000012700F080500090584E3068C00510D432
:100F6000306840F480703060FFF756FD009005E077
:100F7000FFF752FD0099401A022851D83068C00589
:100F8000F6D54A4EA868683601280FD00528306883
:100F900010D020F001003060306820F00400306094
:100FA000A868B8B1FFF738FD00900FE0306840F056
:100FB0000100F4E740F004003060F7E7FFF72CFD94
:100FC0000099411A41F28830814264D83068800724
:100FD000F4D50EE0FFF720FD009007E0FFF71CFDC1
:100FE0000099411A41F28830814254D83068800714
:100FF000F4D42FB1DAF8001021F08051CAF80010B3
:10100000A869C0B3DBF80010C1F3810102294AD0FE
:101010000228484607D0C8F86000FFF7FDFC00E052
:1010200039E005463AE04746C8F86000FFF7F4FCAF
:10103000064604E0FFF7F0FC801B02282BD820684E
:101040008001F7D4D5E907010843A96A1C4A490879
:1010500002EB01416A6A41EA8211084395F82C10BB
:1010600040EA01611148001F016001203866FFF766
:10107000D3FC054605E014E0FFF7CEFC401B022838
:1010800009D820688001F7D50BE000BFFFF7C4FC4A
:10109000401B022802D90320BDE8F88F2068800198
:1010A000F4D40020F8E70120F6E7000008380240F9
:1010B0000038024000004742800E47420070004066
:1010C0000000FFFFFEB5044603200D4684F83400FF
:1010D000606C032820D0B5F5805F1DD0B5F5006F9A
:1010E00005D045B1A06B40F00060A06309E0204648
:1010F00001F0C7F902E0204601F09CF9A16B014321
:10110000A163A06B012658B1216840F2FF508863AB
:1011100084F834600120FEBDA06B40F08050E4E70D
:10112000211DD4E905700EC90095CDE90170206834
:1011300000F02FFD84F834600020FEBDF0B5426E53
:10114000120E93090B70C2F383034B7002F003027B
:101150008A70426E120CCA70B0F86420120A0A71CA
:1011600090F864204A71826E4FF6FF73120E03EA04
:101170000212CA80826ECB88C2F3074243EA12137E
:10118000CB8002F00F020A72B0F86820C2F3072287
:10119000D3094B72C2F380138B72C2F34013CB722C
:1011A000C2F300130B7300264E73446C4FF40077A8
:1011B00001236CB1012C43D0026840F2FF519163CE
:1011C000816B41F08051816380F834300120F0BDA3
:1011D0009207120D0A6190F868200C6944EA8202B5
:1011E0000A61C26E0C69120E44EA92140C61C2F3D9
:1011F000C2040C7502F007024A75C26EC2F30742C0
:1012000054098C75C2F38204CC759207520F0A768A
:10121000B0F86C20C2F307240A7E42EAD4120A76A0
:101220000A69521C42650D7EAD1CAA4042650D7ACA
:1012300003FA05F585656D0A6A43C0E917271CE0C6
:1012400090F868209206920A0A61C26E0C69120E2A
:1012500044EA02220A61C26E0C69C2F307421443D7
:101260000C61B0F86C20C2F307240A69521C4FEAE3
:1012700082224265C0E916720766C4F3801201F843
:10128000192F4FEA84624FEA52624A7010F86C2FAD
:101290004C7844EAD2144C7002F07F028A704268A3
:1012A0004FEA12624FEAD214CC70C2F341140C71AF
:1012B000C2F382044C714FEA82724FEA12728A7151
:1012C00042688C79C2F3074244EA92148C71C2F3EB
:1012D0004014CC710E7202F001024A728288C2F38D
:1012E00007224FEAD2148C72C2F38014CC72C2F37C
:1012F00040140C73C2F300144C73C2F381048C735A
:1013000002F00302CA7300794FEA500008744B746C
:101310004FF00000F0BD426C0A60826C4A60C26C03
:101320008A60026DCA60426D0A61826D4A61C26D57
:101330008A61006EC8610020704770B50446B0F83D
:10134000500000250104206800F0A1FD18B1A16B38
:101350000143A16304E00021206800F014FC05466D
:10136000C5F3432070BD70B5040004D094F8340078
:10137000002510B105E0012070BD2577204600F062
:1013800037F8032084F83400204600F007F8A563FE
:101390002563012084F83400002070BDFEB50025CF
:1013A000044676200095CDE901502B462A46294671
:1013B000206800F0EEFB0D4E46F8A05F206800F0BC
:1013C000FAFB012535600220FFF7ACF9204600F05A
:1013D000E0FF20B9204600F069FF002805D084F81E
:1013E0003450A16B0143A1630120FEBD0080254262
:1013F000F0B50068134987B0884221D11248002413
:10140000016841F4006101600068022500F4006099
:1014100005904FF4F850CDE9000502AA03260C27E9
:1014200082E8D00069460948FFF718FA0420CDE9A0
:10143000000502AA694682E8D0000548FFF70EFAC7
:1014400007B0F0BD002C01404438024000080240C3
:10145000000C02402DE9F04F87B09A4617460E4621
:101460000446DDF840B0FFF7D7FA00903EB194F89B
:101470003400012807D0A06B40F000500FE0A06BB3
:1014800040F000600BE04FF00008C4F83880E06DD9
:1014900007EB0A01814204D9A06B40F00070A06301
:1014A0007DE0032084F834002068C0F82C80606C54
:1014B000012800D07F024FF40071206800F0CAFBC1
:1014C00040F2FF59012530B12268C2F83890A16B73
:1014D0000143A16361E04FF0FF3001904FEA4A20E1
:1014E0000290902003900220CDE90408069501A9FE
:1014F000206800F032FBBAF1010F06D90220206308
:101500003946206800F034FC04E025633946206841
:1015100000F047FC0028D7D140F22A382068416B00
:1015200011EA080F22D1406B000409D5002720687A
:1015300000F045FB46F827007F1C082FF7D3203624
:10154000BBF1000F05D0FFF767FA0099411A594522
:10155000E4D32168C1F83890A06B40F00040A0634C
:1015600084F83450032007B0BDE8F08F416BC90503
:1015700009D5BAF1010F06D9616C032903D000F037
:10158000B7FC0028A0D12068416B090709D5C0F835
:101590003890A06B40F0080028E084F83450012017
:1015A000E1E7416B890705D5C0F83890A06B40F0A2
:1015B00002001BE0416B89061AD5C0F83890A06B79
:1015C00040F0200012E000BF00F0F9FA01C6BBF1C4
:1015D000000F05D0FFF720FA0099411A594507D3AB
:1015E0002168C1F83890A06B40F00040A063D4E7B8
:1015F0002068416B8902E7D42168C1F8389084F8EB
:1016000034500020AFE700002DE9F04F87B09A4634
:1016100016460D460446FFF7FFF906903DB194F8D3
:101620003400012807D0A06B40F000500DE0A06B03
:1016300040F0006009E00020A063E26D06EB0A01C3
:10164000914204D9A06B40F00070A06390E00321A8
:1016500084F8341021688146C862606C012800D08B
:1016600076024FF40071206800F0F4FA40F2FF585F
:10167000012730B12268C2F83880A16B0143A16311
:1016800017E0BAF1010F06D9202020633146206807
:1016900000F048FC05E0102020633146206800F08F
:1016A0005AFC060008D02168C1F83880A06B30438E
:1016B000A06384F834705BE04FF0FF3000904FEA95
:1016C0004A200190902002904846CDE90407CDF8C9
:1016D0000C90B9466946206800F03FFA40F21A3B88
:1016E00022E0406B40040AD55FF0000705EB87015C
:1016F000206800F077FA7F1C082FF7D32035109868
:1017000030B1FFF789F90699411A109881420BD33D
:101710002168C1F83880A06B3043A06384F834900E
:10172000032007B0BDE8F08F2068416B11EA0B0F72
:10173000D7D0416BC9050FD5BAF1010F0CD9616C37
:10174000032909D000F0D4FB30B12268C2F83880F8
:10175000A16B0143A16309E02068416B090709D52A
:10176000C0F83880A06B40F0080014E084F8349092
:101770000120D6E7416B890705D5C0F83880A06BFA
:1017800040F0020007E0416BC0F83880C90604D57C
:10179000A06B40F01000A063E8E784F834900020CC
:1017A000BFE74FF0E0210428086903D020F00400CF
:1017B0000861704740F00400FAE7704710B5401E1A
:1017C000B0F1807F01D3012010BD4FF0E0246061B3
:1017D0000F21601700F0B0F90020A0610720206100
:1017E000002010BD10B5FFF7E8FF10BD70470000E6
:1017F00070B5026804461068D168536910F00F0F85
:1018000050D003F0010501F4907635435DD0C20756
:1018100005D0CA0503D5E26B42F00102E26342073C
:1018200005D5DA0703D0E26B42F00202E2638207D9
:1018300005D5DA0703D0E26B42F00402E263020747
:1018400005D5DA0703D0E26B42F00802E263E26BEF
:10185000002A33D0800604D5880602D5204600F041
:101860003DFF20684069E16BC0F38010090700D498
:1018700028B3204600F024FF2068416949061AD5A4
:10188000416921F040014161606BA0B11B490165D4
:10189000606BFEF735FF002810D0606B016DBDE86E
:1018A00070400847830610D58B060ED52046BDE84C
:1018B000704000F013BF2046FFF798FF70BD204630
:1018C000FFF794FF0020E06370BD030606D50B060A
:1018D00004D52046BDE8704001F09CB84006F3D521
:1018E0004806F1D5D168204621F04001D160202181
:1018F00084F8391000F065F870BD0000B1260008CA
:1019000070B5040004D094F83900002510B106E049
:10191000012070BD84F83850204600F023F82420C0
:1019200084F839002068C16821F40051C160204664
:1019300000F01AFF2068016921F4904101612068DC
:10194000416921F02A0141612068C16841F40051D8
:10195000C160E563202084F8390084F83A00002053
:1019600070BD000000B50068124987B088421FD1E1
:101970001148016841F0100101600068694600F0FB
:10198000100005904FF4C0600090022001900120EB
:10199000029003200390072004900848FEF75EFFA2
:1019A000002211462520FFF7CDF82520FFF7BEF8CD
:1019B00007B000BD00100140443802400000024062
:1019C00070477047FEE70000084910B506480860F8
:1019D0000846FEF76DFE002805D0BDE81040422104
:1019E00003A001F050B810BD0030024008000020F4
:1019F0002E2E2F5372632F6372632E63000000003C
:101A000010B509490948FEF7B7FC0749491E0028E7
:101A1000087008D1094ABDE8104005A3491CA2F589
:101A20000C7002F0C9B810BD1200002098450008E3
:101A3000544553542E747874000000006002002056
:101A400070B51F4886B00025016841F02001016093
:101A5000016801F020010591016841F080010160F9
:101A6000016801F080010591016841F00401016005
:101A7000016801F004010591016841F00101016074
:101A8000016801F001010591016841F00801016060
:101A900000680C4E00F008004FF4C064059001226D
:101AA00021463046FEF7B2FF0121CDE90041CDE9E4
:101AB000021569463046FEF7D1FE06B070BD000043
:101AC00030380240001402400648054901600021F8
:101AD00041608160C16001614161816170470000C6
:101AE000002C0140900500200D4810B50B49016005
:101AF0004FF4E1314160002181600C22C160C0E9F6
:101B000004128161C161FFF7FBFE002805D0BDE82A
:101B100010404C2103A000F0B6BF10BD00100140E2
:101B2000140600202E2E2F5372632F75736172746A
:101B30002E630000FEE770470907090E002806DA49
:101B400000F00F0000F1E02080F8141D704700F154
:101B5000E02080F80014704770470A6842624A68C3
:101B60008262D1E902231A43D1E904310B43C16AED
:101B70001A4321F0F7011143C16200207047006849
:101B800000F00300704708B5084414300090006866
:101B900008BD70B50DF1100C11439CE87000234393
:101BA000194329434268314347F6FF639A430A4386
:101BB0004260002070BD0321016000207047D0F812
:101BC000800070470A688260D1E901231A43D1E995
:101BD00003310B43C1681A436FF30B011143C1601A
:101BE000002070470968C0F880100020704710B5C9
:101BF00086B004463720CDE9001040200290002036
:101C000003904FF48060049069462046FFF7DAFFA6
:101C100041F288323721204600F0B6F906B010BDF7
:101C200010B504460A4886B001432920CDE90010CA
:101C300040200290002003904FF480600490694699
:101C40002046FFF7BFFF204600F054FA06B010BD53
:101C50000000108010B586B004461020CDE90010B9
:101C600040200290002003904FF480600490694669
:101C70002046FFF7A7FF41F288321021204600F0EE
:101C800083F906B010BD10B586B004460620CDE934
:101C9000001040200290002003904FF480600490D8
:101CA00069462046FFF78EFF41F288320621204622
:101CB00000F06AF906B010BD30B585B000240546C5
:101CC000009401944FF480600294CDE9034069468A
:101CD0002846FFF777FF0B484FF4FA510068B0FB36
:101CE000F1F041F288314843401E03D24FF00040EA
:101CF00005B030BD696B0906F6D540F2FF50A86308
:101D00002046F5E72400002070B585B004464FF466
:101D1000D570009008204026CDE901060025C001BD
:101D2000CDE9035069462046FFF74CFF0F484FF4BA
:101D3000FA510068B0FBF1F041F288314843401E8F
:101D400002D24FF000450DE0616B11F0450FF6D067
:101D5000606B400702D5A663042503E0606B400674
:101D600000D5A66305B0284670BD00002400002001
:101D700010B586B004461220CDE900104020029034
:101D8000002003904FF48060049069462046FFF7DE
:101D900019FF41F288321221204600F0F5F806B012
:101DA00010BD10B586B004461120CDE900104020CA
:101DB0000290002003904FF4806004906946204612
:101DC000FFF700FF41F288321121204600F0DCF8D5
:101DD00006B010BD10B586B004460720CDE900203E
:101DE00040200290002003904FF4806004906946E8
:101DF0002046FFF7E7FE41F288320721204600F037
:101E0000C3F806B010BD10B586B00446002102200C
:101E1000CDE90010C020CDE902014FF480600490AC
:101E200069462046FFF7CEFE204600F03BF906B09B
:101E300010BD10B586B004460920CDE90010C020C1
:101E40000290002003904FF4806004906946204681
:101E5000FFF7B8FE204600F025F906B010BD10B51A
:101E600086B0044600213320CDE900104020CDE9A2
:101E700002010001049069462046FFF7A3FE41F2EB
:101E800088323321204600F07FF806B010BD10B52F
:101E900086B004460D20CDE90010402002900020BD
:101EA00003904FF48060049069462046FFF78AFE55
:101EB00041F288320D21204600F066F806B010BDD0
:101EC00030B585B00C46054600210320CDE9001051
:101ED0004020CDE902010001049069462846FFF741
:101EE00071FE22460321284600F024F905B030BDDA
:101EF00010B586B0044600210C20CDE9001040202A
:101F0000CDE902010001049069462046FFF75AFE20
:101F1000034A0C21204600F037F806B010BD00003F
:101F200000E1F50510B586B004461920CDE9001092
:101F300040200290002003904FF480600490694696
:101F40002046FFF73FFE41F288321921204600F07B
:101F50001BF806B010BD10B586B004461820CDE9B8
:101F6000001040200290002003904FF48060049005
:101F700069462046FFF726FE41F2883218212046A6
:101F800000F002F806B010BD444B10B51B684FF4CA
:101F9000FA54B3FBF4F353435B1E02D24FF00040FC
:101FA00010BD426B12F0450FF6D0426B520703D5BD
:101FB00004218163084610BD426BD20702D0012183
:101FC000816303E00269D2B28A4201D0012010BDD0
:101FD00040F2FF5181630021FFF7D5FD30490842EF
:101FE00001D1002010BD002802DA4FF0007010BDB2
:101FF000410001D5402010BD810001D5802010BDD9
:10200000C10002D54FF4807010BD010102D54FF41C
:10201000007010BD410102D54FF4806010BDC101B8
:1020200002D54FF4006010BD010202D54FF480507C
:1020300010BD410202D54FF4005010BD810202D5FF
:102040004FF4804010BDC10202D54FF4004010BDD6
:10205000410302D54FF4003010BD810302D54FF487
:10206000802010BDC10302D54FF4002010BD010433
:1020700002D54FF4801010BD410402D54FF400107A
:1020800010BD810402D54FF4800010BD000702D5B9
:102090004FF4000010BD4FF4803010BD240000202C
:1020A00008E0FFFD12494FF4FA520968B1FBF2F162
:1020B00041F288325143491E02D24FF0004070472E
:1020C000426B12F0450FF6D0416B490703D504214E
:1020D000816308467047416BC90703D001218163C2
:1020E0000846704740F2FF518163002070470000AE
:1020F000240000200E494FF4FA520968B1FBF2F1B6
:1021000041F288325143491E02D24FF000407047DD
:10211000426B12F0450FF6D0416B490703D50421FD
:1021200081630846704740F2FF5181630020704789
:10213000240000201F4B10B51B684FF4FA54B3FB6A
:10214000F4F341F2883463435B1E02D24FF0004047
:1021500010BD446B14F0450FF6D0436B5B0703D5FD
:1021600004218163084610BD436BDB0702D00121C7
:10217000816303E00369DBB28B4201D0012010BD13
:1021800040F2FF5181630021FFF7FDFC10F4604F26
:1021900004D0410406D54FF4005010BD000C10804F
:1021A000002010BD000402D54FF4805010BD4FF444
:1021B000803010BD2400002010B5064C0120207096
:1021C000FEF778F818B9207820F001002070207808
:1021D00010BD0000100000202DE9F04F89B00E4620
:1021E0000446FEF719FC00258346009501952F460D
:1021F00008212068FFF72EFD002834D1B4F85000E4
:1022000001042068FFF7F3FC00282CD1401E4FF09A
:102210000808CDE9020830204FF00209CDE9040991
:102220000120CDE9067002A92068FFF796FC20681E
:10223000FFF715FE002816D1EA4640F22A4720682B
:10224000416B394212D1416B890204D5FFF7B7FCCB
:102250004AF825006D1CFEF7DFFBA0EB0B00401CCD
:10226000EDD14FF0004009B0BDE8F08F416B090798
:1022700003D5C0F838800820F5E7416B890703D5FE
:10228000C0F838900220EEE7416B890603D5202183
:1022900081630846E7E740F2FF518163009800BA86
:1022A0007060019800BA30600020DCE710B590B093
:1022B00004460120ADF838002068FFF760FC0028D4
:1022C00064D0606C032842D02068FFF79CFD002892
:1022D0005AD100212068FFF756FC6067042120686E
:1022E000FFF751FCA06708212068FFF74CFCE0676E
:1022F0000C212068FFF747FCC4F88000606C0328BD
:1023000025D00EA92068FFF7DBFD00283CD1606CCA
:1023100003281CD0BDF83800206501042068FFF7B1
:1023200088FD002830D100212068FFF72CFC606672
:1023300004212068FFF727FCA06608212068FFF72A
:1023400022FCE0660C212068FFF71DFC20670421B9
:102350002068FFF718FC000DE06403A92046FEF793
:10236000EDFEB4F85000002302042068FFF732FDB0
:10237000002809D104F1100007C88DE8070094E88F
:102380000F00FFF706FC002010B010BD4FF080607A
:10239000FAE72DE9F8430025044600950068FFF7A9
:1023A0008BFC00281AD12068FFF7AEFC4FF0807834
:1023B0004FF6FF76D8B14FF08057A5640098411CC6
:1023C0000091B0421AD000212068FFF710FC20B91C
:1023D00000212068FFF724FC10B13846BDE8F883DF
:1023E00000212068FFF7CFFBC00FE7D01FE00127D7
:1023F000A7640098411C0091B04201D14046EDE72E
:1024000000212068FFF7F3FB0028E7D14FF080415F
:102410002068FFF705FC0028E0D100212068FFF7C5
:10242000B2FBC10FE5D0400001D5676400E06564F0
:102430000020D3E71CB50446002000900190002145
:102440002068FFF7A0FB800102D54FF400601CBD9F
:1024500069462046FFF7C0FE0028F8D10198C00366
:102460000CD5B4F8500001042068FFF7C0FB002829
:10247000EDD100212068FFF706FC1CBD4FF0806005
:102480001CBD1CB50446002000900190002120686E
:10249000FFF779FB800102D54FF400601CBD69464F
:1024A0002046FFF799FE0028F8D1019840030CD58B
:1024B000B4F8500001042068FFF799FB0028EDD123
:1024C00002212068FFF7DFFB1CBD4FF080601CBDC0
:1024D00070B5064C054601202070FDF7F7FE18B9CF
:1024E0002846FFF769FE2070207870BD100000209C
:1024F00010B5124888B014460078C00702D00320F7
:1025000008B010BDC1B1012905D0022908D00329A6
:102510000CD00420F4E76846FDF7C6FE06980AE0F2
:102520006846FDF7C1FE0798208005E06846FDF784
:10253000BBFE0798400A20600020E1E71000002061
:1025400070B51D46164608460124A31E2A4631468C
:10255000FDF7D6FE28B900BFFDF7ACFE0028FBD181
:102560000024204670BDFFF727BE000070B51D4651
:10257000164608460124A31E2A463146FDF7D0FE22
:1025800028B900BFFDF796FE0028FBD100242046A5
:1025900070BD704710B5FEF745FABDE81040FFF773
:1025A00021B9000030B5254893B00025016841F0FD
:1025B00080510160006800F080501190204801684F
:1025C00041F4804101600068022400F480401190D1
:1025D00001200090000401908001CDE90640042014
:1025E0000890A820CDE9090407200B906846FEF763
:1025F000DBFB00B1FEE70CA90F2081E831004FF4AE
:10260000A0500F904FF48050109005210CA8FEF7B9
:10261000DDFA00B1FEE7FEF771FB4FF47A71B0FB13
:10262000F1F0FFF7CBF80420FFF7BBF800221146CA
:10263000501EFEF787FA13B030BD0000403802404C
:10264000007000401048016841F4700101600F48BB
:10265000016841F0010101600C4A0021083211605B
:1026600002680B4B1A400260031D0A4A1A60026896
:1026700022F48022026005480C30016002495806AD
:10268000803908607047000088ED00E000380240A3
:10269000FFFFF6FE10300024034610B5002002466E
:1026A00003E09C5C521C2044C0B28A42F9D310BDA6
:1026B00010B5806B0021C185C184FFF797F810BD6C
:1026C0000168CA6822F49072CA6001684A6922F0FF
:1026D00001024A61202180F83A10704710B590F845
:1026E0003A10222901D0022010BD8168B1F5805F27
:1026F00011D00169002901681FD0496801F07F03EA
:10270000816A4A1C82620B70C18D491E0904090C42
:10271000C18518D026E00269816A002A02685268E1
:1027200005D0D2B20A80816A491C8162ECE7C2F30B
:1027300008020A80816A891CF7E74A68816A4B1C93
:1027400083620A70E0E70168CA6822F49072CA6086
:1027500001684A6922F001024A61202180F83A109A
:10276000FFF72EF9002010BD2DE9F0410446006866
:10277000016921F44052E168114301612168C86890
:1027800049F20C6290432369A268E5691A436369C0
:102790002B431A430243CA602168486920F44072FF
:1027A000A06910434861E1696425B1F5004F97487D
:1027B000974A21684FF032083FD0914201D08142C0
:1027C0007CD1FEF7B1FA00EBC00101EB00106168AB
:1027D0008900B0FBF1F6FEF7A7FA00EBC00101EBB0
:1027E000001061688900B0FBF1F0B0FBF5F06FF00C
:1027F0001801484306EB800108EB0110B0FBF5F02F
:1028000000F0F006FEF790FA00EBC00101EB0010BB
:1028100061688900B0FBF1F0B0FBF5F006EB001643
:10282000FEF782FA00EBC00101EB0010616889003D
:10283000B0FBF1F7FEF778FAD2E0914201D0814285
:102840003DD1FEF771FA00EBC00101EB00106168A9
:102850004900B0FBF1F0B0FBF5F00601FEF764FAB9
:1028600000EBC00101EB001061684900B0FBF1F71B
:10287000FEF75AFA00EBC00101EB00106168490055
:10288000B0FBF1F0B0FBF5F06FF01801484307EB37
:10289000800108EBC100B0FBF5F000F0F80006EB9A
:1028A0004006FEF741FA00EBC00101EB0010616841
:1028B0004900B0FBF1F7FEF737FA3CE055E0FEF7D0
:1028C00023FA00EBC00101EB001061684900B0FB86
:1028D000F1F0B0FBF5F00601FEF716FA00EBC001CF
:1028E00001EB001061684900B0FBF1F7FEF70CFA4C
:1028F00000EBC00101EB001061684900B0FBF1F092
:10290000B0FBF5F06FF01801484307EB800108EBCE
:10291000C100B0FBF5F000F0F80006EB4006FEF752
:10292000F3F900EBC00101EB001061684900B0FB56
:10293000F1F7FEF7E9F900EBC00101EB0010616867
:102940004900B0FBF1F0B0FBF5F06FF0180148431F
:1029500007EB800108EBC100B0FBF5F000F00700C9
:10296000216830448860BDE8F081FEF7CDF900EBC6
:10297000C00101EB001061688900B0FBF1F6FEF7C1
:10298000C3F900EBC00101EB001061688900B0FBE6
:10299000F1F0B0FBF5F06FF01801484306EB800151
:1029A00008EB0110B0FBF5F000F0F006FEF7ACF913
:1029B00000EBC00101EB001061688900B0FBF1F091
:1029C000B0FBF5F006EB0016FEF79EF900EBC00138
:1029D00001EB001061688900B0FBF1F7FEF794F994
:1029E00000EBC00101EB001061688900B0FBF1F061
:1029F000B0FBF5F06FF01801484307EB800108EBDE
:102A00000110B0FBF5F000F00F00A9E70014014041
:102A10000010014090F83910212901D002207047A0
:102A20008168B1F5805F016A0BD04A1C02620268BE
:102A300009785160C18C491E0904090CC1840ED06B
:102A400017E009880268C1F3080151600169002993
:102A5000016A02D0491C0162ECE7891CFBE70168AE
:102A6000CA6822F08002CA600068C16841F0400173
:102A7000C1600020704700000148FEF7B9BE0000A9
:102A800014060020FEE7FEE70FB4084B10B504A9BA
:102A900002AA039800F01CF8044602A9002000F0E6
:102AA00048FA204610BC5DF814FB0000332F0008E4
:102AB00002E008C8121F08C1002AFAD17047704707
:102AC000002001E001C1121F002AFBD17047000065
:102AD0002DE9FF4F8DB00F460546002606E025285C
:102AE0000BD0DDE90F1290476D1C761C287800286A
:102AF000F5D111B03046BDE8F08F0024A246A146C2
:102B00000122EC4900E0044315F8013F203B02FAA2
:102B100003F00842F7D128782A2810D06FF02F024E
:102B20002878A0F13001092914D80AEB8A0102EBB8
:102B3000410144F0020400EB010A6D1CF0E701CFF3
:102B40005FEA000A03D544F40054CAF1000A44F0D5
:102B500002046D1C28782E2817D115F8010F44F0B7
:102B600004042A280ED06FF02F022878A0F130013B
:102B700009290AD809EB890102EB410100EB01099F
:102B80006D1CF2E757F8049B6D1C28786C280FD059
:102B900006DC4C2817D068280DD06A2814D104E030
:102BA000742810D07A280FD10DE044F400140AE004
:102BB00044F4801401E044F440146978814202D165
:102BC00004F580146D1C6D1C2A786E2A1FD00CDC55
:102BD000632A31D004DC002A8BD0582A11D1A3E01B
:102BE000642A68D0692A0CD165E0732A2ED004DCEF
:102BF0006F2A73D0702A04D19BE0752A6FD0782A8F
:102C00006ED01046DDE90F129047761C50E1C4F3F8
:102C10000250022806D0032809D0042801CF09D089
:102C2000066045E101CFF117C0E9006140E101CF45
:102C300006803DE106703BE117F8040B8DF80000BB
:102C400000208DF80100EB46012003E057F804BB9B
:102C50004FF0FF3061074FF0000102D40DE008F1A2
:102C60000101884649450FDA8045F8DB1BF808105A
:102C70000029F4D108E008F1010188468142FADB1D
:102C80001BF808100029F6D1DDE90F23AAEB080094
:102C90008146214600F036F9304400EB080604E096
:102CA000DDE90F121BF8010B9047B8F10108F7D2CC
:102CB00021464846F7E00A21C4F302534FF0000BC7
:102CC0000891022B04D001CFC117032B09D00AE0D1
:102CD000FF1D27F00707F7E8020108E032E01FE0D8
:102CE00020E000B2C117042B01D140B2C117031E6E
:102CF00071F1000307DA4FF0000CD0EB0C006CEB25
:102D000001012D2302E0230504D52B238DF8243067
:102D1000012303E0E30701D02023F7E7984658E0BA
:102D20000A2110E010210EE010204FF0000B089057
:102D30000CE010214FF0000B44F004044FF00809A0
:102D4000089103E008214FF0000B0891C4F30253EF
:102D5000022B04D001CF0021032B06D006E0FF1D7B
:102D600027F00707F7E8020103E080B2042B00D147
:102D7000C0B24FF0000823072BD5702A07D0DDF82A
:102D800020C08CF0100C5CEA0B0C05D00EE0402348
:102D90008DF82430012308E050EA010306D03023E7
:102DA0008DF824308DF8252002239846DDF820C0C8
:102DB0008CF0080C5CEA0B0C0BD150EA010301D13A
:102DC000630706D530238DF824304FF00108A9F1B0
:102DD0000109582A04D038A20B9208AA0A920BE0E3
:102DE0003AA2F9E75B46089AFDF7EAF90B9B9B5C70
:102DF0000A9A521E0A92137050EA0102F2D10A98FE
:102E0000ADEB000000F1200B600702D524F4803404
:102E100001E04FF00109D94502DDA9EB0B0000E00C
:102E2000002000EB0B0141440890AAEB010AE003EB
:102E300006D4DDE90F232146504600F063F806442E
:102E40004FF0000908E009A911F80900DDE90F12A7
:102E5000904709F10109761CC145F4DBE0030CD56C
:102E6000DDE90F232146504600F04CF8064404E00B
:102E7000DDE90F1230209047761C0899481E089013
:102E80000029F5DC08E00A980A990078491C0A91A3
:102E9000DDE90F129047761CBBF10001ABF1010B8D
:102EA000F1DC21465046DDE90F2300F019F8064415
:102EB0006D1C1BE6092801003031323334353637BA
:102EC0003839616263646566000000003031323376
:102ED0003435363738394142434445460000000016
:102EE0002DE9F041044600251E461746880404D407
:102EF00005E039462020B0476D1C641EF9D52846F0
:102F0000BDE8F0812DE9F041044600251E469046BB
:102F1000C80301D5302700E02027880404D505E048
:102F200041463846B0476D1C641EF9D52846BDE8B9
:102F3000F0810A68531C0B60107070472DE9F04F48
:102F400089B00026DFF8C490019601F0B7F9304D42
:102F500044B26FF001080CB1032439E02878052849
:102F600001D0012434E0D5F80700FDF7EBF96878CB
:102F7000284A58B128A105A8FFF786FD012205A916
:102F8000274800F05BFB18B1022421E025A1F2E7FD
:102F900023484FF4007B4FF0FF3AC76813E01C4909
:102FA00001AB5A4615311E4800F04EFC50B9019A4B
:102FB00042B1174849461530FDF720FB019881447E
:102FC0003F1A00E05446002FE9DC002C09D017DD41
:102FD0004FF005002870A87905280BD2401CA87175
:102FE00009E02E70AE7101F0F1F968B1404609B008
:102FF000BDE8F08F2E7001F0E9F928B1444603E0F6
:1030000042F21070FDF78EFB2046F0E700C000088A
:1030100054060020120000202573312E62696E00D4
:10302000600200202573302E62696E0010B50446E0
:103030000020E070401EE062204601F0B0F808B1C8
:10304000042010BD04F22E2001F066F8A0F52A41FC
:10305000553901D0032010BD94F83000E92805D07F
:10306000EB2814D194F83200902810D104F16600B6
:1030700001F047F80749B1EB002F06D004F18200B8
:1030800001F03FF80449884201D1002010BD022020
:1030900010BD00000046415446415433F0B50022B3
:1030A000144D134605EB021426685EB10768BE4254
:1030B00009D166688768BE4205D1A4684669B442F2
:1030C00004D000E00123521C022AEBD3022A01D0D3
:1030D00069B904E04BB9022907D01220F0BD05EB15
:1030E00002108089B0F5807F01D00020F0BD102053
:1030F000F0BD00008C08002030B50021054B0C46C7
:1031000003EB01121568854200D11460491C0229A5
:10311000F6D330BD8C0800200268490AC06A528983
:10312000B1FBF2F1001D04C81AB1914203D3891A10
:10313000F8E7002070470068084470474269891E1C
:10314000921E8A4201D800207047826A408901FBA2
:10315000002070472DE9F04105680F00804606D039
:1031600000F0FCFE022809D20120BDE8F081EE68E3
:1031700016B16869B04207D8012605E0411CF4D0B9
:1031800069698142F1D83E4634466869641CA042B0
:1031900002D80224022E0AD32146404600F0DEFE69
:1031A00038B10128E1D0411CDFD0B442EDD100207C
:1031B000DBE74FF0FF3632462146284601F008F89B
:1031C00030B957B122463946284601F001F820B1FE
:1031D00001280FD001242046C7E7EC60D5E904019F
:1031E000891E884201D8401E2861287940F00100DC
:1031F0002871F0E73446EEE72DE9F0410E46243021
:103200000D6804460B22202100F0C2FF0020014679
:1032100008272A5C401C202A12D92F2A0BD05C2AAE
:1032200009D02E2A01D0B94214D30B2F22D02E2A36
:1032300020D10CE0401C2B5C2F2BFBD05C2BF9D059
:1032400028443060B1B12078E5281FD020E0082163
:103250000B27DEE7802A03D3114B1A4412F8802C87
:1032600010A300E05B1C93F800C0BCF1000F04D079
:103270009445F7D10620BDE8F081A2F16103192B36
:1032800001D8203AD2B26254491CC2E7052020700E
:10329000202A01D8042000E00020E0720020EAE7A4
:1032A000C4450008222A2B2C3A3B3C3D3E3F5B5D47
:1032B0007C7F0000401E022812D20A4901EB001157
:1032C0008889B0F5807F05D008B1401E80B2888122
:1032D00010B103E00020FAE70020086000207047EA
:1032E000022070478C0800202DE9F041044600219F
:1032F000056800F0D8F8002826D12846E16900F0DA
:103300004EFF02001FD1206A017899B1C17A01F005
:103310003F01A171C17A09070FD404F124010B26E2
:1033200010F8013B11F8017BDB1B761E04D0002B4B
:10333000F6D002E0042206E02BB10021204600F086
:1033400005F80200D9D01046BDE8F0812DE9F0471C
:10335000054647690468C0698946203710B1B7F54A
:10336000001F02D30420BDE8F087F90560D1401C9E
:10337000E861A9694FF0000829B16089401E10EA90
:10338000572F05D054E02089B0EB571F1DD94FE0CF
:10339000284600F0E3FD064601281BD9701C33D0F7
:1033A0006069B0423ED8B9F1000F0ED02846A96935
:1033B000FFF7D0FE06000BD0012E0BD0701C23D0DF
:1033C000204601F0A7F8F8B906E0C5F81C80C9E767
:1033D0000720C8E70220C6E74FF40072002104F17D
:1033E000300000F0D5FE4FF0000831462046FFF7D0
:1033F000A5FE4FF00109E0620DE000BF84F80390E4
:10340000204601F087F808B10120ACE7E06A08F136
:103410000108401CE06261894145EFD8E16AA1EBF7
:103420000800E06231462046AE61FFF787FEE861A2
:10343000C7F30800204430306F612862002092E713
:1034400070B504460021066800F02DF80DE0304606
:10345000E16900F0A4FE50B9206A0078E52809D09F
:1034600040B101212046FFF771FF0028EFD004286A
:1034700007D007E03046E16900F091FE050003D077
:103480000FE0072005460CE020220021206A00F012
:103490007FFE0B2204F12401206A00F06FFE012060
:1034A000F070284670BD2DE9F04107680E460546CC
:1034B000B1F5001F36D2F00634D16E61AC6824B984
:1034C0003878032805D37C6A1CB178894FEA4028F4
:1034D00012E03889B0EB561F24D9786A12E02846EA
:1034E00000F03CFD0446401C1AD0022C1AD3786927
:1034F000A04217D9A6EB080646452146EFD238462A
:10350000FFF71CFEC5E9064060B100EB5620E861FC
:10351000C6F308003844303028620020BDE8F0814E
:103520000120FBE70220F9E7084910B50B5C0022F7
:1035300053B901220A540A1801EB8000127A40683C
:103540000168104688470246104610BDAC080020AE
:1035500030B4054C231804EB80001B7A40680469E2
:103560001846A44630BC6047AC08002030B4054D76
:103570002C1805EB8000247A406885682046AC460C
:1035800030BC6047AC080020044A111802EB8000F0
:10359000097A40684268084610470000AC080020DD
:1035A00030B4054D2C1805EB8000247A4068C568BE
:1035B0002046AC4630BC6047AC08002038B5044615
:1035C00000F0EBF900280CD16946204600F0CBFF53
:1035D000002806D12069FFF76DFE002801D10021E7
:1035E000216038BD2DE9F74181B0904602980090E6
:1035F000684600F014FD040003D50B2004B0BDE8BC
:10360000F0810D4E002756F824501DB12846FFF7D3
:1036100073FD2F700198002800D0077046F8240031
:1036200002D0B8F1010F01D00020E7E7002201A984
:1036300002A800F02FFBE1E72C0000202DE9F74362
:1036400092B005000BD002F03F063246694613A83F
:1036500000F020FB04004FF0000804D0ECE009204B
:1036600015B0BDE8F0830098049004A8139900F009
:103670003BFC04000ED19DF83F00000601D5062456
:1036800008E0700801D0012100E0002104A8FFF744
:1036900005FD044616F01C0F5DD04FF00109C4B1C2
:1036A000042C10D10020674902E0401C022804D2FB
:1036B00001EB00121268002AF7D1022807D004A8F3
:1036C000FFF7BEFE044646F008065CB1B4E01224E3
:1036D000B2E09DF8160010F0110F47D1700701D528
:1036E0000824A9E0300747D500F097FC07460C985E
:1036F00039460E3000F0BEFE0C983946163000F008
:10370000B9FE0C982021C1720C99009800F0E6FCDB
:10371000074600220C99009800F098FE0C980021B2
:103720001C3000F0A7FE009981F8039017B3D1F880
:103730002C900022394604A800F00EFE04007BD134
:103740004946009800F02BFD04000098A7F10107FE
:10375000C7600DD070E0ECBB9DF81600C10601D526
:10376000042469E0B10703D5C00701D0072463E052
:10377000300701D546F040060098C06A68620C9890
:10378000A862700801D0012100E0002104A800F027
:1037900065FC2861B8B30C99009800F09FFCA86004
:1037A0000C981C3000F0ADFCC5F82C80E860009946
:1037B0002960009905F130004FF40072C988A98092
:1037C0002E7585F81580C5F8208000218146C5F842
:1037D000188000E030E000F0DBFCB0062ED5EE688B
:1037E00066B3AE610098A968408947020FE0284699
:1037F00000F0B4FB0146012800D80224481C03D085
:10380000F61B24B105E01BE00124F61B01E0BE42DB
:10381000EDD8E96184B9F00510D00098FFF78EFC6F
:1038200070B100EB56222A62009801234946407885
:10383000FFF79CFE10B10124C5F8008020460FE779
:103840000224F9E78C0800202DE9FE4F884600216C
:10385000196099461546044602A900F084FE002826
:1038600012D1607D00280FD1207DC0070BD0E16808
:10387000A0690127081A4FF0020A04F1300B8542B3
:1038800000D9054684E00720BDE8FE8FA169C80580
:1038900066D102984089401E10EA512611D129B103
:1038A000E06A28B12046FFF737FC05E0A06803E096
:1038B0002046E16900F052FB02281BD3411C4AD08C
:1038C000E061E1690298FFF739FC98B1304401905A
:1038D000680A009025D0029932184889824201D99D
:1038E000801B0090DDE9003248784146FFF73EFE3C
:1038F00088BB03E084F815A00220C5E7207D000600
:103900000CD5216A0198081A0099884206D208EB62
:1039100040204FF40072594600F030FC00984602F7
:103920002CE0226A0198824218D0207D00060AD538
:103930000298012359464078FFF732FE58B9207D9E
:1039400000F07F0020750298012359464078019AC3
:10395000FFF70CFE10B16775012095E70198206212
:10396000208BC0F30800C0F50076AE4200D92E4689
:10397000011932464046303100F000FCA069B044E5
:103980003044A061D9F800008119AD1BC9F80010BE
:10399000002D7FF47BAF002076E7F8B5044669463A
:1039A00000F0E1FD00280ED1217D4A060BD5080666
:1039B0000ED50098226A0123407804F13001FFF708
:1039C000EFFD08B10120F8BD207D00F07F002075DB
:1039D00000F023FB0646616A009800F0E0FB002837
:1039E000F1D1A56A2946E87A40F02000E872A26881
:1039F000206800F02BFD05F11C00E16800F03AFDA5
:103A0000314605F1160000F035FD002105F11200E8
:103A100000F038FD00980121C17000F037FD217DD4
:103A200001F0BF012175F8BD2DE9FE4F04460020CD
:103A3000884618609946154602A9204600F093FD75
:103A4000002806D1607D002803D1207D800702D4A4
:103A50000720BDE8FE8FA069012742194FF0020A36
:103A600004F1300B824200D2C5439BE0A169C80536
:103A700075D102984089401E10EA512618D129B10B
:103A8000E06A38B12046FFF747FB07E0A06838B985
:103A9000002100E0E1692046FFF75CFB00287DD0B3
:103AA00001282DD0411C54D0E061A16801B9A0606B
:103AB000207D00060BD50298226A012340785946E2
:103AC000FFF76EFDA0BB207D00F07F002075E1694F
:103AD0000298FFF733FB98B130440190680A0090D8
:103AE00027D03218029841898A4201D9891B009156
:103AF000DDE9003240784146FFF752FDC0B903E0EE
:103B000084F815A00220A4E7216A0198081A0099F8
:103B100088420AD208EB40214FF40072584600F068
:103B20002DFB207D00F07F0020750098460228E0E4
:103B30000FE0216A019881420FD0E168A0698842B4
:103B40000BD20298012359464078019AFFF70EFDE7
:103B500018B1677501207CE701E001982062208B95
:103B6000C0F30800C0F50076AE4200D92E462044CE
:103B700032464146303000F001FB207D40F08000AD
:103B80002075A069B0443044A061E168884200D843
:103B90000846E060D9F80000811900E005E0AD1B9F
:103BA000C9F80010002D7FF461AF207D40F0400087
:103BB000207500204DE70000F0B5A5B014460F4673
:103BC00005461E46242223A11BA8FCF72AFB00223F
:103BD00039462846FFF706FD08B146210BE032467C
:103BE000394625A0FEF750FF0A2225492046FFF757
:103BF00025FD28B14F2123A0FEF745FF25B0F0BDDC
:103C000019AB21221BA92046FFF70EFF199901B11C
:103C100008B15821EFE72046FFF7D0FC01221849F0
:103C20002046FFF70BFD08B16321E4E71AAB6422DD
:103C300069462046FFF708FE1A9901B108B16D21C7
:103C4000D9E72046FFF7BAFCDDE919018142D5D05A
:103C50007821D0E7546869732069732053544D3339
:103C60003220776F726B696E6720776974682046BF
:103C70006174467300000000257325730000000086
:103C8000900400202E2E2F5372632F66617466738A
:103C90002E6300002DE9FF41002790460E460F607D
:103CA00000F0BDF9050003D50B2004B0BDE8F0819C
:103CB0008A4850F825409CB13460207808F0FE0610
:103CC00020B16078FFF760FCC1070BD02770E8B225
:103CD000B8466070FFF728FCC10708D00320E4E76E
:103CE0000C20E2E70EB1400704D40020DDE71EB14E
:103CF000400701D50A20D8E7002631462046FFF7C5
:103D000095F9022822D100254FEA0D0704EB051092
:103D100090F8F21100F5F77019B1083000F0F1F9E0
:103D200000E0002047F825006D1C042DEED300258F
:103D300057F8256036B131462046FFF777F902285B
:103D400001D203E003206D1C042DF1D3042809D017
:103D500002286DD204F13B0000F0DEF9B0F5007FDF
:103D600066D101E00120A0E704F1460000F0D4F99B
:103D700018B904F1540000F0C4F9A06194F840505F
:103D8000A570012D01D0022D52D1454394F83D007C
:103D90006081E8B3411E08424AD104F1410000F0BD
:103DA000BBF92081000743D104F1430000F0B4F9CE
:103DB000070004D104F1500000F0A3F9074604F114
:103DC0003E0000F0A9F9010032D02389481900EB28
:103DD000131297422CD3B81A6789B0FBF7F0B8B129
:103DE00003274FF6F57C604500D8022740F6F57CA6
:103DF000604500D80127801C3244A26231446061D2
:103E0000C4E90761032F15D013B12944616200E0B2
:103E10000EE0022F1FD000F0010100EB400001EB8B
:103E2000500000BFA16900F2FF10B1EB502F14D277
:103E30000D203AE704F15A0000F06EF90028F7D19E
:103E400020890028F4D104F15C0000F05AF9606286
:103E500060698000E6E74000E4E74FF0FF30206152
:103E6000E06080202071032F2CD104F1600000F06D
:103E700053F9012826D1711C204600F090F908BBA7
:103E800084F8048004F22E2000F046F9A0F52A41BF
:103E9000553917D104F1300000F033F91049884248
:103EA00010D104F5057000F02CF90E49884209D1B3
:103EB00004F5067000F025F9206104F5077000F0A4
:103EC00020F9E06005492770091F0888401C088018
:103ED000E0802046FFF710F907E700002C000020E3
:103EE000525261417272416173B50446056801988E
:103EF00001E0401C019001782F29FAD05C29F8D00C
:103F00000021A16001980078202806D2802084F842
:103F10002F002046FFF7C7FA7CBD01A92046FFF716
:103F20006BF90028F8D12046FFF7DEF994F82F103E
:103F300028B10428F0D14907EED405207CBD4907FB
:103F4000FCD4A079C006F8D5A08AC0F308004119B6
:103F50002846303100F0C2F8A060DEE72DE9F041DC
:103F600004680D4602290BD36069A84208D920785D
:103F70004FF0FF36012807D002282BD0032839D074
:103F800001263046BDE8F081206A05EB550700EBBD
:103F90005721204600F003F90028F2D1C7F30800AA
:103FA00020447F1C90F83080206A00EB5721204687
:103FB00000F0F5F80028E4D1C7F30800204490F899
:103FC000301048EA0120E90701D00609D9E7C0F31B
:103FD0000B06D6E7206A00EB1521204600F0DFF83B
:103FE0000028CED1E8B204EB4000303000F094F865
:103FF0000646C6E7206A00EBD511204600F0CFF850
:104000000028BED140F2FF1000EA85002044303085
:1040100000F077F820F07046B3E70020704710B545
:1040200004464FF0FF302268002A13D0114600E00A
:10403000491C0B78212B0ED33A2BF9D112F8013BF6
:10404000303B0A2B06D28A4204D1002B02D1491CF4
:104050001846216010BD002010BD0000F0B50246DA
:104060001D4BD2F80050002003EB00142668AE422E
:1040700007D166689768BE4203D1A4685669B44206
:1040800002D0401C0228EFD3022814D1002002E005
:10409000401C022804D203EB00142468002CF7D142
:1040A00002280ED003EB0014256095686560526904
:1040B000A2600022A281002903EB0011898902D0AD
:1040C00019B10020F0BD491C01E04FF4807103EBF1
:1040D0000012401C9181F0BD8C08002070B506468E
:1040E0000D4601F11A0000F017F804463078032855
:1040F00005D105F1140000F00FF844EA0044204611
:1041000070BDC178827842EA01214278007842EAA3
:10411000012140EA012070474178007840EA0120FF
:1041200070470000FCF786FCFEF73CFAFDF788FCC0
:10413000FDF74AFCFDF7D8FCFDF7C6FCFDF760FC77
:10414000FEF7FCFE002802DAFCF72EFD0EE0084820
:104150000168084A1140B1F1005F07D14168064A81
:1041600051601160006880F308888847FEE700000E
:10417000008000080000FC2F00000020002A05D06D
:1041800011F8013B00F8013B521EF9D170470000C5
:104190005FFA81F100F8011B521EFBD1704770B528
:1041A0000446C06A0D460026A8420FD0204600F003
:1041B000B1F906000AD1607801232A4604F13001E2
:1041C000FFF7D4F908B1751E0126E562304670BDCF
:1041D0002DE9F047022617460D460446022969D309
:1041E0006069A84266D920784FF00109012804D0FF
:1041F000022836D003285DD143E0216A05EB55083B
:1042000001EB58212046FFF7CAFF060052D1C8F340
:1042100008002044303008F10108E90704D0017893
:10422000FAB262F31F1100E03946017084F803907E
:10423000216A204601EB5821FFF7B1FF060039D172
:10424000C8F3080020443030E90702D0C7F3071153
:1042500005E00178C7F3032201F0F001114301707A
:1042600026E0206A00EB15212046FFF798FF0600A4
:1042700020D1E8B204EB4000B9B2303000F002F9CE
:1042800016E0206A00EBD5112046FFF788FF0600F4
:1042900010D140F2FF1000EA85002044303005467E
:1042A000FFF72FFF67F31B000146284600F0E2F8F6
:1042B00084F803903046BDE8F087000030B585B043
:1042C00000241C4A1CA16846FEF7DEFB0122694659
:1042D0001B48FFF7B3F948BB152204AB194918482E
:1042E000FFF7B2FA05461648FFF768F92DB15321DA
:1042F00015A0FEF7C8FB012419E00498152815D174
:1043000014211048FEF7C8F901460E48027D91427B
:104310000CD1B0F80B10B0F80F20B0F80D30491EDA
:1043200001FB0321D0F80700814200D0FF2405B033
:10433000204630BD1200002025736C6F61640000C0
:1043400060020020540600202E2E5C5372635C62D3
:104350006F6F742E630000002DE9F041056813466D
:104360000E46074602292DD36869B0422AD93BB1CF
:104370004FF0FF3219462846FFF72AFF00281FD1C9
:1043800031463846FFF7EAFD040018D0012C19D059
:10439000601C19D0002231462846FFF719FF00287B
:1043A0000ED1D5E90410821E914205D2491C296123
:1043B000297941F0010129712646B042E0D8002058
:1043C000BDE8F0810220FBE70120F9E710B586B0D7
:1043D000154A16A16846FEF757FB0A22694615489A
:1043E000FFF72CF908B12C2116E0152414211248EE
:1043F000FEF752F9104904AB224608750D48FFF745
:1044000013FB04460B48FFF7D9F80CB1362103E043
:104410000498152806D03B2108A0FEF734FB0120A4
:1044200006B010BD0020FBE71200002025736C6F62
:104430006164000060020020540600202E2E5C53B0
:1044400072635C626F6F742E6300000070B50C467F
:104450000646154691B204F11A0000F013F83078C0
:10446000032806D1290C04F11400BDE8704000F0C7
:1044700009B870BD0170090A4170090A8170090A02
:10448000C17070470170090A4170704770B50446E9
:1044900000F040F8050036D1207803282CD120798F
:1044A000012829D1420204F1300000210646FFF71D
:1044B0006FFE4AF6552104F22E20FFF7E3FF134961
:1044C0003046FFF7D7FF124904F50570FFF7D2FF1A
:1044D00004F506702169FFF7CDFF04F50770E16868
:1044E000FFF7C8FFE2690123521CE262607831469F
:1044F000FFF756F800202071002260781146FFF780
:1045000027F800B10125284670BD000052526141D4
:10451000727241612DE9F0410446C0780027F8B17C
:10452000E56A04F13001607801232A468846FFF7E6
:1045300037F808B1012713E00020E070206AA16974
:10454000281A88420CD2A67808E0A0690123054405
:1045500060782A464146FFF723F8761E022EF4D2F1
:104560003846BDE8F08170B50D4604000CD02068D7
:1045700050B1017841B1C188A288914204D14078FC
:10458000FFF702F8C00703D000202860092070BDA3
:1045900020682860002070BDD1240008672500082D
:1045A000412500086D250008F124000800000000E6
:1045B00000000000010203040607080900000000D3
:1045C00001020304435545414141414345454549A5
:1045D000494941414592924F4F4F5555594F554F7B
:1045E0009C4F9E9F41494F55A5A5A6A7A8A9AAAB38
:1045F000ACADAEAFB0B1B2B3B4414141B8B9BABBE2
:10460000BCBDBEBFC0C1C2C3C4C54141C8C9CACB7D
:10461000CCCDCECFD1D145454549494949D9DADB41
:10462000DCDD49DF4FE14F4F4F4FE6E8E855555588
:104630005959EEEFF0F1F2F3F4F5F6F7F8F9FAFB69
:10464000FCFDFEFF0100040010004000000100021C
:10465000000001000200040008001000200000001B
:10466000804600080000002030000000B02A00084A
:10467000B04600083000002088100000C02A000862
:10468000000000000000000000000000000000002A
:104690000100000000000000010000001000000008
:1046A000000000000024F4000000000000000000F2
:040000050800018965
:00000001FF
