:020000040800F2
:1080000060B50020D9830008D957010879390108E3
:10801000D557010827AB00082D7D0108000000009E
:108020000000000000000000000000001D830008A8
:108030005FAE00080000000071830008F56A0108C7
:10804000F3830008F3830008F3830008F383000838
:10805000F3830008F3830008F3830008F383000828
:10806000F3830008F3830008F3830008F383000818
:10807000F3830008F3830008F3830008F383000808
:10808000F3830008F3830008F3830008F3830008F8
:10809000F3830008F3830008F3830008F3830008E8
:1080A000F3830008F3830008F3830008F3830008D8
:1080B000F3830008F3830008F3830008F3830008C8
:1080C000F3830008F3830008F3830008F3830008B8
:1080D000F38300080D7D0108F38300081D7D01086E
:1080E000F3830008F3830008F3830008F383000898
:1080F000F3830008F3830008F3830008F383000888
:10810000F383000899590108F3830008F3830008FA
:10811000F3830008F3830008F3830008F383000867
:10812000F3830008F3830008F383000835AD0008EB
:10813000F3830008F3830008F3830008F383000847
:10814000F3830008F3830008F3830008F383000837
:10815000F383000845AD0008F3830008F3830008AB
:10816000F3830008F3830008F3830008F383000817
:10817000F3830008F3830008F38300080000000085
:10818000F3830008F383000800F002F800F0B6F86B
:108190000AA090E8000C82448344AAF10107DA4562
:1081A00001D100F0ABF8AFF2090EBAE80F0013F0FE
:1081B000010F18BFFB1A43F00103184760FA0100D2
:1081C00080FA01000A444FF0000C10F8013B13F054
:1081D000070408BF10F8014B1D1108BF10F8015B20
:1081E000641E05D010F8016B641E01F8016BF9D113
:1081F00013F0080F1EBF10F8014BAD1C0C1B09D16A
:108200006D1E58BF01F801CBFAD505E014F8016BDB
:1082100001F8016B6D1EF9D59142D6D3704700006D
:108220000023002400250026103A28BF78C1FBD87F
:10823000520728BF30C148BF0B6070476E2900F05D
:108240007A85702900F0D38666291CF0618665293D
:108250001CF05E8667291CF05B8661291CF05A863B
:1082600003681B0A28BF41F08001692900F01A82C7
:10827000642900F01782752900F014826F2900F03C
:108280006086782900F09F86E92900F0FB85E429C3
:1082900000F0F885F52900F0F585EF2900F05D86FE
:1082A000F82900F09E860368DB0928BF41F08001B1
:1082B000632900F07C85732900F08185E32901F0B2
:1082C000D982F32901F0DE82002070471FB51CF02F
:1082D0001AFE9DE8030000F08DFC01F02DFB040068
:1082E000002000211CF0B6FC401C60600020002132
:1082F0001CF09AFCE0601FBD10B510BD01F0EEFA55
:108300001146FFF7E3FF19F084FD01F0CBFB03B446
:10831000FFF7F2FF03BC01F0FBFB00002B4B1968D9
:108320000868B0E8F04F80F30988BFF36F8F4FF013
:10833000000080F3118870470000000006480068C4
:10834000006880F3088862B661B6BFF34F8FBFF351
:108350006F8F00DF00BF00BF08ED00E0DFF80C000A
:10836000016841F470010160704700BF88ED00E0D2
:10837000EFF30980BFF36F8F144B1A681EF0100FD4
:1083800008BF20ED108A20E9F04F106008B44FF0CC
:10839000500080F31188BFF34F8FBFF36F8F1BF036
:1083A0004BFC4FF0000080F3118808BC1968086886
:1083B000B0E8F04F1EF0100F08BFB0EC108A80F349
:1083C0000988BFF36F8F704700BF00BF6C020020A9
:1083D000EFF30580704700000948804709480047CF
:1083E000FEE7FEE7FEE7FEE7FEE7FEE7FEE7FEE765
:1083F000FEE7FEE704480549054A064B70470000C2
:10840000DD6B01088981000860A5002060B50020AF
:1084100060AD002060AD002070B5064600F0CEFBD8
:10842000056806F10B0020F00704B4429CBF002051
:1084300070BD2B466A68BAB11068A04210D304F12F
:10844000080188423CBF5068586007D35168101932
:1084500041601168091B016058601460101D70BDF7
:1084600013465268002AE7D12146284600F0AEFBA9
:108470000028DED170BD70B50446051F00F09EFBDC
:108480000068002C14BF446870BD002C18BFAC42BB
:108490003CBF20466468F8D301680A18AA4218BF96
:1084A000456003D12A6805461144016028684119D6
:1084B000A1421CBF6C6070BD61686960216808449E
:1084C000286070BD53EA020C00F069802DE9F04B82
:1084D0004FF00006002B1FBFB3FA83F503FA05F433
:1084E00024FA05F65E4012BF1643B2FA82F502FA8C
:1084F00005F4C5F120051EBF22FA05FC44EA0C0470
:10850000203556EA044C4FEA144418BF641C4FF05F
:1085100000084FF00009904271EB030C39D3002999
:1085200019BFB1FA81F701FA07F6B0FA80F700FA3D
:1085300007F6C7F120071EBF20FA07FC46EA0C0623
:108540002037B6FBF4FCA7EB0507103F07F01F0B25
:10855000CBF120060CFA0BFB2CFA06F644BFB3460F
:108560000026202FA4BF5E464FF0000B5BEA060CEE
:1085700008BF4FF0010B19EB0B09ABFB027C48EB7A
:108580000608C01B06FB02CC0BFB03CC71EB0C01F5
:10859000C1E70B46024641464846BDE8F08B13B59D
:1085A0004FF000004FF00001AFF30080BDE81C4029
:1085B000704700001CB50C46064B7B446946009092
:1085C000204600F0D2FB04460020694600F0E0FBA4
:1085D00020461CBDD30700000FB41CB5084B06AAEB
:1085E0007B4469460090059800F0BFFB04460020DC
:1085F000694600F0CDFB20461CBC5DF814FB000072
:10860000AD07000070B5044685690068C10601D554
:10861000302600E02026C00707D070BDD4E9012134
:1086200030469047206A401C20626D1EF6D570BD12
:1086300070B5044685690078C00707D170BDD4E9DC
:10864000012120209047206A401C20626D1EF6D533
:1086500070BD70B50C460546012A05D02878800605
:1086600000D5EA69002302E0012305E05B1C934288
:1086700002D2E05C0028F9D1A869E618C01AA86106
:10868000286A184428622846FFF7BCFF04E0D5E9B1
:10869000012114F8010B9047B442F8D32846FFF7A4
:1086A000C7FF70BD2DE9F04106460024106875290A
:1086B000314616A510D000F0D3FA002802DA404265
:1086C00013A507E031688A0701D512A502E0490722
:1086D00004D511A5012401E000F0CBFA00210A2203
:1086E00006F1240709E0B0FBF2FCB0FBF2F302FB59
:1086F0001C00303078541846491C0028F3D123461A
:108700002A463046BDE8F04100F0BCBA0000000047
:108710002D0000002B000000200000002DE9F05F7C
:10872000894604464FF0000ADFF874B1FB44C0F8F4
:1087300020A02046E1688847002874D0252806D06C
:10874000D4E901219047206A401C2062F1E700260D
:108750005F462046E16888472028054607DB312D23
:1087600005D2781910F8200C08B10643F1E7B007DC
:1087700001D526F00406C4F81CA00027C4F818A0F0
:108780002A2D09D0284616F093FB38B304EB87084E
:10879000303DC8F8185019E059F8041B204604EB86
:1087A00087029161E1688847012F054618D1E06989
:1087B000002820DA26F020061DE0D8F8180000EB8B
:1087C000800005EB40003038C8F818002046E1680A
:1087D0008847054616F06CFB0028EED1012F0AD021
:1087E0002E2D08D12046E16888477F1C0546022FC0
:1087F00046F02006C4DBA069002803DA404246F0B8
:108800000106A061F00701D026F010066C2D0BD0F8
:10881000682D09D04C2D39D06A2D35D0742D35D026
:108820007A2D33D016E038E0E1682F46204688479D
:10883000B842054609D16C2F26D04FF48060E1681C
:10884000064320468847054604E06C2F1AD04FF4B3
:10885000807006430DB3A5F14100192802D82035D8
:1088600046F400664A462946204626604E46FFF7F3
:10887000E5FC80B101280BD0F61D26F0070000F1C1
:10888000080956E74020E4E78020D8E70020D6E733
:1088900006F104094DE7284652E7206ABDE8F09F3B
:1088A00084EE010040EA010310B59B070FD1042AB2
:1088B0000DD310C808C9121F9C42F8D020BA19BAAB
:1088C000884201D9012010BD4FF0FF3010BD1AB110
:1088D000D30703D0521C07E0002010BD10F8013B65
:1088E00011F8014B1B1B07D110F8013B11F8014B8C
:1088F0001B1B01D1921EF1D1184610BD40EA0103A5
:10890000024630B59B0710D14FF0013400E008C299
:1089100008C91D1B9D4315EAC41FF8D013F0FF01C1
:1089200002F8011B0DD01B0AF8E711F8013B002BE0
:1089300002F8013B05D011F8013B002B02F8013B86
:10894000F3D130BD10B5431C02E010F8011B71B12A
:108950008107FAD14FF0013202C88C1A8C4314EA15
:10896000C211F9D0C01A0A0603D0C01E10BDC01A29
:1089700010BD0A0401D0801E10BD0902FCD0401EAB
:1089800010BD032A40F2308010F0030C00F0158077
:1089900011F8013BBCF1020F624498BF11F801CB02
:1089A00000F8013B38BF11F8013BA2F1040298BF67
:1089B00000F801CB38BF00F8013B11F0030300F0D1
:1089C0006B80083AC0F0088051F8043B083A51F82F
:1089D00004CBA0E80810F5E7121D5CBF51F8043B7A
:1089E00040F8043BAFF30080D20724BF11F8013BED
:1089F00011F801CB48BF11F8012B24BF00F8013B4F
:108A000000F801CB48BF00F8012B7047431A28BF7C
:108A10009A427FF6B6AF032A1044114440F22680F2
:108A200010F0030F1EBF11F8013D521E00F8013D6A
:108A300010F0030F7FF4F6AF11F0030300F0F5829E
:108A4000083AC0F00B8051F8043D083A51F804CDC3
:108A500040F8043D40F804CDFFF7F3BF121D5CBFA2
:108A600051F8043D40F8043DAFF30080D20724BF25
:108A700011F8013D11F801CD48BF11F8012C24BFB8
:108A800000F8013D00F801CD48BF00F8012C704707
:108A900001B5FFF776FF01BD10B5203AC0F00B809D
:108AA000B1E81850203AA0E81850B1E81850A0E8F2
:108AB0001850BFF4F5AF5FEA027C24BFB1E818504C
:108AC000A0E8185044BF18C918C0BDE810405FEABC
:108AD000827C24BF51F8043B40F8043B08BF704738
:108AE000D20728BF31F8023B48BF11F8012B28BF3D
:108AF00020F8023B48BF00F8012B704701F0FF034C
:108B0000114601B543EA032242EA024200F00BF8A3
:108B100001BD02F0FF0343EA032242EA024200F0F1
:108B200002B84FF000020429C0F0128010F0030CCC
:108B300000F01B80CCF1040CBCF1020F18BF00F850
:108B4000012BA8BF20F8022BA1EB0C0100F00DB8FF
:108B50005FEAC17C24BF00F8012B00F8012B48BF5D
:108B600000F8012B70474FF0000200B51346944601
:108B70009646203922BFA0E80C50A0E80C50B1F175
:108B80002001BFF4F7AF090728BFA0E80C5048BF89
:108B90000CC05DF804EB890028BF40F8042B08BF27
:108BA000704748BF20F8022B11F0804F18BF00F823
:108BB000012B7047704770477047000000487047AE
:108BC00008A50020704770477047704738B50446C5
:108BD0000A4600206946AFF30080002808BF38BD70
:108BE00002460099204600F04FFA012038BD0120CE
:108BF00000F06CBEF8B5AFF30080054600200C46CF
:108C0000102000BF0646A819A0420DD93246694679
:108C10000020AFF30080070008BF00F057FE009867
:108C2000A04218BF0546C419FFF7C8FF05600746F4
:108C3000F01D20F007004619284600F00AF8B4425B
:108C400008BFF8BDA21B31463868BDE8F84000F007
:108C50001BBA00210160C0E9011070471020704765
:108C600009684A0501D540B27047C905FCD500B274
:108C7000704709684A0501D5C0B27047C905FCD5DF
:108C800080B270472DE9F0470D469946924604465A
:108C900000F124080168880604D5E06921F010017C
:108CA000216000E00120A84201DD471B00E0002711
:108CB000A1697A1902EB0900081AA0612078C006A0
:108CC00002D42046FFF79EFC002608E0D4E90121EB
:108CD0001AF806009047206A401C761C20624E4518
:108CE000F4DB2078C0060AD52046FFF78BFC06E0AF
:108CF000D4E9012130209047206A401C2062381EB0
:108D0000A7F10107F4DC07E0D4E9012118F8050018
:108D10009047206A401C2062281EA5F10105F3DC63
:108D20002046FFF785FC2078000602D50220BDE82A
:108D3000F0870120FBE711680268006A530501D53E
:108D400008700AE0D30501D5088006E0130603D5B4
:108D5000C217C1E9000200E008600120704700006E
:108D600001694A1C02610878704700B58FB0CDE9EF
:108D700001310021059105497944CDE903101146DF
:108D80006846FFF7CBFC0FB000BD0000E5FFFFFF1A
:108D90000A6802F8010B0A60704710B5436913B105
:108DA000AFF3008001E0FFF754FC012010BD127802
:108DB00000F124010A7000224A700122EDE71168D7
:108DC0004FF0FF32E9E700002DE9FF5F15468A46C4
:108DD0000446DFF8AC80F8440027D8E900103E468E
:108DE000CDE9001010E03AF816106A4602A800F02B
:108DF0004DFD411C07D02178890603D5E269391859
:108E000091420DD80744761C2078800602D5E0698F
:108E1000B84205DDAE42E6DB3AF816000028E2D1A2
:108E2000A069C01BA0612046FFF7ECFBD8E9001049
:108E3000CDE90010002017E03AF818106A4602A8A1
:108E400000F024FDB0F1FF3F81460BD000250DF16D
:108E5000080B05E0D4E901211BF8050090476D1CC3
:108E60004D45F7D308F10100B0428046E4DB206AAB
:108E7000384420622046FFF7DBFBBDE8FF9F00007F
:108E8000EEE701002DE9F0418046D21D22F00702F5
:108E90000025D2E90002F52915A614D0011E72F1B1
:108EA000000106DA0023D0EB030063EB020211A6F7
:108EB00008E0D8F800108B0701D50FA602E049079B
:108EC00001D50EA601251146002408F1240704E06F
:108ED00000F0F4F830323A55641C50EA0102F7D140
:108EE0002B46324621464046BDE8F041FFF7CABE58
:108EF000000000002D0000002B00000020000000FA
:108F000030B4002100F1240408E002F00705D20883
:108F1000303542EA4372DB086554491C52EA0305C6
:108F2000F3D10468002310A2250707D5A40600D4B6
:108F300021B1C46901230DA2641EC46130BCFFF7D6
:108F4000A1BE10B5044621461068FFF792FE024606
:108F50002046BDE810400023D2E7D21D22F00701D1
:108F6000D1E90023CCE70000000000003000000041
:108F7000F0B40D460188090502D5214C7C4402E07D
:108F80001F4C7C440E34002100F1240608E002F05E
:108F90000F071209E75D42EA03721B097754491C67
:108FA00052EA0307F3D102780023120704D5702D8B
:108FB00006D009B1022311342246F0BCFFF762BE8D
:108FC00001231034F8E770B504460D4621461068B9
:108FD000FFF74FFE024629462046BDE870400023B9
:108FE000C6E7D21D22F00703D3E90023C0E70368D8
:108FF000126843F0200303600823C3610023B7E72E
:1090000050E60100431A28BF9A427FF645AD10444E
:1090100010F0030F11441EBF11F8013D521E00F85D
:10902000013D10F0030F7FF4F6AF103AC0F00A8054
:1090300010B531E91850103A20E91850BFF4F9AFD3
:10904000BDE81040530724BF31E9081020E908109B
:1090500044BF51F8043D40F8043D12F0030F08BF2F
:109060007047D20728BF31F8023D48BF11F8012CE4
:1090700028BF20F8023D48BF00F8012C70470000CF
:109080000048704700A50020034640688C46002831
:1090900018BF88423CBF03464068F8D3186818449C
:1090A000884207D00CF1030020F00700001D411A90
:1090B000521A0146081D0A60FFF7DDB930B5B0F15C
:1090C0000A024FEA900E71F100034EEA817EB0EB86
:1090D0000E0061EB91014FEA101E4EEA017E10EB8B
:1090E0000E0041EB11114FEA102E4EEA016E10EB0B
:1090F0000E0041EB11214FEA104E4EEA014E10EBEB
:109100000E0041EB1141401841F100014FEAD0003F
:1091100040EA41704FEAD10110EB80054FEA81042B
:1091200044EA907444EB01046D1944EB0404521BAF
:10913000A3414FF0000348BF0A3200D530BD401CA8
:1091400041F1000130BD70472DE9FF4F0C461E462E
:109150004FF0FF378BB0D2E90001DDF860800A9054
:109160008A46C1F30A5505B93D46002108464FF02D
:109170000000BAF1000F00F4400005DA00EB8000B7
:109180004FF4400101EA50004FEA9059B9F1010F44
:1091900000DDB9460A9850EA4A000ED044F6105055
:1091A000A5F2FF3545432F14B8F1000F1ED07542CC
:1091B000291E1EDDC9F100021CE0B8F1010F4FF0BD
:1091C000000001D0302103E0F24305E02154401CAF
:1091D000B042FBDB30460022002121540B99C1F83C
:1091E0000880C1E900200FB0BDE8F08FBD1B6D1CE9
:1091F000DEE74A4600DA694206A800F0E1FB06AB6A
:1092000093E8070003AB83E8070050460A9900F093
:10921000E6FC8DE80700A0F500501F380090039889
:10922000002D0ADD42F21F014A460844002303A92B
:109230000390684600F04FFF09E0A0F500504A4651
:109240001F38002303A90390684600F059FF8DE8FA
:1092500007000004000C03D04FF0FF30410800E08D
:109260001046B8F1000F03D00022009215461EE010
:10927000751E05D4FFF722FF303262556D1EF9D5F9
:10928000B3460122084302D000227F1C04E020786C
:10929000302801D100227F1E002A099784D01DE0CA
:1092A000112D07DAFFF70AFF303262556D1C50EAC4
:1092B0000102F5D1084302D00098C8B10EE00021A8
:1092C000681E05E0235C625C63542254401E491C06
:1092D0008142F7DBAB46A81B401E0990002004F832
:1092E0000B000B98099AC0F80880C0E9002B7AE7B8
:1092F00011264FF0000857E72DE9F04F8846044645
:10930000D21D22F0070191B0D1E90001CDE90A0197
:1093100015F0A8FA02460B98C00F01D02D2007E0E7
:109320002068810701D52B2002E0202101EAC0003E
:10933000032A099001D0072A05DB0346414620464F
:1093400000F0FEFA0BE12078800601D5E06900E02C
:109350000620B8F1650F814606D0B8F1660F18D027
:10936000B8F1670F70D131E00020B9F1110F009012
:1093700001DB112301E009F101030AAA01A90CA8EC
:10938000FFF7E2FEDDE90C70002609F101058346D6
:1093900047E001204B4600904FF000470AAA01A980
:1093A0000CA8FFF7D1FEDDE90DB00C995D46002653
:1093B00010B909F101000D18B9EB050003D4C0F193
:1093C000FF3609F10105A5EB09002BE0B9F1010F0A
:1093D00001DA4FF001090020B9F1110F0090484661
:1093E00001DD112300E003460AAA01A90CA8FFF73A
:1093F000ABFEDDE90C704D46002683462078000761
:109400000AD4AB4500DA5D4601A8012D04DD4119FF
:1094100011F8011C302907D04F4502DA17F1040F6B
:1094200004DA012082460FE06D1EEEE7002F02DC19
:10943000ED1B3E4403E0781CA84200DD7D1CB81BF8
:1094400000F1010A4FF000472078000703D4AA4535
:1094500001DB4FF0FF3A0021B7F1004F0DF1430857
:109460008DF8431024D002202B23002F01DA7F42F5
:109470002D230A21021EA0F1010000DC5FB197FB41
:10948000F1FC97FBF1F201FB1C7C17460CF1300C50
:1094900008F801CDEEE7A8F1010003702188090565
:1094A00001D5452100E06521A0F1010800F8011C6B
:1094B00009980FA9A1EB0807FF1D00B10120411970
:1094C00001EBEA70A1693844081A401EA0612078B7
:1094D000C00602D42046FFF795F8099828B1D4E9D0
:1094E00001219047206A401C20622078C00622D5C6
:1094F0002046FFF787F81EE0002E04DBB34502DDAF
:1095000001A8805D00E03020D4E901219047206A65
:10951000401C2062761CAAF101005FEA000A0AD111
:1095200000F00AFAC0680168405CD4E90121904764
:10953000206A401C2062281EA5F10105DCDC07E042
:10954000D4E9012118F8010B9047206A401C2062E1
:10955000381EA7F10107F3DC2046FFF769F8032066
:1095600011B041E62DE9F04F04460D46D21D22F020
:10957000070089B0D0E900974846394615F072F9DE
:109580000246F80F01D02D2307E02068810701D59E
:109590002B2302E0202101EAC0038DF820300BB11B
:1095A000012000E00020032A824601D0072A04DBC4
:1095B0002946204600F0C4F93FE12078800601D416
:1095C0000D2500E0E569C7F30A560D2D49DA0021A3
:1095D0004FEA175B08464FF00000002F00F44000F0
:1095E00007DA00EB80004FF4400100EBD07001EA95
:1095F00060008115012901DD4FF0FF3100224FEAA3
:10960000850CBCF1180F06D31346ACF118004FF0CF
:109610008052C24003E04FF4801323FA0CF30CF1A4
:109620000C0CBCF1200F04D3ACF1200C09FA0CF0A7
:1096300001E007FA0CF000294FF0004801DD18B9ED
:109640000FE00ED140450CD319EB02095F4121B95F
:10965000404502D19F4329EA0209BBEB175F00D0C6
:10966000761C2088000502D57B48784402E07A48C1
:109670007844193808AA302302F80A30037C0AF12A
:109680000101002E0AF1020A53546A4602DC4FF02F
:10969000300101E04FF031014FF001088DF800106A
:1096A00002D0A6F2FF3603E059EA470100D06B4E24
:1096B000002D02DC2178090704D54FF002082E2185
:1096C0008DF80110C44600210BE0C7F303433F01AE
:1096D000C35C491C6D1E02F80830052908F1010819
:1096E00001DA002DF1DC00210CE000EB1973491CBC
:1096F0001B786D1E082902F808304FEA091908F195
:10970000010801DA002DF0DC21688B0602D516E095
:10971000A8F10108E04505DD02EB080313F8013C60
:10972000302BF5D0B8F1000F09DD02EB080313F878
:10973000013C2E2B03D1090701D4A8F10108002D0B
:1097400005DD3E2102F808106D1E08F10108407C7D
:10975000002E02F8080008F1010804DA2D207642F4
:1097600002F8080002E02B2002F808000A214FF45A
:109770007A70864208F101080BDB96FBF0F3303378
:1097800002F8083096FBF0F308F1010800FB1366BD
:1097900001E0642E0CDB642096FBF0F3303302F81A
:1097A000083096FBF0F308F1010800FB136601E0B6
:1097B0000A2E06DB96FBF1F0303002F8080008F1C3
:1097C000010896FBF1F001FB1060303002F8080050
:1097D000A16908F1010808EB050202EB0A00081A6A
:1097E000A0612078C00602D42046FEF70BFF216A54
:1097F00008AE01EB0A00206204E0D4E9012116F86A
:10980000010B9047BAF1010AF7D22078C00602D5C1
:109810002046FEF7F7FE6E4609E016F8010B3E28DB
:109820000FD0D4E901219047206A401C2062B8F192
:109830000108F2D22046FEF7FBFE09B00320BDE886
:10984000F08F206A2844206203E0D4E9012130200F
:1098500090476D1EEBD3F8E79DDF010002FCFFFF90
:1098600010B5436913B1AFF3008001E0FFF7ACFA24
:10987000012010BD128800F1240182840022C284DC
:109880000122EDE711684FF0FF32E9E770B51646A7
:109890000C46054600F048F8036893F801010128DA
:1098A00006D0FF2C0FD8185D68B101202C7070BD58
:1098B000D3F807013246214603F207130344284632
:1098C000BDE8704018474FF0FF3070BD10B500F094
:1098D000F7F8BDE8104000F0EEB870477546FFF7A6
:1098E000CFFBAE4605006946534620F0070085468B
:1098F00018B020B5FEF77EFDBDE820404FF0000611
:109900004FF000074FF000084FF0000B21F0070167
:10991000AC46ACE8C009ACE8C009ACE8C009ACE8AA
:10992000C0098D467047000010B500F005F8001D15
:1099300010BD00BF21B301000048704720A50020E2
:109940002DE9F0411F46044603260168072A01F469
:10995000006004DB08B116A505E016A503E008B118
:1099600015A500E015A521F010002060A069C01E1B
:10997000A0610FB1401EA0612046FEF743FE4FB12B
:10998000D4E9012138469047206A401C2062C01C5F
:10999000206206E0206AFAE7D4E9012115F8010BFC
:1099A0009047761EF8D22046FEF742FEBDE8F081D1
:1099B0004E414E006E616E00494E4600696E660073
:1099C0002DE9F047814616468AB0354878440DC8DF
:1099D0008DE80D0032487844801C03AC0DC884E843
:1099E0000D0041F69B300844372190FBF1F290FBCB
:1099F000F1F5A5F1800501FB12041B3C02D5644280
:109A0000012000E00020DFF898A080460027FA44FB
:109A1000AAF1BE0A0EE0E0070AD03246684607EB1C
:109A2000470101230AEB810100F06AFB8DE8070082
:109A300064107F1C002CEED1194F7F44AE3F19E01B
:109A4000E80715D007EB04100DF1180A90E80E0096
:109A50008AE80E00C068F04201D198190890324699
:109A6000012306A903A800F04BFB03AB83E8070022
:109A70006D10641C002DE3D14FF00103324669469E
:109A8000B8F1000F03A802D000F025FB01E000F0C0
:109A900037FBC9E90001C9F808200AB0BDE8F08722
:109AA000CCDC010010B50446AFF300802046BDE8D1
:109AB0001040FEF72CBC002801D000F029B87047F8
:109AC00010B5012805D0002103A000F027F80120DF
:109AD00010BD09A1F8E7000053494752544D454DC8
:109AE0003A204F7574206F662068656170206D653F
:109AF0006D6F7279000000003A2048656170206D3A
:109B0000656D6F727920636F727275707465640031
:109B100001491820ABBEFEE72600020070B50546DD
:109B20000C460A2000E06D1C00F052F835B1287890
:109B30000028F8D102E0641C00F04AF814B1207843
:109B40000028F8D1BDE870400A2000F041B80000BC
:109B50004FF0013C50F8042B51F8043B9A4221D1BC
:109B6000A2EB0C03934313EACC1317D150F8042B48
:109B700051F8043B9A4215D1A2EB0C03934313EA2C
:109B8000CC130BD150F8042B51F8043B9A4209D165
:109B9000A2EB0C03934313EACC13DBD04FF000008D
:109BA000704700BFD01A01BAB1FA81F101F0180173
:109BB00022FA01F0CB40C1F12001DBB2C0B2C01AE1
:109BC0002CFA01F3D11A914311EAC311E6D170477F
:109BD00008B569468DF800000320ABBE08BD5FEAFA
:109BE000400C08BF91F0000F4FEA8C234FEAC122CE
:109BF00043EA51514FEA1C5018BF00F5F0404FEABC
:109C0000300018BF41F000415FEA6C5C00F0298031
:109C1000BCF1FF3F08BF40F080407047130C06BF07
:109C200012044FF0100C4FF0000C130E04BF120280
:109C30000CF1080C130F04BF12010CF1040C930F6C
:109C400004BF92000CF1020CD30F04BF52000CF1C0
:109C5000010C11464FF00002A0F11F00A0EB0C0018
:109C6000704711F0004F08BF704731F000413FF4DA
:109C7000D5AF0B0C06BF09044FF0100C4FF0000CD1
:109C80000B0E04BF09020CF1080C0B0F04BF0901F5
:109C90000CF1040C8B0F04BF89000CF1020CCB0FEC
:109CA00004BF49000CF1010CCCF12003A0EB0C0027
:109CB00022FA03F302FA0CF241EA030100F1010077
:109CC000704720F07F4C80EA030023F07F47ACEB25
:109CD000070303F57C5300F0004003F1FF032DE977
:109CE00080494FEA154B09B44FEA144325EA0B4E5D
:109CF00024EA03480FF2042606EB132749083E78AE
:109D00005FEA320203FB0667C7F5000707FB06F6AA
:109D10004FEA54374FEAD64606F1020607FB066CB7
:109D2000CCF1005C4FEA1C472CEA074C07FB06F419
:109D30000CFB06F504EB15464FEA961634BF0020DF
:109D40004FF000404FEAD13706FB07FC4FEA1C4CAE
:109D50000CFB0BF7D21B03FB0CF761EB07010CFBB1
:109D60000EF7B0EB074072EB17420CFB08F734BF5D
:109D7000A2EB0742B2EB074261EB17414FEA0C44FA
:109D80004FEA910706FB07FC4FEA1C4C0CFB0BF754
:109D9000B0EBC74072EB573203FB0CF734BFA2EBBA
:109DA000C742B2EBC74261EB57310CFB0EF7B0EB89
:109DB000C70072EB57720CFB08F734BFA2EBC70267
:109DC000B2EBC70261EB5771039F4FEA816141EA31
:109DD000921104EBCC044FEAD1374FEA826206FBC2
:109DE00007FC42EA90124FEA80604FEA1C4C0CFBE1
:109DF0000BF7D21B03FB0CF761EB07010CFB0EF713
:109E0000B0EB074072EB17420CFB08F734BFA2EB34
:109E10000742B2EB074261EB17414FEA8C554FEA1C
:109E2000910704EB9C2406FB07FC4FEA1C4C0CFB3F
:109E30000BF7B0EBC74072EB573203FB0CF734BFA4
:109E4000A2EBC742B2EBC74261EB57310CFB0EF7F6
:109E5000B0EBC70072EB57720CFB08F734BFA2EBF4
:109E6000C702B2EBC70261EB577115EB4C254FEA05
:109E7000816141EA92114FEA82624FEAD13742EAA8
:109E8000901206FB07FC44F100044FEA80604FEAA1
:109E90001C4C0CFB0BF7D21B03FB0CF761EB07010F
:109EA0000CFB0EF7B0EB074072EB17420CFB08F708
:109EB00034BFA2EB0742B2EB074261EB174115EB4F
:109EC0001C154FEA813141EA92414FEA823242EA5F
:109ED00090424FEA80304FEA0C7644F1000448EAA1
:109EE00003434EEA0B484FF0000EB2EB080C71EB47
:109EF000030724BF624639464EEB0E0E4FF0000BAF
:109F00000018524149414BEB0B0BB2EB080C71EBC3
:109F100003077BF1000B24BF624639464EEB0E0E61
:109F20004FF0000B0018524149414BEB0B0BB2EBC9
:109F3000080C71EB03077BF1000B24BF6246394626
:109F40004EEB0E0E51EA020718BF46F0010616EB63
:109F50000E7655F1000254F1000103D5BDE88901E8
:109F6000BDE80088BDE88901BDE80048B619524146
:109F700041EB0101A3F10103704780807F7E7D7C6E
:109F80007B7A7978777676757473727171706F6E8B
:109F90006E6D6C6C6B6A6A69686867666665646436
:109FA000636362616160605F5F5E5E5D5D5C5C5BC0
:109FB0005B5A5A595958585757565655555554542F
:109FC000535352525251515050504F4F4F4E4E4D8D
:109FD0004D4D4C4C4C4B4B4B4A4A4A4949494848D9
:109FE0004847474747464646454545444444444319
:109FF00043434342424242414141002B9C4630D4BC
:10A0000077002BD01CB54FEA370703B44FF0100090
:10A010004FF01001BAF1000F06D0BCF1000FDCBF09
:10A0200040F0080040F008014FF000000FBCBDE810
:10A0300010400BF1010BBBF1010F08BF5FEA1707DE
:10A0400022BF12F1010211F101014FF0004143F171
:10A05000000300F0004043EA00007047F9D35708BE
:10A06000D0E746EA064613F1400F4FEA16461FDDD9
:10A0700013F1200FDFBF16430A46002120335B4255
:10A08000BED0C3F1200746EA064602FA07F74FEAB8
:10A09000164646EA0706C3F1200722FA03F201FA40
:10A0A00007F721FA03F14FF0000342EA0702A7E79E
:10A0B00046EA020646EA06464FEA164646EA010620
:10A0C000BCBF46EA0646360C4FF000034FF00002D4
:10A0D0004FF0000194E72DE9804C9A46934670B406
:10A0E00091E8380007C831EA400C48BF34EA430C15
:10A0F00003D5FFF7E6FDFFF780FFF0BCBDE8008C5D
:10A100002DE9804C9A46934670B491E8380007C810
:10A1100010F0804F08BF13F0804F03D100F005F816
:10A12000FFF76BFFF0BCBDE8008C20F07F4780EAB2
:10A13000030023F07F4C07EB0C03A3F57C5300F0E6
:10A140000040A3F1FE0392F0000F00F0B38095F001
:10A15000000F00F077802DE901494FEA11404FEAE6
:10A16000144621EA004800FB06FC24EA064708FBE7
:10A1700006F607FB08F800FB07F718EB06484CEB60
:10A18000164C4FEA124B18EB07484FEA15464CEBBA
:10A19000174022EA0B4E0BFB06FC25EA06470EFB96
:10A1A00006F607FB0EFE0BFB07F71EEB064E4CEB0D
:10A1B000164C4FF000061EEB074E4CEB174B18EBFE
:10A1C0000B0840F1000018EB0E0B58EB000840F1B3
:10A1D00000008F1A4FF000013CBFC943661B14BF3B
:10A1E000B5EB040C00213CBFC943F61B4FEA1744F2
:10A1F0004EEA8E0E27EA04454FEA1C4704FB07622D
:10A200002CEA074C05FB07F70CFB05F604FB0CFCDE
:10A2100016EB074642EB174216EB0C4642EB1C428C
:10A220001BEB060658EB0202414146EA9E0601D5A9
:10A23000BDE80189B619524141EB0101A3F10103C7
:10A24000BDE801894FEA14454FEA114724EA054663
:10A2500021EA074C05FB07F406FB07F70CFB06F1A8
:10A2600005FB0CFC11EB074144EB17444FEA124786
:10A2700011EB0C4144EB1C4422EA074C05FB07F2AE
:10A2800006FB07F70CFB06F605FB0CFC16EB074676
:10A2900042EB174216EB0C4642EB1C456A1854F190
:10A2A000000148BF7047B619524141EB0101A3F1CB
:10A2B0000103704795F0000F37D04FEA11424FEA83
:10A2C000144721EA024624EA074C02FB07F106FB89
:10A2D00007F70CFB06F402FB0CFC14EB074441EB04
:10A2E00017414FEA154714EB0C4441EB1C4125EA9A
:10A2F000074C02FB07F506FB07F70CFB06F602FB13
:10A300000CFC16EB074645EB174516EB0C4645EBE8
:10A310001C42121951F1000148BF7047B619524151
:10A3200041EB0101A3F1010370474FEA14454FEAE5
:10A33000114724EA054621EA074C05FB07F106FB15
:10A3400007F70CFB06F24FF0000605FB0CFC12EBC6
:10A35000074241EB174112EB0C4251EB1C4148BF45
:10A360007047921841EB0101A3F10103704770B5EA
:10A3700006460C46154608E03046721C96B200F0C0
:10A380001DF804F8010B681E85B2002DF4D170BDD4
:10A390002DE9F04107460C460026002509E036026B
:10A3A0003919491B491E88B200F008F80644681C98
:10A3B000C5B2A542F3DB3046BDE8F08170B5044676
:10A3C000002609F0B5FB2546E11704EB11610912DF
:10A3D000A02202EB4101C8B209F072FB09F0F0FBC8
:10A3E000E11704EB11610912A4EB0121C8B209F0D5
:10A3F00067FB09F0E5FB09F09BFBA12009F060FB7E
:10A4000009F0DEFB002009F027FB064609F0B4FB4B
:10A41000304670BD70B505460C46164606E02178FC
:10A42000284600F01EF8681C85B2641C301EA6F198
:10A4300001018EB2F3D170BD2DE9F04105460E4603
:10A440001746002409E0E20026FA02F2D1B22A19E6
:10A4500090B200F006F8601CC4B2BC42F3DBBDE869
:10A46000F08170B504460E4609F062FB2546E117FF
:10A4700004EB11610912A02202EB4101C8B209F0FC
:10A480001FFB09F09DFBE11704EB11610912A4EB1E
:10A490000121C8B209F014FB09F092FB304609F023
:10A4A0000FFB09F08DFB09F067FB0A2007F06EFC3B
:10A4B00070BD00000FB438B505A800900B48009A95
:10A4C0000499FEF777F80446002000900748FEF74D
:10A4D00039FA85B24FF6FF732A460449044809F059
:10A4E000DFF9204638BC5DF814FB00003006002080
:10A4F000605000200FB438B505A800900E48009AAF
:10A500000499FEF757F80446002000900A48FEF729
:10A5100019FA85B24FF6FF732A460749074809F032
:10A52000BFF907A0FFF7C6FF034906A0FFF7C2FF68
:10A53000204638BC5DF814FB760A0020A0500020AD
:10A540000D0A2000257300007047000010B5044676
:10A550002146024808F07AFB10BD0000C44E0020DE
:10A5600010B5044808F085FB042801D0012010BD77
:10A570000020FCE7C44E002010B5002400F014F8C1
:10A58000012801D0012010BD064808F087FC0446D0
:10A5900034B94FF40061034808F00BFA00B101240C
:10A5A0002046F0E7C44E002008B5012000909DF839
:10A5B000000008BD2DE9F04104460D46164600276F
:10A5C00033462A462146044808F072FD00B10127AF
:10A5D0003846BDE8F0810000C44E002010B54FF0B1
:10A5E000FF3201210248006817F0E6FD10BD0000AF
:10A5F000A80100202DE9F04104460D46164600272B
:10A6000033462A462146044808F0F0FD00B10127F0
:10A610003846BDE8F0810000C44E002010B54FF070
:10A62000FF3202210248006817F0C6FD10BD00008D
:10A63000A801002038B544680546014620460DF0C3
:10A6400092FB002808BF38BD464A286811280DD063
:10A6500006DC0B282AD00E2838D00F2817D07CE033
:10A66000282873D0B0F5107F0AD076E09268002ACF
:10A6700008BF38BD294601B02046BDE8304010472C
:10A68000526801B029462046BDE8304010472546B3
:10A69000204601F07FFF0090406E0468684602F09B
:10A6A00059F8002C1CBF2846A04738BD204601F0B1
:10A6B00071FF0090683001F075FE009803216C3046
:10A6C00001F098FE684602F045F846E0E9684868FF
:10A6D00009680D2902D0202918D037E0002835DD7F
:10A6E0004FF4807120460DF009FC204601F052FF26
:10A6F000009090F82850684602F02CF815F0020FF0
:10A700001ED0012120460EF0ADFF19E0002817DD14
:10A7100025464FF4807120460DF0F0FB284601F0ED
:10A7200039FF009090F82840684602F013F814F0C2
:10A73000020F08BF38BD012128460EF093FF38BD37
:10A740002046BDE83840022113F064B9E86820B91A
:10A7500020464FF480710DF0EBFA2846BDE83840F2
:10A760000DF080BF7803002070B5044688B0806982
:10A77000B4F908C0658A00260091CDE90165CDE9EC
:10A7800003C0B4F90C00B4F91050C118B4F90A00B0
:10A79000B4F90EC010442B46624600F027F86468F6
:10A7A000050020D003F0C4F8284601F0F3FE019024
:10A7B000866E01A8009601F0CDFF2146684606F09E
:10A7C0008DFF70B10098B04208D0284601F0E2FE3B
:10A7D00001900099816601A801F0BCFF28460EF0A7
:10A7E00091FE05F031FE08B0284670BD2DE9F04F0E
:10A7F00085B09846DDE91164DDE90E5791468A4639
:10A80000834603F095F804F14C001749CDE9021096
:10A81000CDE9005743464A46514658460DF066FE7C
:10A8200005001BD001F0B6FE1022314604900DF059
:10A8300097FC0E4C0499B4E8CD133431A1E8CD1344
:10A8400094E80D10A1E80D1054F82C0D086004A830
:10A8500001F080FF206841682846884705F0F4FD34
:10A8600005B02846BDE8F08F35A600088403002017
:10A87000F0B5044680688C4989B051F82050606872
:10A88000002800F00A81052806D006287DD012286D
:10A8900000F0B48000F004B9E869002808BF002681
:10A8A00051D0D5E90012AB688DE80F0004F110011A
:10A8B0000FC906F0B9FA002655F8260004F0A7FDE6
:10A8C000A169E8690A1A216901446069304402F00B
:10A8D000E9FCA169E8690A1A21690144E069801B61
:10A8E00002F0E0FCE169E8690A1A61690144206943
:10A8F000304402F04BFDE169E8690A1A61690144DC
:10A90000A069801B02F042FD761C022ED4DBA868F1
:10A9100004F07DFDE069E969D4F814C0431A2069A8
:10A9200042186144801C521E02F01EFEE169E86973
:10A93000A2690B1A61690144101A401C921E02F0B0
:10A9400013FEEE6911E055F8260004F060FDE069A1
:10A95000831BA069821B606981192069304402F061
:10A96000CDFC761C022EEEDB0226D5E90301CDE9F3
:10A970000001E169606901444B10A1698A1B811CD7
:10A980002069304402F080FB00E011E0D5E90501C8
:10A99000CDE90001E0696169831E01440122A069DB
:10A9A00002EB6101821B2069304402F06DFB77E00D
:10A9B000206801F0EFFD049020680FF09AFE50B17E
:10A9C000A068002818BF00200AD10498006F002852
:10A9D00018BF012004E00498406F002818BF02202F
:10A9E000049901EB8000C56E04A801F0B3FE0023BA
:10A9F0001A462846216802F06FF951E0206801F0FC
:10AA0000C9FD0490866E002E08BF04A842D0A1683C
:10AA1000B0F95C70002908BF012103D003290CBFE5
:10AA20000221002100EB8101406D0C6C04F00CFD53
:10AA3000204604F0ECFC06A802F050FEBDF8181009
:10AA4000A88B0144ADF81810BDF81C10081AADF819
:10AA50001C00BDF81A00801CADF81A00BDF81E00DD
:10AA6000801EADF81E000498B0F96020B0F95E10A9
:10AA700006A804F0ADF804A801F06CFE022004F072
:10AA800033FD304601F086FD3A4606A9059002F0F6
:10AA90002FFA05A801F05EFE02E020680FF0C0F872
:10AAA00009B00020F0BD0000CC6C0208F0B583B006
:10AAB0000F4605004FF0010421D002F039FF28466F
:10AAC00001F068FD0190866E01A8009601F042FE3B
:10AAD0003946684606F002FE78B100980024B0427C
:10AAE00008D0284601F056FD01900099816601A822
:10AAF00001F030FE28460EF005FD05F0A5FC03B080
:10AB00002046F0BD01460A2903DA01F13000C0B247
:10AB100070470A2901DA102903DA01F13700C0B2BF
:10AB2000F6E70020F4E700BFFEE710B50024214659
:10AB30003820FFF796FC10BD17F010F800F0E6FE85
:10AB40007AE04FF47A7017F0BBFA3C48007800289E
:10AB500072D13B480078B8B93AA0FFF7ABFC3AA0F5
:10AB6000FFF7A8FC18F084FD052865D13C48407823
:10AB70000A2805DA3A484078401C394948705BE0B9
:10AB800003203749087057E02D480078022808D183
:10AB90002CA0FFF78FFC33A0FFF78CFC17F06EF8AA
:10ABA0004AE027480078032808D126A0FFF782FC56
:10ABB00031A0FFF77FFC14F083F93DE020480078D6
:10ABC000042816D11FA0FFF775FC30A0FFF772FC18
:10ABD00016F044FA00282FD0324800780A2805DA07
:10ABE00030480078401C2F49087025E007F058FBDA
:10ABF00022E01348007805280CD112A0FFF75AFC78
:10AC000029A0FFF757FC4FF000602D49086007F0BE
:10AC100047FB11E00A48007806280DD100200849BA
:10AC2000087008468088488006A0FFF743FC25A0EE
:10AC3000FFF740FC18F0B8FA83E70000B1010020EC
:10AC4000E81B00200D0A20002D2D2D2D2D75706480
:10AC5000617461436865636B28292D2D2D2D2D00AE
:10AC60003A0000202D2D2D2D2D6C6F6164696E67CB
:10AC700028292D2D2D2D2D002D2D2D2D2D62696E88
:10AC80005361766528292D2D2D2D2D002D2D2D2D4F
:10AC90002D66696C65436F707928292D2D2D2D2D1A
:10ACA00000000000480000202D2D2D2D2D6C6F611F
:10ACB000642E7374613D3D352D2D2D2D2D0000002A
:10ACC00008ED00E02D2D2D2D2D6C6F61642E737419
:10ACD000613D3D362D2D302D2D2D00001CB50DF084
:10ACE000B9FF0446002000902346054A1F21019029
:10ACF000044801F053FE04490860084600681CBD82
:10AD000071EB0108D4500208980100207CB50DF0C9
:10AD1000A1FF0546002000902B46044A0E21019019
:10AD2000034801F03BFE044620467CBD61E9010872
:10AD30004C4F020810B5024806F042FE10BD00005C
:10AD4000484F002010B5024806F03AFE10BD000042
:10AD5000A84F00200146087810381823B0FBF3F202
:10AD60000848805CC865032A05D908686FF30900A4
:10AD7000001D886503E008686FF309008865886D29
:10AD800070470000B8540208014600208A6A8B69A7
:10AD9000CBB932B1012A0DD0022A03D0032A10D137
:10ADA0000EE000BFCB6A03F08073B3F1807F00D167
:10ADB000012007E0CB6AB3F1C07F00D1012001E0A0
:10ADC00000E000BF34E08B69B3F5005F1AD132B107
:10ADD000012A07D0022A03D0032A11D10AE000BFBA
:10ADE00001200EE0CB6A03F08073B3F1807F00D1C5
:10ADF000012006E0CB6AB3F1C07F00D1012000E062
:10AE000000BF15E032B1012A05D0022A04D0032A7E
:10AE10000CD103E000BF00BF012008E0CB6A03F0C3
:10AE20008073B3F1807F00D1012000E000BF00BF3C
:10AE3000704730B50468246824F4802405682C60C9
:10AE4000046863608468402C04D10468A2600468CC
:10AE5000E16003E00468A1600468E26030BD70470F
:10AE600000BF011EA0F10102D0B2FAD1704700006C
:10AE7000002808BF70472DE9F04F91B00F460446F7
:10AE800002F056FD204601F085FB039090F854A097
:10AE9000D0F83490866DC56C03A801F05BFC26B138
:10AEA00039462046B04700F0ABB900264FF0010804
:10AEB000122F7DD006DC082F7BD0102F7AD0112FD7
:10AEC0003CD006E0132F5BD01D2F00F0E4801E2F36
:10AED00071D0202FC0F29481BAF1000F00F0F280FF
:10AEE000204601F057FB0590D0F834A0D0F84C90E4
:10AEF00005A801F02FFCBAF1000F00F0E3805046E6
:10AF000001F048FB82464946069005F071F98146FA
:10AF10005046FDF717FD48457DD9D144484605F018
:10AF200021F909EB00014846FDF7E8FC06A801F00D
:10AF300011FC052120460EF095FBC3E0B9F1000F8E
:10AF400000F05E81484601F025FB07462946049043
:10AF500005F04EF90744384605F0F4F80546029628
:10AF600005F010F98046681C86B2304605F00AF9F3
:10AF70000546A84526D004A801F0ECFB00F040B936
:10AF8000B9F1000F00F03C81484601F003FB074691
:10AF90002946049005F02CF90744384605F0D2F80C
:10AFA0000546029605F0EEF88046681E86B203E07C
:10AFB00016E021E01AE043E0304605F0E3F80546EC
:10AFC000A845D8D1314602A805F0AAF82A4602A918
:10AFD0003846FDF7D6FC052120460EF043FBCAE7B4
:10AFE000691C204600F0BEFB00F00AB9691E20462D
:10AFF00000F0B8FB00F004B9002D00F00181691EDB
:10B00000204600F0AFFB204601F0C4FA0190C76C67
:10B01000456B01A800E052E001F09CFB002D00F020
:10B02000EF80284601F0B6FA06463946029005F050
:10B03000DFF805463046FDF785FCA84229D918E01F
:10B04000204601F0A7FA0190C76C456B01A801F0FA
:10B0500081FB002D7ED0284601F09CFA0646394639
:10B06000029005F0C5F805463046FDF76BFCA84296
:10B070000FD93544284605F075F829182846FDF7FC
:10B080003DFC02A801F066FB052120460EF0EAFA1D
:10B09000B6E002A810E0204601F07CFA0390BAF175
:10B0A000010F08BF80F8546005D080F8548029460D
:10B0B000204600F057FB03A801F04CFBA0E006A8D7
:10B0C00001F048FB1FFA87FB204601F063FA0746B0
:10B0D0000290B0F93800002812DD786B4FF00009BB
:10B0E00040B101F057FA009006F050F981466846E9
:10B0F00001F030FBB7F9381009F10100884200DC9B
:10B1000046460298C06C079002A801F023FB002E6F
:10B1100076D0584605F036F8074626464FF0000828
:10B12000204601F037FA0B90406B40B101F032FA43
:10B130000890FDF707FC804608A801F00BFB0B996F
:10B1400007EB0800498F401A00F101080BA801F035
:10B1500001FB00E054E0B8F1000F2CDD304608F1AF
:10B16000100801F017FA0090D0F834A0408F804406
:10B17000684601F0EFFA4146504601F01FFA5FEAD7
:10B1800000093DD0BAF1000F0AD101F003FA204BBB
:10B190000D9042461B68002198470DA801F0DAFA8D
:10B1A000304601F0F7F90090A0F83A80C0F83490EA
:10B1B000684601F0CFFA204601F0ECF90290466BA8
:10B1C00002A801F0C7FA304601F0E4F906460F90F4
:10B1D000079905F00DF806443046FDF7B3FB421C15
:10B1E000F0193146FDF712FC5946304604F098FF3D
:10B1F0000FA801F0AFFA052120460EF033FAEFE672
:10B2000020460EF07FF905F01FF911B0BDE8F08F70
:10B210008804002070B54568044682B028460FF0C7
:10B2200068FA0646214628460CF09DFD002804BF1A
:10B2300002B070BD20680F2844D004DC0B2847D032
:10B240000E2850D066E0A0F58070133804D0A0F529
:10B2500080702D381FD05DE028460EF053FB284645
:10B2600001F098F9009090F8561081F0040180F8F0
:10B270005610684601F06EFA0021284612F0C0FC14
:10B28000284601F087F90090D0F8840000210EF0E4
:10B29000D0FA684624E0E06878B1017A41B10168EB
:10B2A000284600F01FF9012128460EF0DBF931E0B5
:10B2B000022128460EF0D6F92CE0032128460EF094
:10B2C000D1F927E00121284612F09AFC02B070BDA6
:10B2D000284601F05FF90190343001F063F801A8CD
:10B2E00001F038FA16E0AEB1E0684168002911DDDE
:10B2F00001681B290ED009DC09291CBF0A290D2968
:10B3000008D02846FFF7B4FD02B070BD212918BF50
:10B310002229F6D120460DF0A5F902B070BD70B516
:10B32000044686B0D4E9056CB0F90850408A0DF1A6
:10B33000080E8EE861100020CDE90010B4F90C0071
:10B34000B4F91050C118B4F90A00B4F90EC0104491
:10B350002B46624600F016F8050010D0648A02F011
:10B36000E7FA284601F016F9009018B1046628465D
:10B370000EF0C8F8684601F0EDF905F065F806B082
:10B38000284670BD2DE9FF4F85B09846DDE916547B
:10B39000DDE9126B91468A46159F02F0C9FA04F165
:10B3A0006001324A03914BF480500096CDE90102CE
:10B3B00043464A46514605980DF098F804004FD090
:10B3C00001F0E8F81022394604900CF0C9FE284834
:10B3D000049990E8CC1701F1600B8BE8CC17006A58
:10B3E000C1F88000012081F85500681C18BF0120B9
:10B3F00081F88800002DD8BF08252AB20A870020CE
:10B4000048874863551C04A801F0A4F9204601F0C0
:10B41000C1F80090476B408F0544684601F09AF9E7
:10B420002946384601F0CAF8060015D057B901F090
:10B43000B1F8104B01902A461B680021984701A8DB
:10B4400001F088F9204601F0A5F800904587466391
:10B45000684601F07FF903E020460DF027F900244B
:10B4600004F0F2FF09B02046BDE8F08F15B20008E5
:10B47000B403002088040020F0B583B016460D0008
:10B48000044612BF002C03B0F0BD02F051FA204672
:10B4900001F080F8002701902F700198406BB0B147
:10B4A00001F078F8009005F071FF0146009804F073
:10B4B0009FFE0446701E844210DC094B224628463B
:10B4C0001B6800999847684601F044F92F5501A878
:10B4D00001F040F904F0B8FF03B0F0BD0446ECE71A
:10B4E0008C040020002808BF70472DE9F04186B089
:10B4F0000C46074602F01CFA384601F04BF8009063
:10B50000406B002849D001F045F803900098806E08
:10B5100003F09AFF804638460DF083FC06460398F8
:10B5200002F030F90546009890F8601001F0030130
:10B53000012918D002290FD0416EC06A0068084462
:10B54000201A441E039805F021FF002C11DA002177
:10B55000384600F007F917E0701B401C00EBD07074
:10B56000A4EB6004EEE7406E711B081A201A441C1D
:10B57000E8E7A54204DB02462146039805F09AFE5F
:10B580000146384600F0EEF803A801F0E3F8404623
:10B5900003F05AFF38460DF0B5FF684601F0DAF8BF
:10B5A00004F052FF06B0BDE8F08100002DE9F04F35
:10B5B00087B08A4606004FF0000904BF07B0BDE817
:10B5C000F08F02F0B5F9304600F0E4FF0090B0F9DA
:10B5D0003850446B684601F0BDF84FF00008BAF1EE
:10B5E000000F7BD054B1204600F0D4FF0190FDF74E
:10B5F000A9F900F1010901A801F0ACF8504605F0E5
:10B60000C5FE0446A8426ADC2146504604F0F0FD1F
:10B61000471CA7EB090B35464FF00009304600F0F8
:10B62000B9FF0390406B40B100F0B4FF0590FDF707
:10B6300089F9814605A801F08DF803990BEB090003
:10B64000498F401A00F1010903A801F083F8B9F10C
:10B65000000F2CDD049509F11005049800F09AFF05
:10B660000290D0F834B0408F054402A801F072F87F
:10B670002946584600F0A2FF5FEA00094CD0BBF112
:10B68000000F0AD100F086FF284B06902A461B685F
:10B690000021984706A801F05DF8049800F07AFFB1
:10B6A00002904587C0F8349002A801F053F8304664
:10B6B00000F070FF0090406B00F06CFF1C4B01909D
:10B6C0003A461B68514698470198384400F8018C67
:10B6D0000098C464B0F938108C4201E00DE023E01A
:10B6E00001BF90F854100129611EC16401A801F046
:10B6F00031F8684601F02EF80EE0304600F04AFFBF
:10B700000090343000F04EFE0098A0F83A80C0F867
:10B710004C80684601F01EF830460DF0F3FE04F050
:10B7200093FE07B0BDE8F08F2C466DE7880400203B
:10B730008C040020002808BF704738B50D46044629
:10B7400002F0F6F8204600F025FF009018B10566DB
:10B7500020460DF0D7FE684600F0FCFF04F074FEB2
:10B7600038BD000010B582B00C4600F013FF009009
:10B77000406BE8B100F00EFF019005F007FE009964
:10B7800091F85420002A18BF0122002C15DB8442B6
:10B7900015DC00BFB1F93800801AA04211DBC86C7B
:10B7A000A04218BFCC640020086501A800F0D2FFB9
:10B7B000684600F0CFFF02B010BD0024E7E7044662
:10B7C000E8E7B1F93800841AE9E7000010B594B051
:10B7D000002401208DF800008DF84C004FF4FA5041
:10B7E000ADF84A00FF208DF8010006A10DF102001E
:10B7F000FDF784F8694605A000F0A8F90446204644
:10B8000014B010BD726561647900000041542B5280
:10B8100053540D0A0000000010B594B0002401201C
:10B820008DF8000003208DF84C006420ADF84A002C
:10B83000FF208DF8010006A10DF10200FDF75EF872
:10B84000694604A000F082F90446204614B010BDF9
:10B850004F4B000041542B4349504D55583D300D3E
:10B860000A00000030B595B000240025802016F0B5
:10B870003FFB0446114B124A12A12046FCF7ACFED6
:10B8800001208DF804000A208DF850004FF4FA6072
:10B89000ADF84E00FF208DF8050011A10DF1060056
:10B8A000FDF72CF801A9204600F050F90546204686
:10B8B00016F0BCFB284615B030BD00006C0A002015
:10B8C000580A002041542B43495053544152543D8F
:10B8D00022544350222C222573222C25730D0A005A
:10B8E000434F4E4E4543540010B5002240210648B8
:10B8F00006F0CCFB782016F0E3FB01224021024841
:10B9000006F0C4FB10BD00000014024010B5FFF7A4
:10B91000EBFF13F071FC3D483D4908603D480BF0DA
:10B92000BDF801203C49087000203C49087000BF68
:10B93000FFF74CFF00B1FBE700F0A2F800B1F7E71A
:10B9400018E04FF4FA6016F0BBFB3548007800F0C1
:10B950007F00032805DA32480078401C304908701F
:10B9600008E003E04FF4FA6016F0AAFB2C480078D8
:10B970000028F7D100F006F90028E2D12848007825
:10B9800040F0800026490870FFF746FF00B1CFE77E
:10B9900018E04FF4FA6016F093FB2248007800F0AC
:10B9A0007F00032805DA1F480078401C1D490870F5
:10B9B00008E003E04FF4FA6016F082FB18480078C4
:10B9C0000028F7D1FFF74EFF0028E2D11548007894
:10B9D00040F080001349087000F02EF800B1A7E78E
:10B9E00000F020F900B1A3E70FA0FEF763FD0FA060
:10B9F000FEF760FD02200849087013F0FDFB0D48BA
:10BA00000349086001200549087010BD4516020869
:10BA100028020020A05000203A0000203F00002013
:10BA200038000020390000200D0A20006E657420C7
:10BA30006F6B00007916020800B595B001208DF8F3
:10BA4000040002208DF850004FF47A70ADF84E00DB
:10BA5000FF208DF8050005A10DF10600FCF74EFF53
:10BA600001A903A000F072F815B000BD4F4B000013
:10BA700041542B4349504D4F44453D310D0A000080
:10BA800030B597B00025002401208DF80400032074
:10BA90008DF850004FF4FA70ADF84E001BA10DF177
:10BAA0000600FCF72BFF01A919A000F04FF804468F
:10BAB000002C27D10120159015AB16AA18A11B4800
:10BAC00017F0E0FCE8B91949BDF858000830085CE7
:10BAD0003038C5B2012D00D114E001208DF80400EA
:10BAE00003208DF85000C820ADF84E0010A10DF1D4
:10BAF0000600FCF703FF01A910A000F027F80624B8
:10BB000000E00624204617B030BD00004F4B000077
:10BB100041542B43574D4F44453F0D0A0000000050
:10BB20002B43574D4F44453A00000000760B002050
:10BB30002B43574D4F44453A3100000041542B43AD
:10BB4000574D4F44453D310D0A00000070B5054684
:10BB50000C46002600BF13F04FFB2846FEF7CAFC38
:10BB6000B4F84A10204618F0D1F808B9002070BD8A
:10BB70003046711CCEB294F84C108842EBDB0520A5
:10BB8000F5E7000030B595B00025002409F0BCFEB3
:10BB9000802016F0ADF90546164B174A17A1284626
:10BBA000FCF71AFD02208DF8040003208DF85000E8
:10BBB00044F62060ADF84E00FF208DF8050016A178
:10BBC0000DF10600FCF79AFE14A106A8FCF796FEFC
:10BBD00001A92846FFF7BAFF04462CB99DF80500D5
:10BBE00008B9002400E00624284616F01FFA204673
:10BBF00015B030BD440A0020300A002041542B43C8
:10BC0000574A41505F4445463D222573222C222548
:10BC100073220D0A000000004F4B00004641494CC2
:10BC20000000000000B595B001208DF8040002204E
:10BC30008DF850004FF4FA60ADF84E00FF208DF8FB
:10BC4000050005A10DF10600FCF758FE01A903A0AF
:10BC5000FFF77CFF15B000BD4F4B000041542B4354
:10BC6000495053454E440D0A0000000030B50446CB
:10BC70000D4600222946204600F002F830BD0000A3
:10BC8000F0B50346012500241148407A01281CDA4A
:10BC900000200F4E767A0E4FB8553846467A001D72
:10BCA00040F82630001F467A083082553E46707AAA
:10BCB000461C7E72044604F1300008703A20487039
:10BCC0002F2088700020C87000252846F0BD000095
:10BCD0000051002070B504461D460023B5F5804F85
:10BCE00013D154F822300C480340D1E9000640EA51
:10BCF00006108E6840EA06208E8940EA06408E696A
:10BD00003043034344F8223003E06FF0704044F8BE
:10BD10002200002070BD00000000F0CF10B50346E7
:10BD20000022086853F8202012480240D1E901049B
:10BD30002043CC6820430C6920434C6920438C6924
:10BD40002043CC6920430C6A20434C6A20438C6A10
:10BD50002043CC6A2043CC6B20430C6B204302432E
:10BD60008868082801D142F04002086843F8202082
:10BD7000002010BD8000F0FF30B503460024501CA9
:10BD800053F8204004F04044D1E9000540EA051092
:10BD90008D6840EA05208D8940EA0545088A401EE5
:10BDA00045EA0055087D801E45EA00608D692843FC
:10BDB0000443501C43F82040002030BD70B520489B
:10BDC000046801F0B5FD204608F082FF04F03CFB5A
:10BDD0001C48046801F0ACFD204608F0B3FF04F0F5
:10BDE00033FB012501F0A4FD174C2068057604F013
:10BDF0002BFB01F09DFD20680025858504F024FBC8
:10BE000001F096FD2068458504F01EFB01F090FDD1
:10BE1000284608F0AFFF04F017FB0C48056801F056
:10BE200087FD2068002D18BFC56104F00DFB0025BB
:10BE300001F07EFD20688576BDE8704004F004BB0B
:10BE4000B8020020B4020020BC020020B002002092
:10BE50002DE9F04F4B4989B00968B1F922200692CB
:10BE6000D1F81CC0B1F92470DCF81C40A2898242D0
:10BE70009CBFE389984205D8A0EB02094FF0FF3838
:10BE8000266812E0D4E90162002A71D01388834247
:10BE90009CBF5588A8426BD8C01A526880B202EB8A
:10BEA0008000B0F90090B0F90280B9F1FF3F5FD097
:10BEB0009CF81800A27C10FB02FB94F810A00790DD
:10BEC000B1F92A50284608F055FFC0B208902D4815
:10BED00009FB0B620068A37C4FF00109816BCDE97F
:10BEE0000293CDE90421C0695246C17E807ECDE92E
:10BEF0000001DDE90603394608F074F9B8F1FF3FA7
:10BF000018D045F0020008F035FF1E48A37C08FB5E
:10BF10000B620068816BCDE90293CDE90421C06911
:10BF20005246C17E807ECDE90001DDE90603394637
:10BF300008F058F9134E3068C069417E007E814296
:10BF400013D9022D11D085F0040008F013FF3068DA
:10BF5000C069017EC27E11FB0271427ED319827ECE
:10BF600006981AFB020208F019FB089808F002FF75
:10BF70000448627C0068418C1144418409B0BDE8EA
:10BF8000F08F0000BC020020044800290068C0694E
:10BF9000C0691CBF027C0A60407C7047BC02002064
:10BFA000022008807047C06982898A429CBFC2898A
:10BFB000914210D9806880B102888A429CBF438830
:10BFC00099420AD8406800EB8100A0EB8200B0F9EA
:10BFD0000000002801DB01207047002070470000AE
:10BFE0002DE9F043394D024687B02868B0F92A6040
:10BFF000C069C1691046002904BF07B0BDE8F083DD
:10C000000B8883429CBF4B88984205D989680029D8
:10C01000F6D107B0BDE8F083002904BF07B0BDE842
:10C02000F08348680988511A00EBC1043046A778AC
:10C0300008F0A0FE8046286862680123816BCDE984
:10C040000237CDE90421C169CB7E8A7ECDE9002388
:10C050000B7EB0F924102278B0F9220008F0C2F863
:10C060002868C069417E027E91421FD9C07E11FBC3
:10C0700000F912FB00F7022E18D001F034FB06463F
:10C0800001F0FAFA03F0C3F929682278CB69B1F913
:10C090002200DB7E12FB0302B1F9241001EB09033D
:10C0A000394408F07BFA304603F0B1F9404608F015
:10C0B00061FE28686278C369B0F922109B7E12FB8A
:10C0C0000311418407B0BDE8F0830000BC020020EA
:10C0D00010B4044615480068D0F81CC02046DCF8AF
:10C0E0001C2002B3138883429CBF5388984203D913
:10C0F0009268002AF6D116E0AAB110885368221A75
:10C10000012000EBC2009CF81AC0185C10FB0CF078
:10C11000002904BF10BC704713F8322012FB0CF248
:10C120000A6010BC704710BC00207047BC020020A1
:10C13000012008807047C06968B102888A429CBFAC
:10C140004288914203D980680028F6D103E0002894
:10C150001CBF012070470020704700002DE9F04708
:10C16000DFF8A480DFF8A4A04FF00009D8F8084059
:10C17000002CC4BFD8F8106000251DDDD8F81000D1
:10C18000C5EB051700EBC7007022001DDAF80010A0
:10C19000FCF782FC46F8789BD8F8100005F1010501
:10C1A00000EBC70000F10C018161011D0A1DC0E90F
:10C1B0000F124164641EE1D1D8F808000024002861
:10C1C00010DD00BF04F06DF9D8F81020C4EB0411A5
:10C1D00052F83110814206D081B1D8F80800641CB1
:10C1E0008442EFDB4C46D8F81010C4EB041001EB8E
:10C1F000C000001DCAF80000BDE8F087C4EB0411C0
:10C2000042F83100EFE70000AC040020BC0200203F
:10C2100070B51B4919480860084605F057FA194CD3
:10C22000A068C0EB0010C500284600F021F9164BAD
:10C2300020612A461B68002198474FF0FF3020609C
:10C2400004F038F9A06800250028D8BF70BD00BFF1
:10C2500004F027F92269C5EB051152F8311081422B
:10C2600008BF70BD21B16D1CA0688542F0DB70BDB8
:10C27000C5EB051142F8310070BD000005DB010877
:10C28000C0040020AC04002088040020002808BF5F
:10C29000704710B5044601F04BFB20460EF094FDAC
:10C2A000044604F0D1F8204610BD00002DE9F0410D
:10C2B000074601F03DFB002F08BF002430D001F0FD
:10C2C00037FB38460EF080FD044604F0BDF8002C24
:10C2D00026D0164D164B3A46E869401CE861686B5B
:10C2E00000EBC4000178491C01700421686B01EB6C
:10C2F000C4011B684058002100F1080630469847E9
:10C3000056F8081C686B00EBC1000178022904D3C1
:10C31000E96900291CBF491EE9610178491E0170C5
:10C3200004F092F82046BDE8F08100003CA2002015
:10C3300088040020024A106021F00300506070471A
:10C34000FCA20020002808BF704770B5044601F029
:10C35000EFFA0C4D042000EBC406696B895948685C
:10C360000EF0D4FC6868401C6860696B686A88518C
:10C37000696B002001F834006C62BDE8704004F085
:10C3800063B800003CA20020002808BF7047044AA0
:10C39000D16B0160002918BF4860D063704700006E
:10C3A0003CA200202DE9F041064601F0C1FA3468B4
:10C3B0000027C4B101F0BCFA0D4D042000EBC40805
:10C3C000696B51F8081048680EF0A0FC6868401CC2
:10C3D0006860696B686A41F80800686B00F834703F
:10C3E0006C6204F031F83760BDE8F04104F02CB81D
:10C3F0003CA200202DE9F05F0F1E81464FF00005A2
:10C40000C6BFDFF868804FF0000ABDE8F09F00BFAC
:10C4100009EB850601F08CFA3468F4B101F088FA72
:10C420000420D8F8341000EBC40B51F80B10486806
:10C430000EF06CFCD8F80400401CC8F80400D8F8D2
:10C440003410D8F8240041F80B00D8F8340000F874
:10C4500034A0C8F8244003F0F7FFC6F800A003F0AA
:10C46000F3FF6D1CBD42D3DBBDE8F09F3CA2002072
:10C470002DE9F041044611F055F9E01C274E20F05B
:10C480000300051D306CA84288BF0546F46BBCB1A3
:10C4900054F8041CA94210D19CB1206800281CBF8C
:10C4A00061684160606800281CBF21680160F16B11
:10C4B000A14204BF2068F0632DE02468002CE7D17E
:10C4C0000024F168B06B00EB010858F8040CA8EBED
:10C4D0000007386840B1002011F020FE58F8040C25
:10C4E000A8EB00073868B0B97868A84213DB384475
:10C4F000401B041D384611F0E3FDF068401BF0605E
:10C500007069284470617868401B1CBF39460EF082
:10C51000FDFB44F8045C2046BDE8F0813CA200200D
:10C5200010B5002411F0FEF80D490F2001EBC002F8
:10C53000526C8AB101EBC000406C806848B1416820
:10C54000A14288BF0C46806800281CBF8068002874
:10C55000F5D1A4F10C0010BD401EE7D5F9E70000AD
:10C560003CA20020002140B10549042202EBC0009A
:10C57000496B08584068A0F10C010846704700005C
:10C580003CA2002002488169491C8161704700007B
:10C590003CA200200849CA69521CCA614A6B02EBDE
:10C5A000C00213785B1C1370496B042202EBC000BD
:10C5B00008580830704700003CA200202DE9F05FC9
:10C5C0000E0005464FF0000808BF474674D001F042
:10C5D000AFF930460EF0F8FB074603F035FF002FA9
:10C5E00018BF002D68D0364C4FF0040909EBC50A7E
:10C5F000606B50F80A004068A0F10C00B042B8BF70
:10C60000064601F095F9E0692E4B401CE061606B35
:10C61000324600EBC7000178491C0170606B09EBE2
:10C62000C701415800EBC50001F1080BE169491C45
:10C63000E1610178491C0170606B1B6850F80A00C9
:10C6400000F108094946584698475BF8081C606B9A
:10C6500000EBC1000178022904D3E16900291CBF65
:10C66000491EE1610178491E017059F8081C606B90
:10C6700000EBC1000178022904D3E16900291CBF45
:10C68000491EE1610178491E017001F051F9606BAA
:10C6900050F80A1048680EF039FB6068401C606072
:10C6A000616B606A41F80A00606B00F83580656272
:10C6B00003F0CAFE03F0C8FE3846BDE8F09F000054
:10C6C0003CA200208C04002010B501F031F90024B8
:10C6D00011F028F8194B1A490F2000BF01EBC002D6
:10C6E000526CE2B101EBC000406C8068C8B1426896
:10C6F000A24288BF1446806800281CBF80680028BA
:10C70000F5D1A4F10C00B0F5800F0DD983FB00200A
:10C710004211096AA2EBE07000FB01F409E0401E3F
:10C72000DCD5A4F10C00F1E7096A4843A3FB001033
:10C73000440903F089FE204610BD00001F85EB511F
:10C740003CA2002002488169491E816170470000B7
:10C750003CA200200A4902684B6B52F8082C03EBFC
:10C76000C2021378022B04D3CB69002B1CBF5B1EC3
:10C77000CB611178491E1170002101600846704795
:10C780003CA200200349042202EBC000496B085878
:10C79000083070473CA2002070B514460D4606468E
:10C7A00001F0C6F8204600F0ABFF0300164804EB8A
:10C7B000840109D050F8210041688068711A2A1A52
:10C7C000184602F051FE1AE000EB8104A268B24262
:10C7D00014BF01220022E368AB4214BF01230023EF
:10C7E0001A430CD0236943B150F821008168406896
:10C7F0006A1A311A184602F01DFBC4E90265BDE849
:10C80000704003F021BE000060A40020C2B2CBB291
:10C81000D21A48BF524292B202FB02F3C0F307227F
:10C82000C1F3072CB2EB0C0248BF524292B2000C8B
:10C83000A0EB114002FB023200B20028BCBF404214
:10C8400000B280B200FB0020704700002DE9F041EB
:10C85000002182B0084600F0D1FF43F6FF7637464C
:10C8600001F066F8042008F085FA80461248406915
:10C87000C16C006D8D1B841B0E440744ADF8005045
:10C88000ADF80460ADF80240ADF8067068460DF0F2
:10C8900079FD48B13B4632462146284607F07EFEE8
:10C8A0000DF0A4FB0028F5D1404608F063FA03F030
:10C8B000CBFD02B0BDE8F081A80200202DE9F041D7
:10C8C00082B01C4617460D46064601F031F804209A
:10C8D00008F050FA804613484169C86C096D064457
:10C8E00007440D440C44ADF80060ADF80470ADF899
:10C8F0000250ADF8064068460DF044FD48B12346AD
:10C900003A462946304607F049FE0DF06FFB0028F5
:10C91000F5D1404608F02EFA03F096FD02B0BDE8CE
:10C92000F0810000A80200202DE9F04182B0B0F9AA
:10C930000050B0F90240B0F90460B0F9067000F0A0
:10C94000F7FF042008F016FA804613484169C86CC6
:10C95000096D054406440C440F44ADF80050ADF891
:10C960000460ADF80240ADF8067068460DF00AFDAF
:10C9700048B13B4632462146284607F00FFE0DF0EF
:10C9800035FB0028F5D1404608F0F4F903F05CFDD2
:10C9900002B0BDE8F0810000A80200202DE9F843B4
:10C9A0001C00DDE9089816460F46054602D10CF03A
:10C9B00051F904460096D5F800C043464A46214640
:10C9C0002846E047061E08BFBDE8F8830CF036F99C
:10C9D0008146698A30460BF091FA30460DF07CF9B9
:10C9E00048460DF079F97F1E002FC8BF4FF00008B0
:10C9F0000FDD00BFCDF8008055F81CCF00231A468C
:10CA000049462846E04718B30DF066F97F1E002F0F
:10CA1000F0DC1D2148460CF0BDFFB4F1FF3F14D0FF
:10CA200000F086FF0CF09EF940B100BFFFF7AAFEB0
:10CA30008469B44218BF5FEA0400F7D1B4421CBF56
:10CA400030460DF06BF803F0FFFC3046BDE8F8838C
:10CA500030460BF02BFE0020BDE8F883022BA4BF6C
:10CA6000002070472DE9F04106461C4615460F464A
:10CA70001C20FFF7FDFC002808BFBDE8F081002F57
:10CA800018BF07610BD10A4A52F8241039B10A685D
:10CA90001AB111461268002AFBD10969016184614B
:10CAA0008582002101604160C0E90216BDE8F08185
:10CAB000E80200202DE9F04100241D460746884683
:10CAC0001646022B27DA1C20FFF7D2FC18B3B8F168
:10CAD000000F18BFC0F810800BD1104A52F8251073
:10CAE00039B10A681AB111461268002AFBD10969E6
:10CAF00001618561868204604460C0E902470400E8
:10CB000009D000F011F8E068006820B90448006816
:10CB100000EB850084652046BDE8F081E802002036
:10CB2000BC020020FFF730BC00281CBF8369022B29
:10CB3000A4BF01207047234A591C92F800C08C45BD
:10CB4000B8BF117010B4204C54F82310002908BF4E
:10CB500044F8230030D04A682AB111465268002AAE
:10CB6000FBD100292BD0C268D2F800C0CA68126875
:10CB7000624503DD09680029F8D120E0F9B1CA68EF
:10CB80001268624504BF828A012A08D10A682AB164
:10CB90001146D26812686245F8DA00E079B14A6855
:10CBA000002A1DBF10604A68426044F823004860B4
:10CBB000884208BF0021016010BC0020704710BCF3
:10CBC000012070470E030020E8020020002808BF63
:10CBD000704770B4244D254CD0F800C000281CBF0D
:10CBE0008669022E3ADA2A78711C8A42B8BF297007
:10CBF00054F82610002908BF44F826002ED04A68B1
:10CC000022B111465268002AFBD139B3C2681268BA
:10CC1000CB681B68934203DD09680029F8D11DE049
:10CC2000E1B1CB681B68934204BF838A012B08D112
:10CC30000B682BB11946DB681B689342F8DA00E0F9
:10CC400061B14A68002A1DBF10604A68426044F81A
:10CC500026004860884208BF002101605FEA0C009E
:10CC6000BAD170BC704700000E030020E80200201B
:10CC70000D4B8269002153F822C0844507D1D0F8BA
:10CC800000C043F822C00268002A18BF5160426801
:10CC9000002A1CBF036813600268002A1CBF436897
:10CCA0005360016041607047E80200200020704737
:10CCB0000228A4BF00207047064951F82000002830
:10CCC00008BF7047C168096800291CBF00680028B8
:10CCD000F8D17047E8020020002808BF70472DE90E
:10CCE000F8431E46174688460446FFF753FC00905B
:10CCF000006805686846FFF72DFD33463A46414611
:10CD00002046A847BDE8F8832DE9F047044603F024
:10CD1000CCFB00EB0408174FDFF85C901EE000BF6F
:10CD200000F05EFB38688642C8BF064600F000FE91
:10CD3000D9F80040FFF726FC250017D003F084FB4C
:10CD40006D1EFBD1304603F0A5FB1CB100F0F0FDD9
:10CD5000641EFBD1FFF7F6FC03F076FB03F0A5FBA6
:10CD6000A8EB0006002EDBDCBDE8F087304603F0C0
:10CD700091FBEFE728030020B8040020002808BF3B
:10CD800070472DE9F04F83B0054600F0D1FD00F06B
:10CD9000C1FC3C4C80462068B0F9227000F0FEFCDB
:10CDA00082462068818CA1EB0A01818428780028C2
:10CDB00018BFA8F1010946D047F6FF71284604F0D4
:10CDC000C3FA83460146284604F084FA21680646E1
:10CDD00091F82C0000F00300012808BF304605D070
:10CDE000022812BF002006EBD67040104A8C101AA1
:10CDF0004884ADF80000721E1044ADF80400888C21
:10CE0000ADF802004844ADF806006A465946284687
:10CE100003F084FD2168BDF8020088845946284645
:10CE200003F0E6F9054428780A2818BF0D2817D022
:10CE3000BDF80000216830444884287818B115F8FE
:10CE4000010F0028B8D12068818C51448184818DE4
:10CE500021F00301818503F0F7FA03B0BDE8F08FFC
:10CE6000206890F82C1001F0030101291DBF022950
:10CE7000018C4184478429780A29DED1818C414480
:10CE80008184DAE7BC02002070B514460D460646E0
:10CE900000F04EFD0548016830464D848C84FFF754
:10CEA0006DFFBDE8704003F0CFBA0000BC02002067
:10CEB0002DE9F0410D4F0646154638680C46B0F98D
:10CEC0002C0040F0020002F0FFFA804600F030FD36
:10CED0003868448485843046FFF750FF03F0B4FA85
:10CEE0004046BDE8F04102F0EFBA0000BC0200206D
:10CEF0002DE9F04182B006000D46174647F6FF784F
:10CF00004FF0000404BF02B0BDE8F08100F010FD56
:10CF100065B128460CF0D0FE040007D00246294631
:10CF2000684604F08AFA68460CF0C6FE43463A4664
:10CF30002946304603F0E4FD20460CF0BDFE03F028
:10CF400083FA02B0BDE8F081002808BF70472DE9E0
:10CF5000FF4F87B093460E46054600F0E9FC346863
:10CF6000776821B238B2401A401C029000F0D2FB20
:10CF700082461BF00C0F2FD0029801900A98A84609
:10CF80004FF00009009000F0D3FCDDE9002140469D
:10CF900004F006FC8044002818BF09F10109F4D10F
:10CFA00003F052FA0BF00C00042818BF082802D036
:10CFB0000C2805D010E0381409FB1A00401C09E0C9
:10CFC0002114C1EB274009FB1A00401C00EBD07074
:10CFD00001EB600060F31F4430460CF06DFE5FEA29
:10CFE000000909D0CDE904470246314604A804F0FF
:10CFF00024FA04A80CF060FEAAF1010828460A9A57
:10D00000029904F00FFC039008EB244060F31F47E3
:10D01000CDE900472846039904F05CF91BF00301B1
:10D0200008BF30880ED001290FD0022912D1B6F9DD
:10D030000420B6F90010521A101A401C00EBD070F0
:10D0400001EB6000ADF8000004E0B188081A401C54
:10D05000ADF800006A462846039903F05FFC2846B5
:10D060000A9A029904F09CFB05440AEB244060F301
:10D070001F4428780028C1D148460CF01DFE03F05B
:10D08000E3F90BB0BDE8F08F2DE9FF4FA3B01C46CC
:10D0900015460E46074600F04BFC80480168D1F863
:10D0A0004CC00CEB07002390086D811924910CEB08
:10D0B00005012044CDE925102398ADF86800ADF8AE
:10D0C0006C1026982499ADF86E00ADF86A101AA875
:10D0D0000DF058F9002800F0DB8026992498081AF2
:10D0E00002903198C2B23098C1B2501A1C90029886
:10D0F00048431090029800EBD0700F903098C0F326
:10D1000007213198C0F30720401A1990029848432C
:10D1100011903098C0F307413198C0F30740401A8E
:10D120001D900298484312903098010E3198C1EB3F
:10D1300010601E90029848431390239803902498FF
:10D140000790259801902698DDE9304505905448D0
:10D1500004900120209000F0C6FA1F90AC4207D145
:10D16000204607F0EFFD059B019A0799039879E0A7
:10D17000029F0125002F6ED01C991791DDE90F1237
:10D1800002EB610B199A1692119A079C02EB610A45
:10D190001D9A1592129A02EB61091E9A1492139A23
:10D1A00002EB610805998C4251DC00BF9BFBF7FC48
:10D1B0009AFBF7F3179999FBF7F28B441699149E93
:10D1C0008A4415994CEA0323894498FBF7F1B0444B
:10D1D00043EA024242EA016607998C4216DD864222
:10D1E00008BF6D1C12D007F0ADFD2098012D23DD86
:10D1F00000281FBF611B631E019A039801BF601BBB
:10D20000019B621E039907F0C9F901250599641C69
:10D2100030468C42CADD07F095FD05982099012D16
:10D2200023DD0029A0EB050116D00346491C019A15
:10D23000039807F0B3F923E0019A002819BF611E93
:10D24000DDE90303601EDDE903139847DDE707F01E
:10D2500079FD05980FE016E001F1010C02466046E9
:10D26000019B039907F09AF90AE0002904BF019A8B
:10D27000DDE9031303D00146DDE90303019A984772
:10D280001F9807F05FFD0CF0B1FE00287FF455AF4A
:10D2900003F0DAF827B0BDE8F08F0000BC020020F0
:10D2A00065440108F0B583B015460E46074600F008
:10D2B0003FFB114C2168C86C096D064405440F44BE
:10D2C000ADF80060ADF80450ADF80270ADF806702E
:10D2D00068460DF057F850B120682A463946406E2E
:10D2E0000368304698470CF081FE0028F4D103F023
:10D2F000ABF803B0F0BD0000BC0200202DE9F04106
:10D3000082B0984617460D46064600F011FB1E48AF
:10D310000468207E216DA0F1010CE06C0D440644F0
:10D320000744A6EB0C00ADF8000007EB0C00ADF8CD
:10D330000400A5EB0C0001EB0804ADF8020004EBBF
:10D340000C00ADF8060068460DF01CF8B8B13A467E
:10D350002946304607F086F83A462146304607F01F
:10D3600081F8621E691C304607F0E6F8621E691CEF
:10D37000384607F0E1F80CF039FE0028E7D103F059
:10D3800063F802B0BDE8F081BC02002070B582B045
:10D3900014460D46064600F0CBFA10480068C16CF2
:10D3A000006D0E4405440444ADF80060ADF804601F
:10D3B000ADF80250ADF8064068460CF0E3FF40B10E
:10D3C00022462946304607F0B7F80CF00FFE002839
:10D3D000F6D103F039F802B070BD0000BC020020A5
:10D3E0002DE9F0411C4E00252C46306818B18047CD
:10D3F000002818BF01240BF027FA002818BF0124C9
:10D40000164F386818B18047002818BF0124DFF88C
:10D410005080D8F80000002818BF8047CCB1012503
:10D420003068002418B18047002818BF01240BF091
:10D430000BFA002818BF0124386818B1804700286B
:10D4400018BF0124D8F80000002818BF8047002C1E
:10D45000E5D12846BDE8F081C8020020F402002092
:10D46000F00200202DE9F74F86B00C46054600F08B
:10D470005FFADFF8F0A0DAF80000C16C006D4E1919
:10D480002044079000200CF07DFF002865D008980C
:10D4900040F2C3214843049008980899404301EBA7
:10D4A000D17100EB61000390089830440190089816
:10D4B000301A009004984FF47A7190FBF1F0DDE996
:10D4C000077400F1010B03980290DAF80010DDE90F
:10D4D0000002496E0B68394698470125BBF1010FE0
:10D4E00037DB00BF05FB05F004FB04010298814215
:10D4F0001ADD5C4517DDDAF8003006EB0509A6EB0E
:10D5000005085B6EA9F1010239191B6808F10100D9
:10D510009847DAF80030A9F10102391B5B6E08F177
:10D5200001001B689847641EDAF800303219791937
:10D530005B6E301B91461B6880469847DAF80030D6
:10D540004A46791B5B6E40461B6898476D1CAB458D
:10D55000C8DA0CF04BFD0028ACD109B0BDE8F04FA3
:10D5600002F072BFBC020020F0B583B01C46154625
:10D570000E46074600F0DCF910480168C86C096DDA
:10D58000074405440E440C44ADF80070ADF8045057
:10D59000ADF80260ADF8064068460CF0F3FE48B105
:10D5A00023462A463146384606F0F8FF0CF01EFDA9
:10D5B0000028F5D102F048FF03B0F0BDBC02002006
:10D5C000002808BF7047B0F806C083888068BCF1A7
:10D5D000080F02BF02FB0311405C704709DCBCF17D
:10D5E000010F0ED0BCF1020F17D0BCF1040F21D0F7
:10D5F00005E0BCF1100F28D0BCF1200F2BD000208B
:10D6000070475A4302EBD10201F00701805CC1F17F
:10D610000701C84000F0010070475A4302EB910235
:10D62000805C062202EA4101C1F10601C84000F017
:10D63000030070475A4302EB510211F0010F805C66
:10D6400014BF00F00F00000970475B0802FB0311D4
:10D6500030F8110070479B0802FB031150F82100BD
:10D6600070470000034951F82000C1688A6A082108
:10D6700010470000E802002010B500F059F906F04C
:10D68000D3FF07F065F9044602F0DEFE204610BD28
:10D6900010B5044600F04CF9054920460968C969EF
:10D6A0004A6800219047044602F0CEFE204610BD95
:10D6B000BC02002070B50C46054600F039F9064A58
:10D6C000214628461268D26952689047044602F003
:10D6D000BBFE204670BD0000BC020020002808BF31
:10D6E00070470BF091BA10B500F022F906F0A4FFD4
:10D6F00007F02EF9044602F0A7FE204610BD0000F8
:10D70000002102283CBF024951F82010084670470A
:10D71000A404002010B500F00BF904480068C069AB
:10D72000447E02F091FE204610BD0000BC020020A5
:10D7300070B515460E46044600F0FAF82A46314602
:10D74000204606F0F5FF040002D00020306028607B
:10D7500002F07AFE204670BD70B50C46054600F01A
:10D76000E7F80648B0F9000028600548B0F9000065
:10D770002060BDE8704002F067BE00001403002086
:10D780001603002010B5044603F000FE01462046B3
:10D79000BDE8104003F09EBD02F087BE10B5002426
:10D7A00000F0C6F80C48006890F82C1001F00C014D
:10D7B000042904D0082918BF0C2905D008E0C06945
:10D7C000007EA0F1010403E0C069007E4FEA50042E
:10D7D00002F03AFE204610BDBC020020024951F87A
:10D7E0002000006900687047E8020020024951F8F3
:10D7F0002000006940687047E802002070B50C46C0
:10D80000054600F095F8044800684584848402F0D9
:10D810001BFE002070BD0000BC0200202DE9F0417D
:10D820003948016821F0010101603848012686600D
:10D8300081680029FCD13649016000683549884279
:10D8400000D0FEE7344D686B70B96E6302F006FEDF
:10D85000FEF7DEFC07F026FB05F138012F480860D3
:10D860000846296B416028632E20287002F021FEB3
:10D8700068692B4C011DC0E90E010064091D61613E
:10D88000417C284850F82100C1680A6B04F1080166
:10D89000904725486066A868E06168690830606163
:10D8A00026760BF0D7F9A064032084F868006FF0A7
:10D8B000704020636063286907F00AFAE86807F09F
:10D8C00041FA1A48E86112F0DFF9044606F092FFC7
:10D8D00010B106F0D3FF38B906F0E5FF074606F0B1
:10D8E0009EFF394607F040FA0021084601F0CCFDC2
:10D8F0000BF02CFDFEF732FCA869002818BF80470A
:10D90000AE702046BDE8F081002000E0003002400B
:10D91000C2A507F4CDB5E8B5A802002055DA010884
:10D9200008A30020E8020020305902083C630208E6
:10D9300070B5234CE06820B102F0B3FD6168884205
:10D9400004D002F0C9FD02F0ACFD6060E068401C4C
:10D95000E060012818BF70BD0025A06800280DDD1B
:10D9600002F09FFD2269C5EB051152F8311081428A
:10D9700005D0F9B1A0686D1C8542F1DB0025206857
:10D98000854208BF70BD002812DBFFF78FF92168C0
:10D99000C1EB0112216901EBC2025067C5EB051012
:10D9A000084A01EBC000011D1160406FFFF70EF93E
:10D9B000256070BDC5EB051142F83100DFE70000BE
:10D9C000AC040020BC02002010B582B0040006D1D7
:10D9D0000F480068046E002C04BF02B010BDFFF7B2
:10D9E000A7FF2046FEF7D6FD009044696846FEF783
:10D9F000B1FE4CB12046FEF7CDFD019081688968EB
:10DA0000884701A8FEF7A6FE02F01EFD02B010BD79
:10DA1000BC02002001490A4600F002B801F0FFFFF5
:10DA2000002808BF70472DE9F04786B016460C461F
:10DA30008146FFF77DFF002001F0FAFC314D804662
:10DA40002868076E4846FEF7A5FD009000688069CB
:10DA500001F0B6FC824640F6FF70C44204D1009843
:10DA6000B0F90440B0F906600098621E0189ADF873
:10DA700008401144ADF80C104089711E0844ADF8FF
:10DA80000A60ADF80E000AF069FC6846FEF762FE17
:10DA900002A80CF077FC40B132462146484600F01F
:10DAA0005BFC0CF0A3FA0028F6D1504601F088FC8C
:10DAB0003C46FFF73DFF2868006EFCB1002818BF08
:10DAC00001F070FC0AF0BEFD2046FEF763FD0190F8
:10DAD00029680C660068FFF727F801A8FEF73AFEF0
